{
	"contracts/Demo.sol": {
		"HelloComrades": {
			"abi": [
				{
					"inputs": [
						{
							"internalType": "address",
							"name": "leader_",
							"type": "address"
						}
					],
					"stateMutability": "nonpayable",
					"type": "constructor"
				},
				{
					"inputs": [
						{
							"internalType": "string",
							"name": "msg",
							"type": "string"
						}
					],
					"name": "MyError",
					"type": "error"
				},
				{
					"anonymous": false,
					"inputs": [
						{
							"indexed": false,
							"internalType": "string",
							"name": "tag",
							"type": "string"
						},
						{
							"indexed": false,
							"internalType": "address",
							"name": "from",
							"type": "address"
						},
						{
							"indexed": false,
							"internalType": "uint256",
							"name": "value",
							"type": "uint256"
						},
						{
							"indexed": false,
							"internalType": "bytes",
							"name": "data",
							"type": "bytes"
						}
					],
					"name": "Log",
					"type": "event"
				},
				{
					"anonymous": false,
					"inputs": [
						{
							"indexed": false,
							"internalType": "uint8",
							"name": "",
							"type": "uint8"
						}
					],
					"name": "Step",
					"type": "event"
				},
				{
					"stateMutability": "payable",
					"type": "fallback"
				},
				{
					"inputs": [
						{
							"internalType": "string",
							"name": "content",
							"type": "string"
						}
					],
					"name": "comfort",
					"outputs": [
						{
							"internalType": "bool",
							"name": "",
							"type": "bool"
						}
					],
					"stateMutability": "payable",
					"type": "function"
				},
				{
					"inputs": [
						{
							"internalType": "string",
							"name": "content",
							"type": "string"
						}
					],
					"name": "comfortRes",
					"outputs": [
						{
							"internalType": "bool",
							"name": "",
							"type": "bool"
						}
					],
					"stateMutability": "nonpayable",
					"type": "function"
				},
				{
					"inputs": [],
					"name": "destruct",
					"outputs": [
						{
							"internalType": "bool",
							"name": "",
							"type": "bool"
						}
					],
					"stateMutability": "payable",
					"type": "function"
				},
				{
					"inputs": [],
					"name": "getBalance",
					"outputs": [
						{
							"internalType": "uint256",
							"name": "",
							"type": "uint256"
						}
					],
					"stateMutability": "view",
					"type": "function"
				},
				{
					"inputs": [
						{
							"internalType": "string",
							"name": "content",
							"type": "string"
						}
					],
					"name": "hello",
					"outputs": [
						{
							"internalType": "bool",
							"name": "",
							"type": "bool"
						}
					],
					"stateMutability": "nonpayable",
					"type": "function"
				},
				{
					"inputs": [
						{
							"internalType": "string",
							"name": "content",
							"type": "string"
						}
					],
					"name": "helloRes",
					"outputs": [
						{
							"internalType": "bool",
							"name": "",
							"type": "bool"
						}
					],
					"stateMutability": "nonpayable",
					"type": "function"
				},
				{
					"inputs": [],
					"name": "leader",
					"outputs": [
						{
							"internalType": "address",
							"name": "",
							"type": "address"
						}
					],
					"stateMutability": "view",
					"type": "function"
				},
				{
					"inputs": [],
					"name": "step",
					"outputs": [
						{
							"internalType": "uint8",
							"name": "",
							"type": "uint8"
						}
					],
					"stateMutability": "view",
					"type": "function"
				},
				{
					"stateMutability": "payable",
					"type": "receive"
				}
			],
			"devdoc": {
				"kind": "dev",
				"methods": {},
				"version": 1
			},
			"evm": {
				"assembly": "    /* \"contracts/Demo.sol\":71:3490  contract HelloComrades {... */\n  mstore(0x40, 0xa0)\n    /* \"contracts/Demo.sol\":154:155  0 */\n  0x00\n    /* \"contracts/Demo.sol\":133:155  uint8 public  step = 0 */\n  dup1\n  exp(0x0100, 0x00)\n  dup2\n  sload\n  dup2\n  0xff\n  mul\n  not\n  and\n  swap1\n  dup4\n  0xff\n  and\n  mul\n  or\n  swap1\n  sstore\n  pop\n    /* \"contracts/Demo.sol\":1006:1129  constructor (address leader_){... */\n  callvalue\n  dup1\n  iszero\n  tag_1\n  jumpi\n  0x00\n  dup1\n  revert\ntag_1:\n  pop\n  mload(0x40)\n  sub(codesize, bytecodeSize)\n  dup1\n  bytecodeSize\n  dup4\n  codecopy\n  dup2\n  dup2\n  add\n  0x40\n  mstore\n  dup2\n  add\n  swap1\n  tag_2\n  swap2\n  swap1\n  tag_3\n  jump\t// in\ntag_2:\n    /* \"contracts/Demo.sol\":1073:1074  0 */\n  0x00\n    /* \"contracts/Demo.sol\":1054:1075  leader_ != address(0) */\n  0xffffffffffffffffffffffffffffffffffffffff\n  and\n    /* \"contracts/Demo.sol\":1054:1061  leader_ */\n  dup2\n    /* \"contracts/Demo.sol\":1054:1075  leader_ != address(0) */\n  0xffffffffffffffffffffffffffffffffffffffff\n  and\n  sub\n    /* \"contracts/Demo.sol\":1046:1094  require(leader_ != address(0),\"invalid address\") */\n  tag_6\n  jumpi\n  mload(0x40)\n  0x08c379a000000000000000000000000000000000000000000000000000000000\n  dup2\n  mstore\n  0x04\n  add\n  tag_7\n  swap1\n  tag_8\n  jump\t// in\ntag_7:\n  mload(0x40)\n  dup1\n  swap2\n  sub\n  swap1\n  revert\ntag_6:\n    /* \"contracts/Demo.sol\":1114:1121  leader_ */\n  dup1\n    /* \"contracts/Demo.sol\":1105:1121  leader = leader_ */\n  0xffffffffffffffffffffffffffffffffffffffff\n  and\n  0x80\n  dup2\n  0xffffffffffffffffffffffffffffffffffffffff\n  and\n  dup2\n  mstore\n  pop\n  pop\n    /* \"contracts/Demo.sol\":1006:1129  constructor (address leader_){... */\n  pop\n    /* \"contracts/Demo.sol\":71:3490  contract HelloComrades {... */\n  jump(tag_9)\n    /* \"#utility.yul\":88:205   */\ntag_11:\n    /* \"#utility.yul\":197:198   */\n  0x00\n    /* \"#utility.yul\":194:195   */\n  dup1\n    /* \"#utility.yul\":187:199   */\n  revert\n    /* \"#utility.yul\":334:460   */\ntag_13:\n    /* \"#utility.yul\":371:378   */\n  0x00\n    /* \"#utility.yul\":411:453   */\n  0xffffffffffffffffffffffffffffffffffffffff\n    /* \"#utility.yul\":404:409   */\n  dup3\n    /* \"#utility.yul\":400:454   */\n  and\n    /* \"#utility.yul\":389:454   */\n  swap1\n  pop\n    /* \"#utility.yul\":334:460   */\n  swap2\n  swap1\n  pop\n  jump\t// out\n    /* \"#utility.yul\":466:562   */\ntag_14:\n    /* \"#utility.yul\":503:510   */\n  0x00\n    /* \"#utility.yul\":532:556   */\n  tag_26\n    /* \"#utility.yul\":550:555   */\n  dup3\n    /* \"#utility.yul\":532:556   */\n  tag_13\n  jump\t// in\ntag_26:\n    /* \"#utility.yul\":521:556   */\n  swap1\n  pop\n    /* \"#utility.yul\":466:562   */\n  swap2\n  swap1\n  pop\n  jump\t// out\n    /* \"#utility.yul\":568:690   */\ntag_15:\n    /* \"#utility.yul\":641:665   */\n  tag_28\n    /* \"#utility.yul\":659:664   */\n  dup2\n    /* \"#utility.yul\":641:665   */\n  tag_14\n  jump\t// in\ntag_28:\n    /* \"#utility.yul\":634:639   */\n  dup2\n    /* \"#utility.yul\":631:666   */\n  eq\n    /* \"#utility.yul\":621:684   */\n  tag_29\n  jumpi\n    /* \"#utility.yul\":680:681   */\n  0x00\n    /* \"#utility.yul\":677:678   */\n  dup1\n    /* \"#utility.yul\":670:682   */\n  revert\n    /* \"#utility.yul\":621:684   */\ntag_29:\n    /* \"#utility.yul\":568:690   */\n  pop\n  jump\t// out\n    /* \"#utility.yul\":696:839   */\ntag_16:\n    /* \"#utility.yul\":753:758   */\n  0x00\n    /* \"#utility.yul\":784:790   */\n  dup2\n    /* \"#utility.yul\":778:791   */\n  mload\n    /* \"#utility.yul\":769:791   */\n  swap1\n  pop\n    /* \"#utility.yul\":800:833   */\n  tag_31\n    /* \"#utility.yul\":827:832   */\n  dup2\n    /* \"#utility.yul\":800:833   */\n  tag_15\n  jump\t// in\ntag_31:\n    /* \"#utility.yul\":696:839   */\n  swap3\n  swap2\n  pop\n  pop\n  jump\t// out\n    /* \"#utility.yul\":845:1196   */\ntag_3:\n    /* \"#utility.yul\":915:921   */\n  0x00\n    /* \"#utility.yul\":964:966   */\n  0x20\n    /* \"#utility.yul\":952:961   */\n  dup3\n    /* \"#utility.yul\":943:950   */\n  dup5\n    /* \"#utility.yul\":939:962   */\n  sub\n    /* \"#utility.yul\":935:967   */\n  slt\n    /* \"#utility.yul\":932:1051   */\n  iszero\n  tag_33\n  jumpi\n    /* \"#utility.yul\":970:1049   */\n  tag_34\n  tag_11\n  jump\t// in\ntag_34:\n    /* \"#utility.yul\":932:1051   */\ntag_33:\n    /* \"#utility.yul\":1090:1091   */\n  0x00\n    /* \"#utility.yul\":1115:1179   */\n  tag_35\n    /* \"#utility.yul\":1171:1178   */\n  dup5\n    /* \"#utility.yul\":1162:1168   */\n  dup3\n    /* \"#utility.yul\":1151:1160   */\n  dup6\n    /* \"#utility.yul\":1147:1169   */\n  add\n    /* \"#utility.yul\":1115:1179   */\n  tag_16\n  jump\t// in\ntag_35:\n    /* \"#utility.yul\":1105:1179   */\n  swap2\n  pop\n    /* \"#utility.yul\":1061:1189   */\n  pop\n    /* \"#utility.yul\":845:1196   */\n  swap3\n  swap2\n  pop\n  pop\n  jump\t// out\n    /* \"#utility.yul\":1202:1371   */\ntag_17:\n    /* \"#utility.yul\":1286:1297   */\n  0x00\n    /* \"#utility.yul\":1320:1326   */\n  dup3\n    /* \"#utility.yul\":1315:1318   */\n  dup3\n    /* \"#utility.yul\":1308:1327   */\n  mstore\n    /* \"#utility.yul\":1360:1364   */\n  0x20\n    /* \"#utility.yul\":1355:1358   */\n  dup3\n    /* \"#utility.yul\":1351:1365   */\n  add\n    /* \"#utility.yul\":1336:1365   */\n  swap1\n  pop\n    /* \"#utility.yul\":1202:1371   */\n  swap3\n  swap2\n  pop\n  pop\n  jump\t// out\n    /* \"#utility.yul\":1377:1542   */\ntag_18:\n    /* \"#utility.yul\":1517:1534   */\n  0x696e76616c696420616464726573730000000000000000000000000000000000\n    /* \"#utility.yul\":1513:1514   */\n  0x00\n    /* \"#utility.yul\":1505:1511   */\n  dup3\n    /* \"#utility.yul\":1501:1515   */\n  add\n    /* \"#utility.yul\":1494:1535   */\n  mstore\n    /* \"#utility.yul\":1377:1542   */\n  pop\n  jump\t// out\n    /* \"#utility.yul\":1548:1914   */\ntag_19:\n    /* \"#utility.yul\":1690:1693   */\n  0x00\n    /* \"#utility.yul\":1711:1778   */\n  tag_39\n    /* \"#utility.yul\":1775:1777   */\n  0x0f\n    /* \"#utility.yul\":1770:1773   */\n  dup4\n    /* \"#utility.yul\":1711:1778   */\n  tag_17\n  jump\t// in\ntag_39:\n    /* \"#utility.yul\":1704:1778   */\n  swap2\n  pop\n    /* \"#utility.yul\":1787:1880   */\n  tag_40\n    /* \"#utility.yul\":1876:1879   */\n  dup3\n    /* \"#utility.yul\":1787:1880   */\n  tag_18\n  jump\t// in\ntag_40:\n    /* \"#utility.yul\":1905:1907   */\n  0x20\n    /* \"#utility.yul\":1900:1903   */\n  dup3\n    /* \"#utility.yul\":1896:1908   */\n  add\n    /* \"#utility.yul\":1889:1908   */\n  swap1\n  pop\n    /* \"#utility.yul\":1548:1914   */\n  swap2\n  swap1\n  pop\n  jump\t// out\n    /* \"#utility.yul\":1920:2339   */\ntag_8:\n    /* \"#utility.yul\":2086:2090   */\n  0x00\n    /* \"#utility.yul\":2124:2126   */\n  0x20\n    /* \"#utility.yul\":2113:2122   */\n  dup3\n    /* \"#utility.yul\":2109:2127   */\n  add\n    /* \"#utility.yul\":2101:2127   */\n  swap1\n  pop\n    /* \"#utility.yul\":2173:2182   */\n  dup2\n    /* \"#utility.yul\":2167:2171   */\n  dup2\n    /* \"#utility.yul\":2163:2183   */\n  sub\n    /* \"#utility.yul\":2159:2160   */\n  0x00\n    /* \"#utility.yul\":2148:2157   */\n  dup4\n    /* \"#utility.yul\":2144:2161   */\n  add\n    /* \"#utility.yul\":2137:2184   */\n  mstore\n    /* \"#utility.yul\":2201:2332   */\n  tag_42\n    /* \"#utility.yul\":2327:2331   */\n  dup2\n    /* \"#utility.yul\":2201:2332   */\n  tag_19\n  jump\t// in\ntag_42:\n    /* \"#utility.yul\":2193:2332   */\n  swap1\n  pop\n    /* \"#utility.yul\":1920:2339   */\n  swap2\n  swap1\n  pop\n  jump\t// out\n    /* \"contracts/Demo.sol\":71:3490  contract HelloComrades {... */\ntag_9:\n  mload(0x80)\n  codecopy(0x00, dataOffset(sub_0), dataSize(sub_0))\n  0x00\n  assignImmutable(\"0xe455bf8ea6e7463a1046a0b52804526e119b4bf5136279614e0b1e8e296a4e2d\")\n  return(0x00, dataSize(sub_0))\nstop\n\nsub_0: assembly {\n        /* \"contracts/Demo.sol\":71:3490  contract HelloComrades {... */\n      mstore(0x40, 0x80)\n      jumpi(tag_1, lt(calldatasize, 0x04))\n      shr(0xe0, calldataload(0x00))\n      dup1\n      0x8c85d679\n      gt\n      tag_11\n      jumpi\n      dup1\n      0x8c85d679\n      eq\n      tag_7\n      jumpi\n      dup1\n      0xa777d0dc\n      eq\n      tag_8\n      jumpi\n      dup1\n      0xe25fe175\n      eq\n      tag_9\n      jumpi\n      dup1\n      0xe3b49959\n      eq\n      tag_10\n      jumpi\n      jump(tag_2)\n    tag_11:\n      dup1\n      0x12065fe0\n      eq\n      tag_3\n      jumpi\n      dup1\n      0x2b68b9c6\n      eq\n      tag_4\n      jumpi\n      dup1\n      0x40eedabb\n      eq\n      tag_5\n      jumpi\n      dup1\n      0x8ab9e66d\n      eq\n      tag_6\n      jumpi\n      jump(tag_2)\n    tag_1:\n      jumpi(tag_2, calldatasize)\n        /* \"contracts/Demo.sol\":3226:3264  Log(\"receive\",msg.sender,msg.value,\"\") */\n      0xf7f75251dee7d7fc22deac3247729ebe7c86541f35930bf10c2a4207479a3b6c\n        /* \"contracts/Demo.sol\":3240:3250  msg.sender */\n      caller\n        /* \"contracts/Demo.sol\":3251:3260  msg.value */\n      callvalue\n        /* \"contracts/Demo.sol\":3226:3264  Log(\"receive\",msg.sender,msg.value,\"\") */\n      mload(0x40)\n      tag_14\n      swap3\n      swap2\n      swap1\n      tag_15\n      jump\t// in\n    tag_14:\n      mload(0x40)\n      dup1\n      swap2\n      sub\n      swap1\n      log1\n        /* \"contracts/Demo.sol\":71:3490  contract HelloComrades {... */\n      stop\n    tag_2:\n        /* \"contracts/Demo.sol\":3325:3370  Log(\"fallback\",msg.sender,msg.value,msg.data) */\n      0xf7f75251dee7d7fc22deac3247729ebe7c86541f35930bf10c2a4207479a3b6c\n        /* \"contracts/Demo.sol\":3340:3350  msg.sender */\n      caller\n        /* \"contracts/Demo.sol\":3351:3360  msg.value */\n      callvalue\n        /* \"contracts/Demo.sol\":3361:3369  msg.data */\n      0x00\n      calldatasize\n        /* \"contracts/Demo.sol\":3325:3370  Log(\"fallback\",msg.sender,msg.value,msg.data) */\n      mload(0x40)\n      tag_18\n      swap5\n      swap4\n      swap3\n      swap2\n      swap1\n      tag_19\n      jump\t// in\n    tag_18:\n      mload(0x40)\n      dup1\n      swap2\n      sub\n      swap1\n      log1\n        /* \"contracts/Demo.sol\":71:3490  contract HelloComrades {... */\n      stop\n        /* \"contracts/Demo.sol\":3388:3487  function getBalance() external view returns(uint256){... */\n    tag_3:\n      callvalue\n      dup1\n      iszero\n      tag_20\n      jumpi\n      0x00\n      dup1\n      revert\n    tag_20:\n      pop\n      tag_21\n      tag_22\n      jump\t// in\n    tag_21:\n      mload(0x40)\n      tag_23\n      swap2\n      swap1\n      tag_24\n      jump\t// in\n    tag_23:\n      mload(0x40)\n      dup1\n      swap2\n      sub\n      swap1\n      return\n        /* \"contracts/Demo.sol\":2692:2960  function destruct() external payable returns(bool){... */\n    tag_4:\n      tag_25\n      tag_26\n      jump\t// in\n    tag_25:\n      mload(0x40)\n      tag_27\n      swap2\n      swap1\n      tag_28\n      jump\t// in\n    tag_27:\n      mload(0x40)\n      dup1\n      swap2\n      sub\n      swap1\n      return\n        /* \"contracts/Demo.sol\":164:196  address public  immutable leader */\n    tag_5:\n      callvalue\n      dup1\n      iszero\n      tag_29\n      jumpi\n      0x00\n      dup1\n      revert\n    tag_29:\n      pop\n      tag_30\n      tag_31\n      jump\t// in\n    tag_30:\n      mload(0x40)\n      tag_32\n      swap2\n      swap1\n      tag_33\n      jump\t// in\n    tag_32:\n      mload(0x40)\n      dup1\n      swap2\n      sub\n      swap1\n      return\n        /* \"contracts/Demo.sol\":2327:2680  function comfortRes(string calldata content) external onlyLeader returns(bool){... */\n    tag_6:\n      callvalue\n      dup1\n      iszero\n      tag_34\n      jumpi\n      0x00\n      dup1\n      revert\n    tag_34:\n      pop\n      tag_35\n      0x04\n      dup1\n      calldatasize\n      sub\n      dup2\n      add\n      swap1\n      tag_36\n      swap2\n      swap1\n      tag_37\n      jump\t// in\n    tag_36:\n      tag_38\n      jump\t// in\n    tag_35:\n      mload(0x40)\n      tag_39\n      swap2\n      swap1\n      tag_28\n      jump\t// in\n    tag_39:\n      mload(0x40)\n      dup1\n      swap2\n      sub\n      swap1\n      return\n        /* \"contracts/Demo.sol\":1830:2319  function comfort(string calldata content) external payable onlyLeader returns(bool){... */\n    tag_7:\n      tag_40\n      0x04\n      dup1\n      calldatasize\n      sub\n      dup2\n      add\n      swap1\n      tag_41\n      swap2\n      swap1\n      tag_37\n      jump\t// in\n    tag_41:\n      tag_42\n      jump\t// in\n    tag_40:\n      mload(0x40)\n      tag_43\n      swap2\n      swap1\n      tag_28\n      jump\t// in\n    tag_43:\n      mload(0x40)\n      dup1\n      swap2\n      sub\n      swap1\n      return\n        /* \"contracts/Demo.sol\":1137:1477  function hello(string calldata content) external onlyLeader returns(bool){... */\n    tag_8:\n      callvalue\n      dup1\n      iszero\n      tag_44\n      jumpi\n      0x00\n      dup1\n      revert\n    tag_44:\n      pop\n      tag_45\n      0x04\n      dup1\n      calldatasize\n      sub\n      dup2\n      add\n      swap1\n      tag_46\n      swap2\n      swap1\n      tag_37\n      jump\t// in\n    tag_46:\n      tag_47\n      jump\t// in\n    tag_45:\n      mload(0x40)\n      tag_48\n      swap2\n      swap1\n      tag_28\n      jump\t// in\n    tag_48:\n      mload(0x40)\n      dup1\n      swap2\n      sub\n      swap1\n      return\n        /* \"contracts/Demo.sol\":133:155  uint8 public  step = 0 */\n    tag_9:\n      callvalue\n      dup1\n      iszero\n      tag_49\n      jumpi\n      0x00\n      dup1\n      revert\n    tag_49:\n      pop\n      tag_50\n      tag_51\n      jump\t// in\n    tag_50:\n      mload(0x40)\n      tag_52\n      swap2\n      swap1\n      tag_53\n      jump\t// in\n    tag_52:\n      mload(0x40)\n      dup1\n      swap2\n      sub\n      swap1\n      return\n        /* \"contracts/Demo.sol\":1485:1822  function helloRes(string calldata content) external onlyLeader returns(bool){... */\n    tag_10:\n      callvalue\n      dup1\n      iszero\n      tag_54\n      jumpi\n      0x00\n      dup1\n      revert\n    tag_54:\n      pop\n      tag_55\n      0x04\n      dup1\n      calldatasize\n      sub\n      dup2\n      add\n      swap1\n      tag_56\n      swap2\n      swap1\n      tag_37\n      jump\t// in\n    tag_56:\n      tag_57\n      jump\t// in\n    tag_55:\n      mload(0x40)\n      tag_58\n      swap2\n      swap1\n      tag_28\n      jump\t// in\n    tag_58:\n      mload(0x40)\n      dup1\n      swap2\n      sub\n      swap1\n      return\n        /* \"contracts/Demo.sol\":3388:3487  function getBalance() external view returns(uint256){... */\n    tag_22:\n        /* \"contracts/Demo.sol\":3432:3439  uint256 */\n      0x00\n        /* \"contracts/Demo.sol\":3458:3479  address(this).balance */\n      selfbalance\n        /* \"contracts/Demo.sol\":3451:3479  return address(this).balance */\n      swap1\n      pop\n        /* \"contracts/Demo.sol\":3388:3487  function getBalance() external view returns(uint256){... */\n      swap1\n      jump\t// out\n        /* \"contracts/Demo.sol\":2692:2960  function destruct() external payable returns(bool){... */\n    tag_26:\n        /* \"contracts/Demo.sol\":2737:2741  bool */\n      0x00\n        /* \"contracts/Demo.sol\":2764:2765  4 */\n      0x04\n        /* \"contracts/Demo.sol\":2756:2760  step */\n      0x00\n      dup1\n      sload\n      swap1\n      0x0100\n      exp\n      swap1\n      div\n      0xff\n      and\n        /* \"contracts/Demo.sol\":2756:2765  step != 4 */\n      0xff\n      and\n      eq\n        /* \"contracts/Demo.sol\":2753:2808  if(step != 4){... */\n      tag_61\n      jumpi\n        /* \"contracts/Demo.sol\":2788:2795  UNKNOWN */\n      mload(0x40)\n      dup1\n      0x60\n      add\n      0x40\n      mstore\n      dup1\n      0x31\n      dup2\n      mstore\n      0x20\n      add\n      data_acf0a86aa17baa77f1af03ee73528e24c3de16b7e0ad2af45b9146d4dfc709e9\n      0x31\n      swap2\n      codecopy\n        /* \"contracts/Demo.sol\":2781:2796  revert(UNKNOWN) */\n      mload(0x40)\n      0x08c379a000000000000000000000000000000000000000000000000000000000\n      dup2\n      mstore\n      0x04\n      add\n      tag_62\n      swap2\n      swap1\n      tag_63\n      jump\t// in\n    tag_62:\n      mload(0x40)\n      dup1\n      swap2\n      sub\n      swap1\n      revert\n        /* \"contracts/Demo.sol\":2753:2808  if(step != 4){... */\n    tag_61:\n        /* \"contracts/Demo.sol\":2825:2885  Log(\"destruct\", msg.sender, address(this).balance, msg.data) */\n      0xf7f75251dee7d7fc22deac3247729ebe7c86541f35930bf10c2a4207479a3b6c\n        /* \"contracts/Demo.sol\":2841:2851  msg.sender */\n      caller\n        /* \"contracts/Demo.sol\":2853:2874  address(this).balance */\n      selfbalance\n        /* \"contracts/Demo.sol\":2876:2884  msg.data */\n      0x00\n      calldatasize\n        /* \"contracts/Demo.sol\":2825:2885  Log(\"destruct\", msg.sender, address(this).balance, msg.data) */\n      mload(0x40)\n      tag_64\n      swap5\n      swap4\n      swap3\n      swap2\n      swap1\n      tag_65\n      jump\t// in\n    tag_64:\n      mload(0x40)\n      dup1\n      swap2\n      sub\n      swap1\n      log1\n        /* \"contracts/Demo.sol\":2918:2928  msg.sender */\n      caller\n        /* \"contracts/Demo.sol\":2896:2930  selfdestruct(payable (msg.sender)) */\n      0xffffffffffffffffffffffffffffffffffffffff\n      and\n      selfdestruct\n        /* \"contracts/Demo.sol\":164:196  address public  immutable leader */\n    tag_31:\n      immutable(\"0xe455bf8ea6e7463a1046a0b52804526e119b4bf5136279614e0b1e8e296a4e2d\")\n      dup2\n      jump\t// out\n        /* \"contracts/Demo.sol\":2327:2680  function comfortRes(string calldata content) external onlyLeader returns(bool){... */\n    tag_38:\n        /* \"contracts/Demo.sol\":2400:2404  bool */\n      0x00\n        /* \"contracts/Demo.sol\":674:680  leader */\n      immutable(\"0xe455bf8ea6e7463a1046a0b52804526e119b4bf5136279614e0b1e8e296a4e2d\")\n        /* \"contracts/Demo.sol\":660:680  msg.sender == leader */\n      0xffffffffffffffffffffffffffffffffffffffff\n      and\n        /* \"contracts/Demo.sol\":660:670  msg.sender */\n      caller\n        /* \"contracts/Demo.sol\":660:680  msg.sender == leader */\n      0xffffffffffffffffffffffffffffffffffffffff\n      and\n      eq\n        /* \"contracts/Demo.sol\":652:712  require(msg.sender == leader,unicode\"必须领导才能说\") */\n      tag_67\n      jumpi\n      mload(0x40)\n      0x08c379a000000000000000000000000000000000000000000000000000000000\n      dup2\n      mstore\n      0x04\n      add\n      tag_68\n      swap1\n      tag_69\n      jump\t// in\n    tag_68:\n      mload(0x40)\n      dup1\n      swap2\n      sub\n      swap1\n      revert\n    tag_67:\n        /* \"contracts/Demo.sol\":2427:2428  3 */\n      0x03\n        /* \"contracts/Demo.sol\":2419:2423  step */\n      0x00\n      dup1\n      sload\n      swap1\n      0x0100\n      exp\n      swap1\n      div\n      0xff\n      and\n        /* \"contracts/Demo.sol\":2419:2428  step != 3 */\n      0xff\n      and\n      eq\n        /* \"contracts/Demo.sol\":2416:2471  if(step != 3){... */\n      tag_71\n      jumpi\n        /* \"contracts/Demo.sol\":2451:2458  UNKNOWN */\n      mload(0x40)\n      dup1\n      0x60\n      add\n      0x40\n      mstore\n      dup1\n      0x31\n      dup2\n      mstore\n      0x20\n      add\n      data_acf0a86aa17baa77f1af03ee73528e24c3de16b7e0ad2af45b9146d4dfc709e9\n      0x31\n      swap2\n      codecopy\n        /* \"contracts/Demo.sol\":2444:2459  revert(UNKNOWN) */\n      mload(0x40)\n      0x08c379a000000000000000000000000000000000000000000000000000000000\n      dup2\n      mstore\n      0x04\n      add\n      tag_72\n      swap2\n      swap1\n      tag_63\n      jump\t// in\n    tag_72:\n      mload(0x40)\n      dup1\n      swap2\n      sub\n      swap1\n      revert\n        /* \"contracts/Demo.sol\":2416:2471  if(step != 3){... */\n    tag_71:\n        /* \"contracts/Demo.sol\":2485:2526  review(content, unicode\"为人民服务\") */\n      tag_73\n        /* \"contracts/Demo.sol\":2492:2499  content */\n      dup4\n      dup4\n        /* \"contracts/Demo.sol\":2485:2526  review(content, unicode\"为人民服务\") */\n      mload(0x40)\n      dup1\n      0x40\n      add\n      0x40\n      mstore\n      dup1\n      0x0f\n      dup2\n      mstore\n      0x20\n      add\n      0xe4b8bae4babae6b091e69c8de58aa10000000000000000000000000000000000\n      dup2\n      mstore\n      pop\n        /* \"contracts/Demo.sol\":2485:2491  review */\n      tag_74\n        /* \"contracts/Demo.sol\":2485:2526  review(content, unicode\"为人民服务\") */\n      jump\t// in\n    tag_73:\n        /* \"contracts/Demo.sol\":2481:2604  if(!review(content, unicode\"为人民服务\")){... */\n      tag_75\n      jumpi\n        /* \"contracts/Demo.sol\":2549:2592  MyError(unicode\"必须说:为人民服务\") */\n      mload(0x40)\n      0x8b3d2d4300000000000000000000000000000000000000000000000000000000\n      dup2\n      mstore\n      0x04\n      add\n      tag_76\n      swap1\n      tag_77\n      jump\t// in\n    tag_76:\n      mload(0x40)\n      dup1\n      swap2\n      sub\n      swap1\n      revert\n        /* \"contracts/Demo.sol\":2481:2604  if(!review(content, unicode\"为人民服务\")){... */\n    tag_75:\n        /* \"contracts/Demo.sol\":2623:2624  4 */\n      0x04\n        /* \"contracts/Demo.sol\":2616:2620  step */\n      0x00\n      dup1\n        /* \"contracts/Demo.sol\":2616:2624  step = 4 */\n      0x0100\n      exp\n      dup2\n      sload\n      dup2\n      0xff\n      mul\n      not\n      and\n      swap1\n      dup4\n      0xff\n      and\n      mul\n      or\n      swap1\n      sstore\n      pop\n        /* \"contracts/Demo.sol\":2640:2650  Step(step) */\n      0xf39143d48d073ee18f9a08fcabdbd340be0b2a698e3e45fc3b4318251131b4fc\n        /* \"contracts/Demo.sol\":2645:2649  step */\n      0x00\n      dup1\n      sload\n      swap1\n      0x0100\n      exp\n      swap1\n      div\n      0xff\n      and\n        /* \"contracts/Demo.sol\":2640:2650  Step(step) */\n      mload(0x40)\n      tag_78\n      swap2\n      swap1\n      tag_53\n      jump\t// in\n    tag_78:\n      mload(0x40)\n      dup1\n      swap2\n      sub\n      swap1\n      log1\n        /* \"contracts/Demo.sol\":2668:2672  true */\n      0x01\n        /* \"contracts/Demo.sol\":2661:2672  return true */\n      swap1\n      pop\n        /* \"contracts/Demo.sol\":2327:2680  function comfortRes(string calldata content) external onlyLeader returns(bool){... */\n      swap3\n      swap2\n      pop\n      pop\n      jump\t// out\n        /* \"contracts/Demo.sol\":1830:2319  function comfort(string calldata content) external payable onlyLeader returns(bool){... */\n    tag_42:\n        /* \"contracts/Demo.sol\":1908:1912  bool */\n      0x00\n        /* \"contracts/Demo.sol\":674:680  leader */\n      immutable(\"0xe455bf8ea6e7463a1046a0b52804526e119b4bf5136279614e0b1e8e296a4e2d\")\n        /* \"contracts/Demo.sol\":660:680  msg.sender == leader */\n      0xffffffffffffffffffffffffffffffffffffffff\n      and\n        /* \"contracts/Demo.sol\":660:670  msg.sender */\n      caller\n        /* \"contracts/Demo.sol\":660:680  msg.sender == leader */\n      0xffffffffffffffffffffffffffffffffffffffff\n      and\n      eq\n        /* \"contracts/Demo.sol\":652:712  require(msg.sender == leader,unicode\"必须领导才能说\") */\n      tag_80\n      jumpi\n      mload(0x40)\n      0x08c379a000000000000000000000000000000000000000000000000000000000\n      dup2\n      mstore\n      0x04\n      add\n      tag_81\n      swap1\n      tag_69\n      jump\t// in\n    tag_81:\n      mload(0x40)\n      dup1\n      swap2\n      sub\n      swap1\n      revert\n    tag_80:\n        /* \"contracts/Demo.sol\":1935:1936  2 */\n      0x02\n        /* \"contracts/Demo.sol\":1927:1931  step */\n      0x00\n      dup1\n      sload\n      swap1\n      0x0100\n      exp\n      swap1\n      div\n      0xff\n      and\n        /* \"contracts/Demo.sol\":1927:1936  step != 2 */\n      0xff\n      and\n      eq\n        /* \"contracts/Demo.sol\":1924:1979  if(step != 2){... */\n      tag_83\n      jumpi\n        /* \"contracts/Demo.sol\":1959:1966  UNKNOWN */\n      mload(0x40)\n      dup1\n      0x60\n      add\n      0x40\n      mstore\n      dup1\n      0x31\n      dup2\n      mstore\n      0x20\n      add\n      data_acf0a86aa17baa77f1af03ee73528e24c3de16b7e0ad2af45b9146d4dfc709e9\n      0x31\n      swap2\n      codecopy\n        /* \"contracts/Demo.sol\":1952:1967  revert(UNKNOWN) */\n      mload(0x40)\n      0x08c379a000000000000000000000000000000000000000000000000000000000\n      dup2\n      mstore\n      0x04\n      add\n      tag_84\n      swap2\n      swap1\n      tag_63\n      jump\t// in\n    tag_84:\n      mload(0x40)\n      dup1\n      swap2\n      sub\n      swap1\n      revert\n        /* \"contracts/Demo.sol\":1924:1979  if(step != 2){... */\n    tag_83:\n        /* \"contracts/Demo.sol\":1993:2037  review(content, unicode\"同志们辛苦了\") */\n      tag_85\n        /* \"contracts/Demo.sol\":2000:2007  content */\n      dup4\n      dup4\n        /* \"contracts/Demo.sol\":1993:2037  review(content, unicode\"同志们辛苦了\") */\n      mload(0x40)\n      dup1\n      0x40\n      add\n      0x40\n      mstore\n      dup1\n      0x12\n      dup2\n      mstore\n      0x20\n      add\n      0xe5908ce5bf97e4bbace8be9be88ba6e4ba860000000000000000000000000000\n      dup2\n      mstore\n      pop\n        /* \"contracts/Demo.sol\":1993:1999  review */\n      tag_74\n        /* \"contracts/Demo.sol\":1993:2037  review(content, unicode\"同志们辛苦了\") */\n      jump\t// in\n    tag_85:\n        /* \"contracts/Demo.sol\":1989:2118  if(!review(content, unicode\"同志们辛苦了\")){... */\n      tag_86\n      jumpi\n        /* \"contracts/Demo.sol\":2060:2106  MyError(unicode\"必须说:同志们辛苦了\") */\n      mload(0x40)\n      0x8b3d2d4300000000000000000000000000000000000000000000000000000000\n      dup2\n      mstore\n      0x04\n      add\n      tag_87\n      swap1\n      tag_88\n      jump\t// in\n    tag_87:\n      mload(0x40)\n      dup1\n      swap2\n      sub\n      swap1\n      revert\n        /* \"contracts/Demo.sol\":1989:2118  if(!review(content, unicode\"同志们辛苦了\")){... */\n    tag_86:\n        /* \"contracts/Demo.sol\":2145:2152  2 ether */\n      0x1bc16d674ec80000\n        /* \"contracts/Demo.sol\":2133:2142  msg.value */\n      callvalue\n        /* \"contracts/Demo.sol\":2133:2152  msg.value < 2 ether */\n      lt\n        /* \"contracts/Demo.sol\":2130:2243  if(msg.value < 2 ether ){... */\n      iszero\n      tag_89\n      jumpi\n        /* \"contracts/Demo.sol\":2176:2231  MyError(unicode\"给钱！！最少给2个以太币！\") */\n      mload(0x40)\n      0x8b3d2d4300000000000000000000000000000000000000000000000000000000\n      dup2\n      mstore\n      0x04\n      add\n      tag_90\n      swap1\n      tag_91\n      jump\t// in\n    tag_90:\n      mload(0x40)\n      dup1\n      swap2\n      sub\n      swap1\n      revert\n        /* \"contracts/Demo.sol\":2130:2243  if(msg.value < 2 ether ){... */\n    tag_89:\n        /* \"contracts/Demo.sol\":2262:2263  3 */\n      0x03\n        /* \"contracts/Demo.sol\":2255:2259  step */\n      0x00\n      dup1\n        /* \"contracts/Demo.sol\":2255:2263  step = 3 */\n      0x0100\n      exp\n      dup2\n      sload\n      dup2\n      0xff\n      mul\n      not\n      and\n      swap1\n      dup4\n      0xff\n      and\n      mul\n      or\n      swap1\n      sstore\n      pop\n        /* \"contracts/Demo.sol\":2279:2289  Step(step) */\n      0xf39143d48d073ee18f9a08fcabdbd340be0b2a698e3e45fc3b4318251131b4fc\n        /* \"contracts/Demo.sol\":2284:2288  step */\n      0x00\n      dup1\n      sload\n      swap1\n      0x0100\n      exp\n      swap1\n      div\n      0xff\n      and\n        /* \"contracts/Demo.sol\":2279:2289  Step(step) */\n      mload(0x40)\n      tag_92\n      swap2\n      swap1\n      tag_53\n      jump\t// in\n    tag_92:\n      mload(0x40)\n      dup1\n      swap2\n      sub\n      swap1\n      log1\n        /* \"contracts/Demo.sol\":2307:2311  true */\n      0x01\n        /* \"contracts/Demo.sol\":2300:2311  return true */\n      swap1\n      pop\n        /* \"contracts/Demo.sol\":1830:2319  function comfort(string calldata content) external payable onlyLeader returns(bool){... */\n      swap3\n      swap2\n      pop\n      pop\n      jump\t// out\n        /* \"contracts/Demo.sol\":1137:1477  function hello(string calldata content) external onlyLeader returns(bool){... */\n    tag_47:\n        /* \"contracts/Demo.sol\":1205:1209  bool */\n      0x00\n        /* \"contracts/Demo.sol\":674:680  leader */\n      immutable(\"0xe455bf8ea6e7463a1046a0b52804526e119b4bf5136279614e0b1e8e296a4e2d\")\n        /* \"contracts/Demo.sol\":660:680  msg.sender == leader */\n      0xffffffffffffffffffffffffffffffffffffffff\n      and\n        /* \"contracts/Demo.sol\":660:670  msg.sender */\n      caller\n        /* \"contracts/Demo.sol\":660:680  msg.sender == leader */\n      0xffffffffffffffffffffffffffffffffffffffff\n      and\n      eq\n        /* \"contracts/Demo.sol\":652:712  require(msg.sender == leader,unicode\"必须领导才能说\") */\n      tag_94\n      jumpi\n      mload(0x40)\n      0x08c379a000000000000000000000000000000000000000000000000000000000\n      dup2\n      mstore\n      0x04\n      add\n      tag_95\n      swap1\n      tag_69\n      jump\t// in\n    tag_95:\n      mload(0x40)\n      dup1\n      swap2\n      sub\n      swap1\n      revert\n    tag_94:\n        /* \"contracts/Demo.sol\":1232:1233  0 */\n      0x00\n        /* \"contracts/Demo.sol\":1224:1228  step */\n      dup1\n      0x00\n      swap1\n      sload\n      swap1\n      0x0100\n      exp\n      swap1\n      div\n      0xff\n      and\n        /* \"contracts/Demo.sol\":1224:1233  step != 0 */\n      0xff\n      and\n      eq\n        /* \"contracts/Demo.sol\":1221:1276  if(step != 0){... */\n      tag_97\n      jumpi\n        /* \"contracts/Demo.sol\":1256:1263  UNKNOWN */\n      mload(0x40)\n      dup1\n      0x60\n      add\n      0x40\n      mstore\n      dup1\n      0x31\n      dup2\n      mstore\n      0x20\n      add\n      data_acf0a86aa17baa77f1af03ee73528e24c3de16b7e0ad2af45b9146d4dfc709e9\n      0x31\n      swap2\n      codecopy\n        /* \"contracts/Demo.sol\":1249:1264  revert(UNKNOWN) */\n      mload(0x40)\n      0x08c379a000000000000000000000000000000000000000000000000000000000\n      dup2\n      mstore\n      0x04\n      add\n      tag_98\n      swap2\n      swap1\n      tag_63\n      jump\t// in\n    tag_98:\n      mload(0x40)\n      dup1\n      swap2\n      sub\n      swap1\n      revert\n        /* \"contracts/Demo.sol\":1221:1276  if(step != 0){... */\n    tag_97:\n        /* \"contracts/Demo.sol\":1290:1328  review(content, unicode\"同志们好\") */\n      tag_99\n        /* \"contracts/Demo.sol\":1297:1304  content */\n      dup4\n      dup4\n        /* \"contracts/Demo.sol\":1290:1328  review(content, unicode\"同志们好\") */\n      mload(0x40)\n      dup1\n      0x40\n      add\n      0x40\n      mstore\n      dup1\n      0x0c\n      dup2\n      mstore\n      0x20\n      add\n      0xe5908ce5bf97e4bbace5a5bd0000000000000000000000000000000000000000\n      dup2\n      mstore\n      pop\n        /* \"contracts/Demo.sol\":1290:1296  review */\n      tag_74\n        /* \"contracts/Demo.sol\":1290:1328  review(content, unicode\"同志们好\") */\n      jump\t// in\n    tag_99:\n        /* \"contracts/Demo.sol\":1286:1403  if(!review(content, unicode\"同志们好\")){... */\n      tag_100\n      jumpi\n        /* \"contracts/Demo.sol\":1351:1391  MyError(unicode\"必须说:同志们好\") */\n      mload(0x40)\n      0x8b3d2d4300000000000000000000000000000000000000000000000000000000\n      dup2\n      mstore\n      0x04\n      add\n      tag_101\n      swap1\n      tag_102\n      jump\t// in\n    tag_101:\n      mload(0x40)\n      dup1\n      swap2\n      sub\n      swap1\n      revert\n        /* \"contracts/Demo.sol\":1286:1403  if(!review(content, unicode\"同志们好\")){... */\n    tag_100:\n        /* \"contracts/Demo.sol\":1420:1421  1 */\n      0x01\n        /* \"contracts/Demo.sol\":1413:1417  step */\n      0x00\n      dup1\n        /* \"contracts/Demo.sol\":1413:1421  step = 1 */\n      0x0100\n      exp\n      dup2\n      sload\n      dup2\n      0xff\n      mul\n      not\n      and\n      swap1\n      dup4\n      0xff\n      and\n      mul\n      or\n      swap1\n      sstore\n      pop\n        /* \"contracts/Demo.sol\":1437:1447  Step(step) */\n      0xf39143d48d073ee18f9a08fcabdbd340be0b2a698e3e45fc3b4318251131b4fc\n        /* \"contracts/Demo.sol\":1442:1446  step */\n      0x00\n      dup1\n      sload\n      swap1\n      0x0100\n      exp\n      swap1\n      div\n      0xff\n      and\n        /* \"contracts/Demo.sol\":1437:1447  Step(step) */\n      mload(0x40)\n      tag_103\n      swap2\n      swap1\n      tag_53\n      jump\t// in\n    tag_103:\n      mload(0x40)\n      dup1\n      swap2\n      sub\n      swap1\n      log1\n        /* \"contracts/Demo.sol\":1465:1469  true */\n      0x01\n        /* \"contracts/Demo.sol\":1458:1469  return true */\n      swap1\n      pop\n        /* \"contracts/Demo.sol\":1137:1477  function hello(string calldata content) external onlyLeader returns(bool){... */\n      swap3\n      swap2\n      pop\n      pop\n      jump\t// out\n        /* \"contracts/Demo.sol\":133:155  uint8 public  step = 0 */\n    tag_51:\n      0x00\n      dup1\n      sload\n      swap1\n      0x0100\n      exp\n      swap1\n      div\n      0xff\n      and\n      dup2\n      jump\t// out\n        /* \"contracts/Demo.sol\":1485:1822  function helloRes(string calldata content) external onlyLeader returns(bool){... */\n    tag_57:\n        /* \"contracts/Demo.sol\":1556:1560  bool */\n      0x00\n        /* \"contracts/Demo.sol\":674:680  leader */\n      immutable(\"0xe455bf8ea6e7463a1046a0b52804526e119b4bf5136279614e0b1e8e296a4e2d\")\n        /* \"contracts/Demo.sol\":660:680  msg.sender == leader */\n      0xffffffffffffffffffffffffffffffffffffffff\n      and\n        /* \"contracts/Demo.sol\":660:670  msg.sender */\n      caller\n        /* \"contracts/Demo.sol\":660:680  msg.sender == leader */\n      0xffffffffffffffffffffffffffffffffffffffff\n      and\n      eq\n        /* \"contracts/Demo.sol\":652:712  require(msg.sender == leader,unicode\"必须领导才能说\") */\n      tag_105\n      jumpi\n      mload(0x40)\n      0x08c379a000000000000000000000000000000000000000000000000000000000\n      dup2\n      mstore\n      0x04\n      add\n      tag_106\n      swap1\n      tag_69\n      jump\t// in\n    tag_106:\n      mload(0x40)\n      dup1\n      swap2\n      sub\n      swap1\n      revert\n    tag_105:\n        /* \"contracts/Demo.sol\":1583:1584  1 */\n      0x01\n        /* \"contracts/Demo.sol\":1575:1579  step */\n      0x00\n      dup1\n      sload\n      swap1\n      0x0100\n      exp\n      swap1\n      div\n      0xff\n      and\n        /* \"contracts/Demo.sol\":1575:1584  step != 1 */\n      0xff\n      and\n      eq\n        /* \"contracts/Demo.sol\":1572:1627  if(step != 1){... */\n      tag_108\n      jumpi\n        /* \"contracts/Demo.sol\":1607:1614  UNKNOWN */\n      mload(0x40)\n      dup1\n      0x60\n      add\n      0x40\n      mstore\n      dup1\n      0x31\n      dup2\n      mstore\n      0x20\n      add\n      data_acf0a86aa17baa77f1af03ee73528e24c3de16b7e0ad2af45b9146d4dfc709e9\n      0x31\n      swap2\n      codecopy\n        /* \"contracts/Demo.sol\":1600:1615  revert(UNKNOWN) */\n      mload(0x40)\n      0x08c379a000000000000000000000000000000000000000000000000000000000\n      dup2\n      mstore\n      0x04\n      add\n      tag_109\n      swap2\n      swap1\n      tag_63\n      jump\t// in\n    tag_109:\n      mload(0x40)\n      dup1\n      swap2\n      sub\n      swap1\n      revert\n        /* \"contracts/Demo.sol\":1572:1627  if(step != 1){... */\n    tag_108:\n        /* \"contracts/Demo.sol\":1641:1676  review(content, unicode\"领导好\") */\n      tag_110\n        /* \"contracts/Demo.sol\":1648:1655  content */\n      dup4\n      dup4\n        /* \"contracts/Demo.sol\":1641:1676  review(content, unicode\"领导好\") */\n      mload(0x40)\n      dup1\n      0x40\n      add\n      0x40\n      mstore\n      dup1\n      0x09\n      dup2\n      mstore\n      0x20\n      add\n      0xe9a286e5afbce5a5bd0000000000000000000000000000000000000000000000\n      dup2\n      mstore\n      pop\n        /* \"contracts/Demo.sol\":1641:1647  review */\n      tag_74\n        /* \"contracts/Demo.sol\":1641:1676  review(content, unicode\"领导好\") */\n      jump\t// in\n    tag_110:\n        /* \"contracts/Demo.sol\":1637:1748  if(!review(content, unicode\"领导好\")){... */\n      tag_111\n      jumpi\n        /* \"contracts/Demo.sol\":1699:1736  MyError(unicode\"必须说:领导好\") */\n      mload(0x40)\n      0x8b3d2d4300000000000000000000000000000000000000000000000000000000\n      dup2\n      mstore\n      0x04\n      add\n      tag_112\n      swap1\n      tag_113\n      jump\t// in\n    tag_112:\n      mload(0x40)\n      dup1\n      swap2\n      sub\n      swap1\n      revert\n        /* \"contracts/Demo.sol\":1637:1748  if(!review(content, unicode\"领导好\")){... */\n    tag_111:\n        /* \"contracts/Demo.sol\":1765:1766  2 */\n      0x02\n        /* \"contracts/Demo.sol\":1758:1762  step */\n      0x00\n      dup1\n        /* \"contracts/Demo.sol\":1758:1766  step = 2 */\n      0x0100\n      exp\n      dup2\n      sload\n      dup2\n      0xff\n      mul\n      not\n      and\n      swap1\n      dup4\n      0xff\n      and\n      mul\n      or\n      swap1\n      sstore\n      pop\n        /* \"contracts/Demo.sol\":1782:1792  Step(step) */\n      0xf39143d48d073ee18f9a08fcabdbd340be0b2a698e3e45fc3b4318251131b4fc\n        /* \"contracts/Demo.sol\":1787:1791  step */\n      0x00\n      dup1\n      sload\n      swap1\n      0x0100\n      exp\n      swap1\n      div\n      0xff\n      and\n        /* \"contracts/Demo.sol\":1782:1792  Step(step) */\n      mload(0x40)\n      tag_114\n      swap2\n      swap1\n      tag_53\n      jump\t// in\n    tag_114:\n      mload(0x40)\n      dup1\n      swap2\n      sub\n      swap1\n      log1\n        /* \"contracts/Demo.sol\":1810:1814  true */\n      0x01\n        /* \"contracts/Demo.sol\":1803:1814  return true */\n      swap1\n      pop\n        /* \"contracts/Demo.sol\":1485:1822  function helloRes(string calldata content) external onlyLeader returns(bool){... */\n      swap3\n      swap2\n      pop\n      pop\n      jump\t// out\n        /* \"contracts/Demo.sol\":2972:3175  function review(string calldata content,bytes memory correctContent)... */\n    tag_74:\n        /* \"contracts/Demo.sol\":3077:3081  bool */\n      0x00\n        /* \"contracts/Demo.sol\":3152:3166  correctContent */\n      dup2\n        /* \"contracts/Demo.sol\":3142:3167  keccak256(correctContent) */\n      dup1\n      mload\n      swap1\n      0x20\n      add\n      keccak256\n        /* \"contracts/Demo.sol\":3128:3135  content */\n      dup5\n      dup5\n        /* \"contracts/Demo.sol\":3110:3137  abi.encodePacked((content)) */\n      add(0x20, mload(0x40))\n      tag_116\n      swap3\n      swap2\n      swap1\n      tag_117\n      jump\t// in\n    tag_116:\n      mload(0x40)\n      0x20\n      dup2\n      dup4\n      sub\n      sub\n      dup2\n      mstore\n      swap1\n      0x40\n      mstore\n        /* \"contracts/Demo.sol\":3100:3138  keccak256(abi.encodePacked((content))) */\n      dup1\n      mload\n      swap1\n      0x20\n      add\n      keccak256\n        /* \"contracts/Demo.sol\":3100:3167  keccak256(abi.encodePacked((content))) == keccak256(correctContent) */\n      eq\n        /* \"contracts/Demo.sol\":3093:3167  return keccak256(abi.encodePacked((content))) == keccak256(correctContent) */\n      swap1\n      pop\n        /* \"contracts/Demo.sol\":2972:3175  function review(string calldata content,bytes memory correctContent)... */\n      swap4\n      swap3\n      pop\n      pop\n      pop\n      jump\t// out\n        /* \"#utility.yul\":7:176   */\n    tag_118:\n        /* \"#utility.yul\":91:102   */\n      0x00\n        /* \"#utility.yul\":125:131   */\n      dup3\n        /* \"#utility.yul\":120:123   */\n      dup3\n        /* \"#utility.yul\":113:132   */\n      mstore\n        /* \"#utility.yul\":165:169   */\n      0x20\n        /* \"#utility.yul\":160:163   */\n      dup3\n        /* \"#utility.yul\":156:170   */\n      add\n        /* \"#utility.yul\":141:170   */\n      swap1\n      pop\n        /* \"#utility.yul\":7:176   */\n      swap3\n      swap2\n      pop\n      pop\n      jump\t// out\n        /* \"#utility.yul\":182:339   */\n    tag_119:\n        /* \"#utility.yul\":322:331   */\n      0x7265636569766500000000000000000000000000000000000000000000000000\n        /* \"#utility.yul\":318:319   */\n      0x00\n        /* \"#utility.yul\":310:316   */\n      dup3\n        /* \"#utility.yul\":306:320   */\n      add\n        /* \"#utility.yul\":299:332   */\n      mstore\n        /* \"#utility.yul\":182:339   */\n      pop\n      jump\t// out\n        /* \"#utility.yul\":345:710   */\n    tag_120:\n        /* \"#utility.yul\":487:490   */\n      0x00\n        /* \"#utility.yul\":508:574   */\n      tag_168\n        /* \"#utility.yul\":572:573   */\n      0x07\n        /* \"#utility.yul\":567:570   */\n      dup4\n        /* \"#utility.yul\":508:574   */\n      tag_118\n      jump\t// in\n    tag_168:\n        /* \"#utility.yul\":501:574   */\n      swap2\n      pop\n        /* \"#utility.yul\":583:676   */\n      tag_169\n        /* \"#utility.yul\":672:675   */\n      dup3\n        /* \"#utility.yul\":583:676   */\n      tag_119\n      jump\t// in\n    tag_169:\n        /* \"#utility.yul\":701:703   */\n      0x20\n        /* \"#utility.yul\":696:699   */\n      dup3\n        /* \"#utility.yul\":692:704   */\n      add\n        /* \"#utility.yul\":685:704   */\n      swap1\n      pop\n        /* \"#utility.yul\":345:710   */\n      swap2\n      swap1\n      pop\n      jump\t// out\n        /* \"#utility.yul\":716:842   */\n    tag_121:\n        /* \"#utility.yul\":753:760   */\n      0x00\n        /* \"#utility.yul\":793:835   */\n      0xffffffffffffffffffffffffffffffffffffffff\n        /* \"#utility.yul\":786:791   */\n      dup3\n        /* \"#utility.yul\":782:836   */\n      and\n        /* \"#utility.yul\":771:836   */\n      swap1\n      pop\n        /* \"#utility.yul\":716:842   */\n      swap2\n      swap1\n      pop\n      jump\t// out\n        /* \"#utility.yul\":848:944   */\n    tag_122:\n        /* \"#utility.yul\":885:892   */\n      0x00\n        /* \"#utility.yul\":914:938   */\n      tag_172\n        /* \"#utility.yul\":932:937   */\n      dup3\n        /* \"#utility.yul\":914:938   */\n      tag_121\n      jump\t// in\n    tag_172:\n        /* \"#utility.yul\":903:938   */\n      swap1\n      pop\n        /* \"#utility.yul\":848:944   */\n      swap2\n      swap1\n      pop\n      jump\t// out\n        /* \"#utility.yul\":950:1068   */\n    tag_123:\n        /* \"#utility.yul\":1037:1061   */\n      tag_174\n        /* \"#utility.yul\":1055:1060   */\n      dup2\n        /* \"#utility.yul\":1037:1061   */\n      tag_122\n      jump\t// in\n    tag_174:\n        /* \"#utility.yul\":1032:1035   */\n      dup3\n        /* \"#utility.yul\":1025:1062   */\n      mstore\n        /* \"#utility.yul\":950:1068   */\n      pop\n      pop\n      jump\t// out\n        /* \"#utility.yul\":1074:1151   */\n    tag_124:\n        /* \"#utility.yul\":1111:1118   */\n      0x00\n        /* \"#utility.yul\":1140:1145   */\n      dup2\n        /* \"#utility.yul\":1129:1145   */\n      swap1\n      pop\n        /* \"#utility.yul\":1074:1151   */\n      swap2\n      swap1\n      pop\n      jump\t// out\n        /* \"#utility.yul\":1157:1275   */\n    tag_125:\n        /* \"#utility.yul\":1244:1268   */\n      tag_177\n        /* \"#utility.yul\":1262:1267   */\n      dup2\n        /* \"#utility.yul\":1244:1268   */\n      tag_124\n      jump\t// in\n    tag_177:\n        /* \"#utility.yul\":1239:1242   */\n      dup3\n        /* \"#utility.yul\":1232:1269   */\n      mstore\n        /* \"#utility.yul\":1157:1275   */\n      pop\n      pop\n      jump\t// out\n        /* \"#utility.yul\":1281:1449   */\n    tag_126:\n        /* \"#utility.yul\":1364:1375   */\n      0x00\n        /* \"#utility.yul\":1398:1404   */\n      dup3\n        /* \"#utility.yul\":1393:1396   */\n      dup3\n        /* \"#utility.yul\":1386:1405   */\n      mstore\n        /* \"#utility.yul\":1438:1442   */\n      0x20\n        /* \"#utility.yul\":1433:1436   */\n      dup3\n        /* \"#utility.yul\":1429:1443   */\n      add\n        /* \"#utility.yul\":1414:1443   */\n      swap1\n      pop\n        /* \"#utility.yul\":1281:1449   */\n      swap3\n      swap2\n      pop\n      pop\n      jump\t// out\n        /* \"#utility.yul\":1455:1569   */\n    tag_127:\n      pop\n      jump\t// out\n        /* \"#utility.yul\":1575:1937   */\n    tag_128:\n        /* \"#utility.yul\":1716:1719   */\n      0x00\n        /* \"#utility.yul\":1737:1802   */\n      tag_181\n        /* \"#utility.yul\":1800:1801   */\n      0x00\n        /* \"#utility.yul\":1795:1798   */\n      dup4\n        /* \"#utility.yul\":1737:1802   */\n      tag_126\n      jump\t// in\n    tag_181:\n        /* \"#utility.yul\":1730:1802   */\n      swap2\n      pop\n        /* \"#utility.yul\":1811:1904   */\n      tag_182\n        /* \"#utility.yul\":1900:1903   */\n      dup3\n        /* \"#utility.yul\":1811:1904   */\n      tag_127\n      jump\t// in\n    tag_182:\n        /* \"#utility.yul\":1929:1930   */\n      0x00\n        /* \"#utility.yul\":1924:1927   */\n      dup3\n        /* \"#utility.yul\":1920:1931   */\n      add\n        /* \"#utility.yul\":1913:1931   */\n      swap1\n      pop\n        /* \"#utility.yul\":1575:1937   */\n      swap2\n      swap1\n      pop\n      jump\t// out\n        /* \"#utility.yul\":1943:2888   */\n    tag_15:\n        /* \"#utility.yul\":2265:2269   */\n      0x00\n        /* \"#utility.yul\":2303:2306   */\n      0x80\n        /* \"#utility.yul\":2292:2301   */\n      dup3\n        /* \"#utility.yul\":2288:2307   */\n      add\n        /* \"#utility.yul\":2280:2307   */\n      swap1\n      pop\n        /* \"#utility.yul\":2353:2362   */\n      dup2\n        /* \"#utility.yul\":2347:2351   */\n      dup2\n        /* \"#utility.yul\":2343:2363   */\n      sub\n        /* \"#utility.yul\":2339:2340   */\n      0x00\n        /* \"#utility.yul\":2328:2337   */\n      dup4\n        /* \"#utility.yul\":2324:2341   */\n      add\n        /* \"#utility.yul\":2317:2364   */\n      mstore\n        /* \"#utility.yul\":2381:2512   */\n      tag_184\n        /* \"#utility.yul\":2507:2511   */\n      dup2\n        /* \"#utility.yul\":2381:2512   */\n      tag_120\n      jump\t// in\n    tag_184:\n        /* \"#utility.yul\":2373:2512   */\n      swap1\n      pop\n        /* \"#utility.yul\":2522:2594   */\n      tag_185\n        /* \"#utility.yul\":2590:2592   */\n      0x20\n        /* \"#utility.yul\":2579:2588   */\n      dup4\n        /* \"#utility.yul\":2575:2593   */\n      add\n        /* \"#utility.yul\":2566:2572   */\n      dup6\n        /* \"#utility.yul\":2522:2594   */\n      tag_123\n      jump\t// in\n    tag_185:\n        /* \"#utility.yul\":2604:2676   */\n      tag_186\n        /* \"#utility.yul\":2672:2674   */\n      0x40\n        /* \"#utility.yul\":2661:2670   */\n      dup4\n        /* \"#utility.yul\":2657:2675   */\n      add\n        /* \"#utility.yul\":2648:2654   */\n      dup5\n        /* \"#utility.yul\":2604:2676   */\n      tag_125\n      jump\t// in\n    tag_186:\n        /* \"#utility.yul\":2723:2732   */\n      dup2\n        /* \"#utility.yul\":2717:2721   */\n      dup2\n        /* \"#utility.yul\":2713:2733   */\n      sub\n        /* \"#utility.yul\":2708:2710   */\n      0x60\n        /* \"#utility.yul\":2697:2706   */\n      dup4\n        /* \"#utility.yul\":2693:2711   */\n      add\n        /* \"#utility.yul\":2686:2734   */\n      mstore\n        /* \"#utility.yul\":2751:2881   */\n      tag_187\n        /* \"#utility.yul\":2876:2880   */\n      dup2\n        /* \"#utility.yul\":2751:2881   */\n      tag_128\n      jump\t// in\n    tag_187:\n        /* \"#utility.yul\":2743:2881   */\n      swap1\n      pop\n        /* \"#utility.yul\":1943:2888   */\n      swap4\n      swap3\n      pop\n      pop\n      pop\n      jump\t// out\n        /* \"#utility.yul\":2894:3052   */\n    tag_129:\n        /* \"#utility.yul\":3034:3044   */\n      0x66616c6c6261636b000000000000000000000000000000000000000000000000\n        /* \"#utility.yul\":3030:3031   */\n      0x00\n        /* \"#utility.yul\":3022:3028   */\n      dup3\n        /* \"#utility.yul\":3018:3032   */\n      add\n        /* \"#utility.yul\":3011:3045   */\n      mstore\n        /* \"#utility.yul\":2894:3052   */\n      pop\n      jump\t// out\n        /* \"#utility.yul\":3058:3423   */\n    tag_130:\n        /* \"#utility.yul\":3200:3203   */\n      0x00\n        /* \"#utility.yul\":3221:3287   */\n      tag_190\n        /* \"#utility.yul\":3285:3286   */\n      0x08\n        /* \"#utility.yul\":3280:3283   */\n      dup4\n        /* \"#utility.yul\":3221:3287   */\n      tag_118\n      jump\t// in\n    tag_190:\n        /* \"#utility.yul\":3214:3287   */\n      swap2\n      pop\n        /* \"#utility.yul\":3296:3389   */\n      tag_191\n        /* \"#utility.yul\":3385:3388   */\n      dup3\n        /* \"#utility.yul\":3296:3389   */\n      tag_129\n      jump\t// in\n    tag_191:\n        /* \"#utility.yul\":3414:3416   */\n      0x20\n        /* \"#utility.yul\":3409:3412   */\n      dup3\n        /* \"#utility.yul\":3405:3417   */\n      add\n        /* \"#utility.yul\":3398:3417   */\n      swap1\n      pop\n        /* \"#utility.yul\":3058:3423   */\n      swap2\n      swap1\n      pop\n      jump\t// out\n        /* \"#utility.yul\":3429:3577   */\n    tag_131:\n        /* \"#utility.yul\":3527:3533   */\n      dup3\n        /* \"#utility.yul\":3522:3525   */\n      dup2\n        /* \"#utility.yul\":3517:3520   */\n      dup4\n        /* \"#utility.yul\":3504:3534   */\n      calldatacopy\n        /* \"#utility.yul\":3568:3569   */\n      0x00\n        /* \"#utility.yul\":3559:3565   */\n      dup4\n        /* \"#utility.yul\":3554:3557   */\n      dup4\n        /* \"#utility.yul\":3550:3566   */\n      add\n        /* \"#utility.yul\":3543:3570   */\n      mstore\n        /* \"#utility.yul\":3429:3577   */\n      pop\n      pop\n      pop\n      jump\t// out\n        /* \"#utility.yul\":3583:3685   */\n    tag_132:\n        /* \"#utility.yul\":3624:3630   */\n      0x00\n        /* \"#utility.yul\":3675:3677   */\n      0x1f\n        /* \"#utility.yul\":3671:3678   */\n      not\n        /* \"#utility.yul\":3666:3668   */\n      0x1f\n        /* \"#utility.yul\":3659:3664   */\n      dup4\n        /* \"#utility.yul\":3655:3669   */\n      add\n        /* \"#utility.yul\":3651:3679   */\n      and\n        /* \"#utility.yul\":3641:3679   */\n      swap1\n      pop\n        /* \"#utility.yul\":3583:3685   */\n      swap2\n      swap1\n      pop\n      jump\t// out\n        /* \"#utility.yul\":3713:4027   */\n    tag_133:\n        /* \"#utility.yul\":3809:3812   */\n      0x00\n        /* \"#utility.yul\":3830:3900   */\n      tag_195\n        /* \"#utility.yul\":3893:3899   */\n      dup4\n        /* \"#utility.yul\":3888:3891   */\n      dup6\n        /* \"#utility.yul\":3830:3900   */\n      tag_126\n      jump\t// in\n    tag_195:\n        /* \"#utility.yul\":3823:3900   */\n      swap4\n      pop\n        /* \"#utility.yul\":3910:3966   */\n      tag_196\n        /* \"#utility.yul\":3959:3965   */\n      dup4\n        /* \"#utility.yul\":3954:3957   */\n      dup6\n        /* \"#utility.yul\":3947:3952   */\n      dup5\n        /* \"#utility.yul\":3910:3966   */\n      tag_131\n      jump\t// in\n    tag_196:\n        /* \"#utility.yul\":3991:4020   */\n      tag_197\n        /* \"#utility.yul\":4013:4019   */\n      dup4\n        /* \"#utility.yul\":3991:4020   */\n      tag_132\n      jump\t// in\n    tag_197:\n        /* \"#utility.yul\":3986:3989   */\n      dup5\n        /* \"#utility.yul\":3982:4021   */\n      add\n        /* \"#utility.yul\":3975:4021   */\n      swap1\n      pop\n        /* \"#utility.yul\":3713:4027   */\n      swap4\n      swap3\n      pop\n      pop\n      pop\n      jump\t// out\n        /* \"#utility.yul\":4033:4890   */\n    tag_19:\n        /* \"#utility.yul\":4311:4315   */\n      0x00\n        /* \"#utility.yul\":4349:4352   */\n      0x80\n        /* \"#utility.yul\":4338:4347   */\n      dup3\n        /* \"#utility.yul\":4334:4353   */\n      add\n        /* \"#utility.yul\":4326:4353   */\n      swap1\n      pop\n        /* \"#utility.yul\":4399:4408   */\n      dup2\n        /* \"#utility.yul\":4393:4397   */\n      dup2\n        /* \"#utility.yul\":4389:4409   */\n      sub\n        /* \"#utility.yul\":4385:4386   */\n      0x00\n        /* \"#utility.yul\":4374:4383   */\n      dup4\n        /* \"#utility.yul\":4370:4387   */\n      add\n        /* \"#utility.yul\":4363:4410   */\n      mstore\n        /* \"#utility.yul\":4427:4558   */\n      tag_199\n        /* \"#utility.yul\":4553:4557   */\n      dup2\n        /* \"#utility.yul\":4427:4558   */\n      tag_130\n      jump\t// in\n    tag_199:\n        /* \"#utility.yul\":4419:4558   */\n      swap1\n      pop\n        /* \"#utility.yul\":4568:4640   */\n      tag_200\n        /* \"#utility.yul\":4636:4638   */\n      0x20\n        /* \"#utility.yul\":4625:4634   */\n      dup4\n        /* \"#utility.yul\":4621:4639   */\n      add\n        /* \"#utility.yul\":4612:4618   */\n      dup8\n        /* \"#utility.yul\":4568:4640   */\n      tag_123\n      jump\t// in\n    tag_200:\n        /* \"#utility.yul\":4650:4722   */\n      tag_201\n        /* \"#utility.yul\":4718:4720   */\n      0x40\n        /* \"#utility.yul\":4707:4716   */\n      dup4\n        /* \"#utility.yul\":4703:4721   */\n      add\n        /* \"#utility.yul\":4694:4700   */\n      dup7\n        /* \"#utility.yul\":4650:4722   */\n      tag_125\n      jump\t// in\n    tag_201:\n        /* \"#utility.yul\":4769:4778   */\n      dup2\n        /* \"#utility.yul\":4763:4767   */\n      dup2\n        /* \"#utility.yul\":4759:4779   */\n      sub\n        /* \"#utility.yul\":4754:4756   */\n      0x60\n        /* \"#utility.yul\":4743:4752   */\n      dup4\n        /* \"#utility.yul\":4739:4757   */\n      add\n        /* \"#utility.yul\":4732:4780   */\n      mstore\n        /* \"#utility.yul\":4797:4883   */\n      tag_202\n        /* \"#utility.yul\":4878:4882   */\n      dup2\n        /* \"#utility.yul\":4869:4875   */\n      dup5\n        /* \"#utility.yul\":4861:4867   */\n      dup7\n        /* \"#utility.yul\":4797:4883   */\n      tag_133\n      jump\t// in\n    tag_202:\n        /* \"#utility.yul\":4789:4883   */\n      swap1\n      pop\n        /* \"#utility.yul\":4033:4890   */\n      swap6\n      swap5\n      pop\n      pop\n      pop\n      pop\n      pop\n      jump\t// out\n        /* \"#utility.yul\":4896:5118   */\n    tag_24:\n        /* \"#utility.yul\":4989:4993   */\n      0x00\n        /* \"#utility.yul\":5027:5029   */\n      0x20\n        /* \"#utility.yul\":5016:5025   */\n      dup3\n        /* \"#utility.yul\":5012:5030   */\n      add\n        /* \"#utility.yul\":5004:5030   */\n      swap1\n      pop\n        /* \"#utility.yul\":5040:5111   */\n      tag_204\n        /* \"#utility.yul\":5108:5109   */\n      0x00\n        /* \"#utility.yul\":5097:5106   */\n      dup4\n        /* \"#utility.yul\":5093:5110   */\n      add\n        /* \"#utility.yul\":5084:5090   */\n      dup5\n        /* \"#utility.yul\":5040:5111   */\n      tag_125\n      jump\t// in\n    tag_204:\n        /* \"#utility.yul\":4896:5118   */\n      swap3\n      swap2\n      pop\n      pop\n      jump\t// out\n        /* \"#utility.yul\":5124:5214   */\n    tag_134:\n        /* \"#utility.yul\":5158:5165   */\n      0x00\n        /* \"#utility.yul\":5201:5206   */\n      dup2\n        /* \"#utility.yul\":5194:5207   */\n      iszero\n        /* \"#utility.yul\":5187:5208   */\n      iszero\n        /* \"#utility.yul\":5176:5208   */\n      swap1\n      pop\n        /* \"#utility.yul\":5124:5214   */\n      swap2\n      swap1\n      pop\n      jump\t// out\n        /* \"#utility.yul\":5220:5329   */\n    tag_135:\n        /* \"#utility.yul\":5301:5322   */\n      tag_207\n        /* \"#utility.yul\":5316:5321   */\n      dup2\n        /* \"#utility.yul\":5301:5322   */\n      tag_134\n      jump\t// in\n    tag_207:\n        /* \"#utility.yul\":5296:5299   */\n      dup3\n        /* \"#utility.yul\":5289:5323   */\n      mstore\n        /* \"#utility.yul\":5220:5329   */\n      pop\n      pop\n      jump\t// out\n        /* \"#utility.yul\":5335:5545   */\n    tag_28:\n        /* \"#utility.yul\":5422:5426   */\n      0x00\n        /* \"#utility.yul\":5460:5462   */\n      0x20\n        /* \"#utility.yul\":5449:5458   */\n      dup3\n        /* \"#utility.yul\":5445:5463   */\n      add\n        /* \"#utility.yul\":5437:5463   */\n      swap1\n      pop\n        /* \"#utility.yul\":5473:5538   */\n      tag_209\n        /* \"#utility.yul\":5535:5536   */\n      0x00\n        /* \"#utility.yul\":5524:5533   */\n      dup4\n        /* \"#utility.yul\":5520:5537   */\n      add\n        /* \"#utility.yul\":5511:5517   */\n      dup5\n        /* \"#utility.yul\":5473:5538   */\n      tag_135\n      jump\t// in\n    tag_209:\n        /* \"#utility.yul\":5335:5545   */\n      swap3\n      swap2\n      pop\n      pop\n      jump\t// out\n        /* \"#utility.yul\":5551:5773   */\n    tag_33:\n        /* \"#utility.yul\":5644:5648   */\n      0x00\n        /* \"#utility.yul\":5682:5684   */\n      0x20\n        /* \"#utility.yul\":5671:5680   */\n      dup3\n        /* \"#utility.yul\":5667:5685   */\n      add\n        /* \"#utility.yul\":5659:5685   */\n      swap1\n      pop\n        /* \"#utility.yul\":5695:5766   */\n      tag_211\n        /* \"#utility.yul\":5763:5764   */\n      0x00\n        /* \"#utility.yul\":5752:5761   */\n      dup4\n        /* \"#utility.yul\":5748:5765   */\n      add\n        /* \"#utility.yul\":5739:5745   */\n      dup5\n        /* \"#utility.yul\":5695:5766   */\n      tag_123\n      jump\t// in\n    tag_211:\n        /* \"#utility.yul\":5551:5773   */\n      swap3\n      swap2\n      pop\n      pop\n      jump\t// out\n        /* \"#utility.yul\":5860:5977   */\n    tag_137:\n        /* \"#utility.yul\":5969:5970   */\n      0x00\n        /* \"#utility.yul\":5966:5967   */\n      dup1\n        /* \"#utility.yul\":5959:5971   */\n      revert\n        /* \"#utility.yul\":5983:6100   */\n    tag_138:\n        /* \"#utility.yul\":6092:6093   */\n      0x00\n        /* \"#utility.yul\":6089:6090   */\n      dup1\n        /* \"#utility.yul\":6082:6094   */\n      revert\n        /* \"#utility.yul\":6106:6223   */\n    tag_139:\n        /* \"#utility.yul\":6215:6216   */\n      0x00\n        /* \"#utility.yul\":6212:6213   */\n      dup1\n        /* \"#utility.yul\":6205:6217   */\n      revert\n        /* \"#utility.yul\":6229:6346   */\n    tag_140:\n        /* \"#utility.yul\":6338:6339   */\n      0x00\n        /* \"#utility.yul\":6335:6336   */\n      dup1\n        /* \"#utility.yul\":6328:6340   */\n      revert\n        /* \"#utility.yul\":6352:6469   */\n    tag_141:\n        /* \"#utility.yul\":6461:6462   */\n      0x00\n        /* \"#utility.yul\":6458:6459   */\n      dup1\n        /* \"#utility.yul\":6451:6463   */\n      revert\n        /* \"#utility.yul\":6489:7042   */\n    tag_142:\n        /* \"#utility.yul\":6547:6555   */\n      0x00\n        /* \"#utility.yul\":6557:6563   */\n      dup1\n        /* \"#utility.yul\":6607:6610   */\n      dup4\n        /* \"#utility.yul\":6600:6604   */\n      0x1f\n        /* \"#utility.yul\":6592:6598   */\n      dup5\n        /* \"#utility.yul\":6588:6605   */\n      add\n        /* \"#utility.yul\":6584:6611   */\n      slt\n        /* \"#utility.yul\":6574:6696   */\n      tag_219\n      jumpi\n        /* \"#utility.yul\":6615:6694   */\n      tag_220\n      tag_139\n      jump\t// in\n    tag_220:\n        /* \"#utility.yul\":6574:6696   */\n    tag_219:\n        /* \"#utility.yul\":6728:6734   */\n      dup3\n        /* \"#utility.yul\":6715:6735   */\n      calldataload\n        /* \"#utility.yul\":6705:6735   */\n      swap1\n      pop\n        /* \"#utility.yul\":6758:6776   */\n      0xffffffffffffffff\n        /* \"#utility.yul\":6750:6756   */\n      dup2\n        /* \"#utility.yul\":6747:6777   */\n      gt\n        /* \"#utility.yul\":6744:6861   */\n      iszero\n      tag_221\n      jumpi\n        /* \"#utility.yul\":6780:6859   */\n      tag_222\n      tag_140\n      jump\t// in\n    tag_222:\n        /* \"#utility.yul\":6744:6861   */\n    tag_221:\n        /* \"#utility.yul\":6894:6898   */\n      0x20\n        /* \"#utility.yul\":6886:6892   */\n      dup4\n        /* \"#utility.yul\":6882:6899   */\n      add\n        /* \"#utility.yul\":6870:6899   */\n      swap2\n      pop\n        /* \"#utility.yul\":6948:6951   */\n      dup4\n        /* \"#utility.yul\":6940:6944   */\n      0x01\n        /* \"#utility.yul\":6932:6938   */\n      dup3\n        /* \"#utility.yul\":6928:6945   */\n      mul\n        /* \"#utility.yul\":6918:6926   */\n      dup4\n        /* \"#utility.yul\":6914:6946   */\n      add\n        /* \"#utility.yul\":6911:6952   */\n      gt\n        /* \"#utility.yul\":6908:7036   */\n      iszero\n      tag_223\n      jumpi\n        /* \"#utility.yul\":6955:7034   */\n      tag_224\n      tag_141\n      jump\t// in\n    tag_224:\n        /* \"#utility.yul\":6908:7036   */\n    tag_223:\n        /* \"#utility.yul\":6489:7042   */\n      swap3\n      pop\n      swap3\n      swap1\n      pop\n      jump\t// out\n        /* \"#utility.yul\":7048:7577   */\n    tag_37:\n        /* \"#utility.yul\":7119:7125   */\n      0x00\n        /* \"#utility.yul\":7127:7133   */\n      dup1\n        /* \"#utility.yul\":7176:7178   */\n      0x20\n        /* \"#utility.yul\":7164:7173   */\n      dup4\n        /* \"#utility.yul\":7155:7162   */\n      dup6\n        /* \"#utility.yul\":7151:7174   */\n      sub\n        /* \"#utility.yul\":7147:7179   */\n      slt\n        /* \"#utility.yul\":7144:7263   */\n      iszero\n      tag_226\n      jumpi\n        /* \"#utility.yul\":7182:7261   */\n      tag_227\n      tag_137\n      jump\t// in\n    tag_227:\n        /* \"#utility.yul\":7144:7263   */\n    tag_226:\n        /* \"#utility.yul\":7330:7331   */\n      0x00\n        /* \"#utility.yul\":7319:7328   */\n      dup4\n        /* \"#utility.yul\":7315:7332   */\n      add\n        /* \"#utility.yul\":7302:7333   */\n      calldataload\n        /* \"#utility.yul\":7360:7378   */\n      0xffffffffffffffff\n        /* \"#utility.yul\":7352:7358   */\n      dup2\n        /* \"#utility.yul\":7349:7379   */\n      gt\n        /* \"#utility.yul\":7346:7463   */\n      iszero\n      tag_228\n      jumpi\n        /* \"#utility.yul\":7382:7461   */\n      tag_229\n      tag_138\n      jump\t// in\n    tag_229:\n        /* \"#utility.yul\":7346:7463   */\n    tag_228:\n        /* \"#utility.yul\":7495:7560   */\n      tag_230\n        /* \"#utility.yul\":7552:7559   */\n      dup6\n        /* \"#utility.yul\":7543:7549   */\n      dup3\n        /* \"#utility.yul\":7532:7541   */\n      dup7\n        /* \"#utility.yul\":7528:7550   */\n      add\n        /* \"#utility.yul\":7495:7560   */\n      tag_142\n      jump\t// in\n    tag_230:\n        /* \"#utility.yul\":7477:7560   */\n      swap3\n      pop\n      swap3\n      pop\n        /* \"#utility.yul\":7273:7570   */\n      pop\n        /* \"#utility.yul\":7048:7577   */\n      swap3\n      pop\n      swap3\n      swap1\n      pop\n      jump\t// out\n        /* \"#utility.yul\":7583:7669   */\n    tag_143:\n        /* \"#utility.yul\":7618:7625   */\n      0x00\n        /* \"#utility.yul\":7658:7662   */\n      0xff\n        /* \"#utility.yul\":7651:7656   */\n      dup3\n        /* \"#utility.yul\":7647:7663   */\n      and\n        /* \"#utility.yul\":7636:7663   */\n      swap1\n      pop\n        /* \"#utility.yul\":7583:7669   */\n      swap2\n      swap1\n      pop\n      jump\t// out\n        /* \"#utility.yul\":7675:7787   */\n    tag_144:\n        /* \"#utility.yul\":7758:7780   */\n      tag_233\n        /* \"#utility.yul\":7774:7779   */\n      dup2\n        /* \"#utility.yul\":7758:7780   */\n      tag_143\n      jump\t// in\n    tag_233:\n        /* \"#utility.yul\":7753:7756   */\n      dup3\n        /* \"#utility.yul\":7746:7781   */\n      mstore\n        /* \"#utility.yul\":7675:7787   */\n      pop\n      pop\n      jump\t// out\n        /* \"#utility.yul\":7793:8007   */\n    tag_53:\n        /* \"#utility.yul\":7882:7886   */\n      0x00\n        /* \"#utility.yul\":7920:7922   */\n      0x20\n        /* \"#utility.yul\":7909:7918   */\n      dup3\n        /* \"#utility.yul\":7905:7923   */\n      add\n        /* \"#utility.yul\":7897:7923   */\n      swap1\n      pop\n        /* \"#utility.yul\":7933:8000   */\n      tag_235\n        /* \"#utility.yul\":7997:7998   */\n      0x00\n        /* \"#utility.yul\":7986:7995   */\n      dup4\n        /* \"#utility.yul\":7982:7999   */\n      add\n        /* \"#utility.yul\":7973:7979   */\n      dup5\n        /* \"#utility.yul\":7933:8000   */\n      tag_144\n      jump\t// in\n    tag_235:\n        /* \"#utility.yul\":7793:8007   */\n      swap3\n      swap2\n      pop\n      pop\n      jump\t// out\n        /* \"#utility.yul\":8013:8112   */\n    tag_145:\n        /* \"#utility.yul\":8065:8071   */\n      0x00\n        /* \"#utility.yul\":8099:8104   */\n      dup2\n        /* \"#utility.yul\":8093:8105   */\n      mload\n        /* \"#utility.yul\":8083:8105   */\n      swap1\n      pop\n        /* \"#utility.yul\":8013:8112   */\n      swap2\n      swap1\n      pop\n      jump\t// out\n        /* \"#utility.yul\":8118:8257   */\n    tag_146:\n        /* \"#utility.yul\":8207:8213   */\n      dup3\n        /* \"#utility.yul\":8202:8205   */\n      dup2\n        /* \"#utility.yul\":8197:8200   */\n      dup4\n        /* \"#utility.yul\":8191:8214   */\n      mcopy\n        /* \"#utility.yul\":8248:8249   */\n      0x00\n        /* \"#utility.yul\":8239:8245   */\n      dup4\n        /* \"#utility.yul\":8234:8237   */\n      dup4\n        /* \"#utility.yul\":8230:8246   */\n      add\n        /* \"#utility.yul\":8223:8250   */\n      mstore\n        /* \"#utility.yul\":8118:8257   */\n      pop\n      pop\n      pop\n      jump\t// out\n        /* \"#utility.yul\":8263:8640   */\n    tag_147:\n        /* \"#utility.yul\":8351:8354   */\n      0x00\n        /* \"#utility.yul\":8379:8418   */\n      tag_239\n        /* \"#utility.yul\":8412:8417   */\n      dup3\n        /* \"#utility.yul\":8379:8418   */\n      tag_145\n      jump\t// in\n    tag_239:\n        /* \"#utility.yul\":8434:8505   */\n      tag_240\n        /* \"#utility.yul\":8498:8504   */\n      dup2\n        /* \"#utility.yul\":8493:8496   */\n      dup6\n        /* \"#utility.yul\":8434:8505   */\n      tag_118\n      jump\t// in\n    tag_240:\n        /* \"#utility.yul\":8427:8505   */\n      swap4\n      pop\n        /* \"#utility.yul\":8514:8579   */\n      tag_241\n        /* \"#utility.yul\":8572:8578   */\n      dup2\n        /* \"#utility.yul\":8567:8570   */\n      dup6\n        /* \"#utility.yul\":8560:8564   */\n      0x20\n        /* \"#utility.yul\":8553:8558   */\n      dup7\n        /* \"#utility.yul\":8549:8565   */\n      add\n        /* \"#utility.yul\":8514:8579   */\n      tag_146\n      jump\t// in\n    tag_241:\n        /* \"#utility.yul\":8604:8633   */\n      tag_242\n        /* \"#utility.yul\":8626:8632   */\n      dup2\n        /* \"#utility.yul\":8604:8633   */\n      tag_132\n      jump\t// in\n    tag_242:\n        /* \"#utility.yul\":8599:8602   */\n      dup5\n        /* \"#utility.yul\":8595:8634   */\n      add\n        /* \"#utility.yul\":8588:8634   */\n      swap2\n      pop\n        /* \"#utility.yul\":8355:8640   */\n      pop\n        /* \"#utility.yul\":8263:8640   */\n      swap3\n      swap2\n      pop\n      pop\n      jump\t// out\n        /* \"#utility.yul\":8646:8959   */\n    tag_63:\n        /* \"#utility.yul\":8759:8763   */\n      0x00\n        /* \"#utility.yul\":8797:8799   */\n      0x20\n        /* \"#utility.yul\":8786:8795   */\n      dup3\n        /* \"#utility.yul\":8782:8800   */\n      add\n        /* \"#utility.yul\":8774:8800   */\n      swap1\n      pop\n        /* \"#utility.yul\":8846:8855   */\n      dup2\n        /* \"#utility.yul\":8840:8844   */\n      dup2\n        /* \"#utility.yul\":8836:8856   */\n      sub\n        /* \"#utility.yul\":8832:8833   */\n      0x00\n        /* \"#utility.yul\":8821:8830   */\n      dup4\n        /* \"#utility.yul\":8817:8834   */\n      add\n        /* \"#utility.yul\":8810:8857   */\n      mstore\n        /* \"#utility.yul\":8874:8952   */\n      tag_244\n        /* \"#utility.yul\":8947:8951   */\n      dup2\n        /* \"#utility.yul\":8938:8944   */\n      dup5\n        /* \"#utility.yul\":8874:8952   */\n      tag_147\n      jump\t// in\n    tag_244:\n        /* \"#utility.yul\":8866:8952   */\n      swap1\n      pop\n        /* \"#utility.yul\":8646:8959   */\n      swap3\n      swap2\n      pop\n      pop\n      jump\t// out\n        /* \"#utility.yul\":8965:9123   */\n    tag_148:\n        /* \"#utility.yul\":9105:9115   */\n      0x6465737472756374000000000000000000000000000000000000000000000000\n        /* \"#utility.yul\":9101:9102   */\n      0x00\n        /* \"#utility.yul\":9093:9099   */\n      dup3\n        /* \"#utility.yul\":9089:9103   */\n      add\n        /* \"#utility.yul\":9082:9116   */\n      mstore\n        /* \"#utility.yul\":8965:9123   */\n      pop\n      jump\t// out\n        /* \"#utility.yul\":9129:9494   */\n    tag_149:\n        /* \"#utility.yul\":9271:9274   */\n      0x00\n        /* \"#utility.yul\":9292:9358   */\n      tag_247\n        /* \"#utility.yul\":9356:9357   */\n      0x08\n        /* \"#utility.yul\":9351:9354   */\n      dup4\n        /* \"#utility.yul\":9292:9358   */\n      tag_118\n      jump\t// in\n    tag_247:\n        /* \"#utility.yul\":9285:9358   */\n      swap2\n      pop\n        /* \"#utility.yul\":9367:9460   */\n      tag_248\n        /* \"#utility.yul\":9456:9459   */\n      dup3\n        /* \"#utility.yul\":9367:9460   */\n      tag_148\n      jump\t// in\n    tag_248:\n        /* \"#utility.yul\":9485:9487   */\n      0x20\n        /* \"#utility.yul\":9480:9483   */\n      dup3\n        /* \"#utility.yul\":9476:9488   */\n      add\n        /* \"#utility.yul\":9469:9488   */\n      swap1\n      pop\n        /* \"#utility.yul\":9129:9494   */\n      swap2\n      swap1\n      pop\n      jump\t// out\n        /* \"#utility.yul\":9500:10357   */\n    tag_65:\n        /* \"#utility.yul\":9778:9782   */\n      0x00\n        /* \"#utility.yul\":9816:9819   */\n      0x80\n        /* \"#utility.yul\":9805:9814   */\n      dup3\n        /* \"#utility.yul\":9801:9820   */\n      add\n        /* \"#utility.yul\":9793:9820   */\n      swap1\n      pop\n        /* \"#utility.yul\":9866:9875   */\n      dup2\n        /* \"#utility.yul\":9860:9864   */\n      dup2\n        /* \"#utility.yul\":9856:9876   */\n      sub\n        /* \"#utility.yul\":9852:9853   */\n      0x00\n        /* \"#utility.yul\":9841:9850   */\n      dup4\n        /* \"#utility.yul\":9837:9854   */\n      add\n        /* \"#utility.yul\":9830:9877   */\n      mstore\n        /* \"#utility.yul\":9894:10025   */\n      tag_250\n        /* \"#utility.yul\":10020:10024   */\n      dup2\n        /* \"#utility.yul\":9894:10025   */\n      tag_149\n      jump\t// in\n    tag_250:\n        /* \"#utility.yul\":9886:10025   */\n      swap1\n      pop\n        /* \"#utility.yul\":10035:10107   */\n      tag_251\n        /* \"#utility.yul\":10103:10105   */\n      0x20\n        /* \"#utility.yul\":10092:10101   */\n      dup4\n        /* \"#utility.yul\":10088:10106   */\n      add\n        /* \"#utility.yul\":10079:10085   */\n      dup8\n        /* \"#utility.yul\":10035:10107   */\n      tag_123\n      jump\t// in\n    tag_251:\n        /* \"#utility.yul\":10117:10189   */\n      tag_252\n        /* \"#utility.yul\":10185:10187   */\n      0x40\n        /* \"#utility.yul\":10174:10183   */\n      dup4\n        /* \"#utility.yul\":10170:10188   */\n      add\n        /* \"#utility.yul\":10161:10167   */\n      dup7\n        /* \"#utility.yul\":10117:10189   */\n      tag_125\n      jump\t// in\n    tag_252:\n        /* \"#utility.yul\":10236:10245   */\n      dup2\n        /* \"#utility.yul\":10230:10234   */\n      dup2\n        /* \"#utility.yul\":10226:10246   */\n      sub\n        /* \"#utility.yul\":10221:10223   */\n      0x60\n        /* \"#utility.yul\":10210:10219   */\n      dup4\n        /* \"#utility.yul\":10206:10224   */\n      add\n        /* \"#utility.yul\":10199:10247   */\n      mstore\n        /* \"#utility.yul\":10264:10350   */\n      tag_253\n        /* \"#utility.yul\":10345:10349   */\n      dup2\n        /* \"#utility.yul\":10336:10342   */\n      dup5\n        /* \"#utility.yul\":10328:10334   */\n      dup7\n        /* \"#utility.yul\":10264:10350   */\n      tag_133\n      jump\t// in\n    tag_253:\n        /* \"#utility.yul\":10256:10350   */\n      swap1\n      pop\n        /* \"#utility.yul\":9500:10357   */\n      swap6\n      swap5\n      pop\n      pop\n      pop\n      pop\n      pop\n      jump\t// out\n        /* \"#utility.yul\":10363:10577   */\n    tag_150:\n        /* \"#utility.yul\":10503:10569   */\n      0xe5bf85e9a1bbe9a286e5afbce6898de883bde8afb40000000000000000000000\n        /* \"#utility.yul\":10499:10500   */\n      0x00\n        /* \"#utility.yul\":10491:10497   */\n      dup3\n        /* \"#utility.yul\":10487:10501   */\n      add\n        /* \"#utility.yul\":10480:10570   */\n      mstore\n        /* \"#utility.yul\":10363:10577   */\n      pop\n      jump\t// out\n        /* \"#utility.yul\":10583:10949   */\n    tag_151:\n        /* \"#utility.yul\":10725:10728   */\n      0x00\n        /* \"#utility.yul\":10746:10813   */\n      tag_256\n        /* \"#utility.yul\":10810:10812   */\n      0x15\n        /* \"#utility.yul\":10805:10808   */\n      dup4\n        /* \"#utility.yul\":10746:10813   */\n      tag_118\n      jump\t// in\n    tag_256:\n        /* \"#utility.yul\":10739:10813   */\n      swap2\n      pop\n        /* \"#utility.yul\":10822:10915   */\n      tag_257\n        /* \"#utility.yul\":10911:10914   */\n      dup3\n        /* \"#utility.yul\":10822:10915   */\n      tag_150\n      jump\t// in\n    tag_257:\n        /* \"#utility.yul\":10940:10942   */\n      0x20\n        /* \"#utility.yul\":10935:10938   */\n      dup3\n        /* \"#utility.yul\":10931:10943   */\n      add\n        /* \"#utility.yul\":10924:10943   */\n      swap1\n      pop\n        /* \"#utility.yul\":10583:10949   */\n      swap2\n      swap1\n      pop\n      jump\t// out\n        /* \"#utility.yul\":10955:11374   */\n    tag_69:\n        /* \"#utility.yul\":11121:11125   */\n      0x00\n        /* \"#utility.yul\":11159:11161   */\n      0x20\n        /* \"#utility.yul\":11148:11157   */\n      dup3\n        /* \"#utility.yul\":11144:11162   */\n      add\n        /* \"#utility.yul\":11136:11162   */\n      swap1\n      pop\n        /* \"#utility.yul\":11208:11217   */\n      dup2\n        /* \"#utility.yul\":11202:11206   */\n      dup2\n        /* \"#utility.yul\":11198:11218   */\n      sub\n        /* \"#utility.yul\":11194:11195   */\n      0x00\n        /* \"#utility.yul\":11183:11192   */\n      dup4\n        /* \"#utility.yul\":11179:11196   */\n      add\n        /* \"#utility.yul\":11172:11219   */\n      mstore\n        /* \"#utility.yul\":11236:11367   */\n      tag_259\n        /* \"#utility.yul\":11362:11366   */\n      dup2\n        /* \"#utility.yul\":11236:11367   */\n      tag_151\n      jump\t// in\n    tag_259:\n        /* \"#utility.yul\":11228:11367   */\n      swap1\n      pop\n        /* \"#utility.yul\":10955:11374   */\n      swap2\n      swap1\n      pop\n      jump\t// out\n        /* \"#utility.yul\":11380:11594   */\n    tag_152:\n        /* \"#utility.yul\":11520:11586   */\n      0xe5bf85e9a1bbe8afb43ae4b8bae4babae6b091e69c8de58aa100000000000000\n        /* \"#utility.yul\":11516:11517   */\n      0x00\n        /* \"#utility.yul\":11508:11514   */\n      dup3\n        /* \"#utility.yul\":11504:11518   */\n      add\n        /* \"#utility.yul\":11497:11587   */\n      mstore\n        /* \"#utility.yul\":11380:11594   */\n      pop\n      jump\t// out\n        /* \"#utility.yul\":11600:11966   */\n    tag_153:\n        /* \"#utility.yul\":11742:11745   */\n      0x00\n        /* \"#utility.yul\":11763:11830   */\n      tag_262\n        /* \"#utility.yul\":11827:11829   */\n      0x19\n        /* \"#utility.yul\":11822:11825   */\n      dup4\n        /* \"#utility.yul\":11763:11830   */\n      tag_118\n      jump\t// in\n    tag_262:\n        /* \"#utility.yul\":11756:11830   */\n      swap2\n      pop\n        /* \"#utility.yul\":11839:11932   */\n      tag_263\n        /* \"#utility.yul\":11928:11931   */\n      dup3\n        /* \"#utility.yul\":11839:11932   */\n      tag_152\n      jump\t// in\n    tag_263:\n        /* \"#utility.yul\":11957:11959   */\n      0x20\n        /* \"#utility.yul\":11952:11955   */\n      dup3\n        /* \"#utility.yul\":11948:11960   */\n      add\n        /* \"#utility.yul\":11941:11960   */\n      swap1\n      pop\n        /* \"#utility.yul\":11600:11966   */\n      swap2\n      swap1\n      pop\n      jump\t// out\n        /* \"#utility.yul\":11972:12391   */\n    tag_77:\n        /* \"#utility.yul\":12138:12142   */\n      0x00\n        /* \"#utility.yul\":12176:12178   */\n      0x20\n        /* \"#utility.yul\":12165:12174   */\n      dup3\n        /* \"#utility.yul\":12161:12179   */\n      add\n        /* \"#utility.yul\":12153:12179   */\n      swap1\n      pop\n        /* \"#utility.yul\":12225:12234   */\n      dup2\n        /* \"#utility.yul\":12219:12223   */\n      dup2\n        /* \"#utility.yul\":12215:12235   */\n      sub\n        /* \"#utility.yul\":12211:12212   */\n      0x00\n        /* \"#utility.yul\":12200:12209   */\n      dup4\n        /* \"#utility.yul\":12196:12213   */\n      add\n        /* \"#utility.yul\":12189:12236   */\n      mstore\n        /* \"#utility.yul\":12253:12384   */\n      tag_265\n        /* \"#utility.yul\":12379:12383   */\n      dup2\n        /* \"#utility.yul\":12253:12384   */\n      tag_153\n      jump\t// in\n    tag_265:\n        /* \"#utility.yul\":12245:12384   */\n      swap1\n      pop\n        /* \"#utility.yul\":11972:12391   */\n      swap2\n      swap1\n      pop\n      jump\t// out\n        /* \"#utility.yul\":12397:12611   */\n    tag_154:\n        /* \"#utility.yul\":12537:12603   */\n      0xe5bf85e9a1bbe8afb43ae5908ce5bf97e4bbace8be9be88ba6e4ba8600000000\n        /* \"#utility.yul\":12533:12534   */\n      0x00\n        /* \"#utility.yul\":12525:12531   */\n      dup3\n        /* \"#utility.yul\":12521:12535   */\n      add\n        /* \"#utility.yul\":12514:12604   */\n      mstore\n        /* \"#utility.yul\":12397:12611   */\n      pop\n      jump\t// out\n        /* \"#utility.yul\":12617:12983   */\n    tag_155:\n        /* \"#utility.yul\":12759:12762   */\n      0x00\n        /* \"#utility.yul\":12780:12847   */\n      tag_268\n        /* \"#utility.yul\":12844:12846   */\n      0x1c\n        /* \"#utility.yul\":12839:12842   */\n      dup4\n        /* \"#utility.yul\":12780:12847   */\n      tag_118\n      jump\t// in\n    tag_268:\n        /* \"#utility.yul\":12773:12847   */\n      swap2\n      pop\n        /* \"#utility.yul\":12856:12949   */\n      tag_269\n        /* \"#utility.yul\":12945:12948   */\n      dup3\n        /* \"#utility.yul\":12856:12949   */\n      tag_154\n      jump\t// in\n    tag_269:\n        /* \"#utility.yul\":12974:12976   */\n      0x20\n        /* \"#utility.yul\":12969:12972   */\n      dup3\n        /* \"#utility.yul\":12965:12977   */\n      add\n        /* \"#utility.yul\":12958:12977   */\n      swap1\n      pop\n        /* \"#utility.yul\":12617:12983   */\n      swap2\n      swap1\n      pop\n      jump\t// out\n        /* \"#utility.yul\":12989:13408   */\n    tag_88:\n        /* \"#utility.yul\":13155:13159   */\n      0x00\n        /* \"#utility.yul\":13193:13195   */\n      0x20\n        /* \"#utility.yul\":13182:13191   */\n      dup3\n        /* \"#utility.yul\":13178:13196   */\n      add\n        /* \"#utility.yul\":13170:13196   */\n      swap1\n      pop\n        /* \"#utility.yul\":13242:13251   */\n      dup2\n        /* \"#utility.yul\":13236:13240   */\n      dup2\n        /* \"#utility.yul\":13232:13252   */\n      sub\n        /* \"#utility.yul\":13228:13229   */\n      0x00\n        /* \"#utility.yul\":13217:13226   */\n      dup4\n        /* \"#utility.yul\":13213:13230   */\n      add\n        /* \"#utility.yul\":13206:13253   */\n      mstore\n        /* \"#utility.yul\":13270:13401   */\n      tag_271\n        /* \"#utility.yul\":13396:13400   */\n      dup2\n        /* \"#utility.yul\":13270:13401   */\n      tag_155\n      jump\t// in\n    tag_271:\n        /* \"#utility.yul\":13262:13401   */\n      swap1\n      pop\n        /* \"#utility.yul\":12989:13408   */\n      swap2\n      swap1\n      pop\n      jump\t// out\n        /* \"#utility.yul\":13414:13729   */\n    tag_156:\n        /* \"#utility.yul\":13554:13620   */\n      0xe7bb99e992b1efbc81efbc81e69c80e5b091e7bb9932e4b8aae4bba5e5a4aae5\n        /* \"#utility.yul\":13550:13551   */\n      0x00\n        /* \"#utility.yul\":13542:13548   */\n      dup3\n        /* \"#utility.yul\":13538:13552   */\n      add\n        /* \"#utility.yul\":13531:13621   */\n      mstore\n        /* \"#utility.yul\":13655:13721   */\n      0xb881efbc81000000000000000000000000000000000000000000000000000000\n        /* \"#utility.yul\":13650:13652   */\n      0x20\n        /* \"#utility.yul\":13642:13648   */\n      dup3\n        /* \"#utility.yul\":13638:13653   */\n      add\n        /* \"#utility.yul\":13631:13722   */\n      mstore\n        /* \"#utility.yul\":13414:13729   */\n      pop\n      jump\t// out\n        /* \"#utility.yul\":13735:14101   */\n    tag_157:\n        /* \"#utility.yul\":13877:13880   */\n      0x00\n        /* \"#utility.yul\":13898:13965   */\n      tag_274\n        /* \"#utility.yul\":13962:13964   */\n      0x25\n        /* \"#utility.yul\":13957:13960   */\n      dup4\n        /* \"#utility.yul\":13898:13965   */\n      tag_118\n      jump\t// in\n    tag_274:\n        /* \"#utility.yul\":13891:13965   */\n      swap2\n      pop\n        /* \"#utility.yul\":13974:14067   */\n      tag_275\n        /* \"#utility.yul\":14063:14066   */\n      dup3\n        /* \"#utility.yul\":13974:14067   */\n      tag_156\n      jump\t// in\n    tag_275:\n        /* \"#utility.yul\":14092:14094   */\n      0x40\n        /* \"#utility.yul\":14087:14090   */\n      dup3\n        /* \"#utility.yul\":14083:14095   */\n      add\n        /* \"#utility.yul\":14076:14095   */\n      swap1\n      pop\n        /* \"#utility.yul\":13735:14101   */\n      swap2\n      swap1\n      pop\n      jump\t// out\n        /* \"#utility.yul\":14107:14526   */\n    tag_91:\n        /* \"#utility.yul\":14273:14277   */\n      0x00\n        /* \"#utility.yul\":14311:14313   */\n      0x20\n        /* \"#utility.yul\":14300:14309   */\n      dup3\n        /* \"#utility.yul\":14296:14314   */\n      add\n        /* \"#utility.yul\":14288:14314   */\n      swap1\n      pop\n        /* \"#utility.yul\":14360:14369   */\n      dup2\n        /* \"#utility.yul\":14354:14358   */\n      dup2\n        /* \"#utility.yul\":14350:14370   */\n      sub\n        /* \"#utility.yul\":14346:14347   */\n      0x00\n        /* \"#utility.yul\":14335:14344   */\n      dup4\n        /* \"#utility.yul\":14331:14348   */\n      add\n        /* \"#utility.yul\":14324:14371   */\n      mstore\n        /* \"#utility.yul\":14388:14519   */\n      tag_277\n        /* \"#utility.yul\":14514:14518   */\n      dup2\n        /* \"#utility.yul\":14388:14519   */\n      tag_157\n      jump\t// in\n    tag_277:\n        /* \"#utility.yul\":14380:14519   */\n      swap1\n      pop\n        /* \"#utility.yul\":14107:14526   */\n      swap2\n      swap1\n      pop\n      jump\t// out\n        /* \"#utility.yul\":14532:14746   */\n    tag_158:\n        /* \"#utility.yul\":14672:14738   */\n      0xe5bf85e9a1bbe8afb43ae5908ce5bf97e4bbace5a5bd00000000000000000000\n        /* \"#utility.yul\":14668:14669   */\n      0x00\n        /* \"#utility.yul\":14660:14666   */\n      dup3\n        /* \"#utility.yul\":14656:14670   */\n      add\n        /* \"#utility.yul\":14649:14739   */\n      mstore\n        /* \"#utility.yul\":14532:14746   */\n      pop\n      jump\t// out\n        /* \"#utility.yul\":14752:15118   */\n    tag_159:\n        /* \"#utility.yul\":14894:14897   */\n      0x00\n        /* \"#utility.yul\":14915:14982   */\n      tag_280\n        /* \"#utility.yul\":14979:14981   */\n      0x16\n        /* \"#utility.yul\":14974:14977   */\n      dup4\n        /* \"#utility.yul\":14915:14982   */\n      tag_118\n      jump\t// in\n    tag_280:\n        /* \"#utility.yul\":14908:14982   */\n      swap2\n      pop\n        /* \"#utility.yul\":14991:15084   */\n      tag_281\n        /* \"#utility.yul\":15080:15083   */\n      dup3\n        /* \"#utility.yul\":14991:15084   */\n      tag_158\n      jump\t// in\n    tag_281:\n        /* \"#utility.yul\":15109:15111   */\n      0x20\n        /* \"#utility.yul\":15104:15107   */\n      dup3\n        /* \"#utility.yul\":15100:15112   */\n      add\n        /* \"#utility.yul\":15093:15112   */\n      swap1\n      pop\n        /* \"#utility.yul\":14752:15118   */\n      swap2\n      swap1\n      pop\n      jump\t// out\n        /* \"#utility.yul\":15124:15543   */\n    tag_102:\n        /* \"#utility.yul\":15290:15294   */\n      0x00\n        /* \"#utility.yul\":15328:15330   */\n      0x20\n        /* \"#utility.yul\":15317:15326   */\n      dup3\n        /* \"#utility.yul\":15313:15331   */\n      add\n        /* \"#utility.yul\":15305:15331   */\n      swap1\n      pop\n        /* \"#utility.yul\":15377:15386   */\n      dup2\n        /* \"#utility.yul\":15371:15375   */\n      dup2\n        /* \"#utility.yul\":15367:15387   */\n      sub\n        /* \"#utility.yul\":15363:15364   */\n      0x00\n        /* \"#utility.yul\":15352:15361   */\n      dup4\n        /* \"#utility.yul\":15348:15365   */\n      add\n        /* \"#utility.yul\":15341:15388   */\n      mstore\n        /* \"#utility.yul\":15405:15536   */\n      tag_283\n        /* \"#utility.yul\":15531:15535   */\n      dup2\n        /* \"#utility.yul\":15405:15536   */\n      tag_159\n      jump\t// in\n    tag_283:\n        /* \"#utility.yul\":15397:15536   */\n      swap1\n      pop\n        /* \"#utility.yul\":15124:15543   */\n      swap2\n      swap1\n      pop\n      jump\t// out\n        /* \"#utility.yul\":15549:15763   */\n    tag_160:\n        /* \"#utility.yul\":15689:15755   */\n      0xe5bf85e9a1bbe8afb43ae9a286e5afbce5a5bd00000000000000000000000000\n        /* \"#utility.yul\":15685:15686   */\n      0x00\n        /* \"#utility.yul\":15677:15683   */\n      dup3\n        /* \"#utility.yul\":15673:15687   */\n      add\n        /* \"#utility.yul\":15666:15756   */\n      mstore\n        /* \"#utility.yul\":15549:15763   */\n      pop\n      jump\t// out\n        /* \"#utility.yul\":15769:16135   */\n    tag_161:\n        /* \"#utility.yul\":15911:15914   */\n      0x00\n        /* \"#utility.yul\":15932:15999   */\n      tag_286\n        /* \"#utility.yul\":15996:15998   */\n      0x13\n        /* \"#utility.yul\":15991:15994   */\n      dup4\n        /* \"#utility.yul\":15932:15999   */\n      tag_118\n      jump\t// in\n    tag_286:\n        /* \"#utility.yul\":15925:15999   */\n      swap2\n      pop\n        /* \"#utility.yul\":16008:16101   */\n      tag_287\n        /* \"#utility.yul\":16097:16100   */\n      dup3\n        /* \"#utility.yul\":16008:16101   */\n      tag_160\n      jump\t// in\n    tag_287:\n        /* \"#utility.yul\":16126:16128   */\n      0x20\n        /* \"#utility.yul\":16121:16124   */\n      dup3\n        /* \"#utility.yul\":16117:16129   */\n      add\n        /* \"#utility.yul\":16110:16129   */\n      swap1\n      pop\n        /* \"#utility.yul\":15769:16135   */\n      swap2\n      swap1\n      pop\n      jump\t// out\n        /* \"#utility.yul\":16141:16560   */\n    tag_113:\n        /* \"#utility.yul\":16307:16311   */\n      0x00\n        /* \"#utility.yul\":16345:16347   */\n      0x20\n        /* \"#utility.yul\":16334:16343   */\n      dup3\n        /* \"#utility.yul\":16330:16348   */\n      add\n        /* \"#utility.yul\":16322:16348   */\n      swap1\n      pop\n        /* \"#utility.yul\":16394:16403   */\n      dup2\n        /* \"#utility.yul\":16388:16392   */\n      dup2\n        /* \"#utility.yul\":16384:16404   */\n      sub\n        /* \"#utility.yul\":16380:16381   */\n      0x00\n        /* \"#utility.yul\":16369:16378   */\n      dup4\n        /* \"#utility.yul\":16365:16382   */\n      add\n        /* \"#utility.yul\":16358:16405   */\n      mstore\n        /* \"#utility.yul\":16422:16553   */\n      tag_289\n        /* \"#utility.yul\":16548:16552   */\n      dup2\n        /* \"#utility.yul\":16422:16553   */\n      tag_161\n      jump\t// in\n    tag_289:\n        /* \"#utility.yul\":16414:16553   */\n      swap1\n      pop\n        /* \"#utility.yul\":16141:16560   */\n      swap2\n      swap1\n      pop\n      jump\t// out\n        /* \"#utility.yul\":16566:16714   */\n    tag_162:\n        /* \"#utility.yul\":16668:16679   */\n      0x00\n        /* \"#utility.yul\":16705:16708   */\n      dup2\n        /* \"#utility.yul\":16690:16708   */\n      swap1\n      pop\n        /* \"#utility.yul\":16566:16714   */\n      swap3\n      swap2\n      pop\n      pop\n      jump\t// out\n        /* \"#utility.yul\":16744:17074   */\n    tag_163:\n        /* \"#utility.yul\":16860:16863   */\n      0x00\n        /* \"#utility.yul\":16881:16970   */\n      tag_292\n        /* \"#utility.yul\":16963:16969   */\n      dup4\n        /* \"#utility.yul\":16958:16961   */\n      dup6\n        /* \"#utility.yul\":16881:16970   */\n      tag_162\n      jump\t// in\n    tag_292:\n        /* \"#utility.yul\":16874:16970   */\n      swap4\n      pop\n        /* \"#utility.yul\":16980:17036   */\n      tag_293\n        /* \"#utility.yul\":17029:17035   */\n      dup4\n        /* \"#utility.yul\":17024:17027   */\n      dup6\n        /* \"#utility.yul\":17017:17022   */\n      dup5\n        /* \"#utility.yul\":16980:17036   */\n      tag_131\n      jump\t// in\n    tag_293:\n        /* \"#utility.yul\":17061:17067   */\n      dup3\n        /* \"#utility.yul\":17056:17059   */\n      dup5\n        /* \"#utility.yul\":17052:17068   */\n      add\n        /* \"#utility.yul\":17045:17068   */\n      swap1\n      pop\n        /* \"#utility.yul\":16744:17074   */\n      swap4\n      swap3\n      pop\n      pop\n      pop\n      jump\t// out\n        /* \"#utility.yul\":17080:17375   */\n    tag_117:\n        /* \"#utility.yul\":17222:17225   */\n      0x00\n        /* \"#utility.yul\":17244:17349   */\n      tag_295\n        /* \"#utility.yul\":17345:17348   */\n      dup3\n        /* \"#utility.yul\":17336:17342   */\n      dup5\n        /* \"#utility.yul\":17328:17334   */\n      dup7\n        /* \"#utility.yul\":17244:17349   */\n      tag_163\n      jump\t// in\n    tag_295:\n        /* \"#utility.yul\":17237:17349   */\n      swap2\n      pop\n        /* \"#utility.yul\":17366:17369   */\n      dup2\n        /* \"#utility.yul\":17359:17369   */\n      swap1\n      pop\n        /* \"#utility.yul\":17080:17375   */\n      swap4\n      swap3\n      pop\n      pop\n      pop\n      jump\t// out\n    stop\n    data_acf0a86aa17baa77f1af03ee73528e24c3de16b7e0ad2af45b9146d4dfc709e9 e68891e4b88de79fa5e98193e5a682e4bd95e5a484e79086e5ae832ce4bda0e689bee69c89e585b3e983a8e997a8e590a7\n\n    auxdata: 0xa2646970667358221220b182c7f13e7fd79204322a56fff130912ce10aa456831ec0077374ebe039086b64736f6c634300081a0033\n}\n",
				"bytecode": {
					"linkReferences": {},
					"object": "60a06040525f805f6101000a81548160ff021916908360ff160217905550348015610028575f80fd5b5060405161155e38038061155e833981810160405281019061004a9190610150565b5f73ffffffffffffffffffffffffffffffffffffffff168173ffffffffffffffffffffffffffffffffffffffff16036100b8576040517f08c379a00000000000000000000000000000000000000000000000000000000081526004016100af906101d5565b60405180910390fd5b8073ffffffffffffffffffffffffffffffffffffffff1660808173ffffffffffffffffffffffffffffffffffffffff1681525050506101f3565b5f80fd5b5f73ffffffffffffffffffffffffffffffffffffffff82169050919050565b5f61011f826100f6565b9050919050565b61012f81610115565b8114610139575f80fd5b50565b5f8151905061014a81610126565b92915050565b5f60208284031215610165576101646100f2565b5b5f6101728482850161013c565b91505092915050565b5f82825260208201905092915050565b7f696e76616c6964206164647265737300000000000000000000000000000000005f82015250565b5f6101bf600f8361017b565b91506101ca8261018b565b602082019050919050565b5f6020820190508181035f8301526101ec816101b3565b9050919050565b6080516113376102275f395f81816103490152818161036e0152818161054f0152818161077b015261096c01526113375ff3fe60806040526004361061007e575f3560e01c80638c85d6791161004d5780638c85d679146101ab578063a777d0dc146101db578063e25fe17514610217578063e3b4995914610241576100be565b806312065fe0146100fd5780632b68b9c61461012757806340eedabb146101455780638ab9e66d1461016f576100be565b366100be577ff7f75251dee7d7fc22deac3247729ebe7c86541f35930bf10c2a4207479a3b6c33346040516100b4929190610c6a565b60405180910390a1005b7ff7f75251dee7d7fc22deac3247729ebe7c86541f35930bf10c2a4207479a3b6c33345f366040516100f39493929190610d4b565b60405180910390a1005b348015610108575f80fd5b5061011161027d565b60405161011e9190610d9c565b60405180910390f35b61012f610284565b60405161013c9190610dcf565b60405180910390f35b348015610150575f80fd5b50610159610347565b6040516101669190610de8565b60405180910390f35b34801561017a575f80fd5b5061019560048036038101906101909190610e6a565b61036b565b6040516101a29190610dcf565b60405180910390f35b6101c560048036038101906101c09190610e6a565b61054c565b6040516101d29190610dcf565b60405180910390f35b3480156101e6575f80fd5b5061020160048036038101906101fc9190610e6a565b610778565b60405161020e9190610dcf565b60405180910390f35b348015610222575f80fd5b5061022b610959565b6040516102389190610ed0565b60405180910390f35b34801561024c575f80fd5b5061026760048036038101906102629190610e6a565b610969565b6040516102749190610dcf565b60405180910390f35b5f47905090565b5f60045f8054906101000a900460ff1660ff16146102f1576040518060600160405280603181526020016112d1603191396040517f08c379a00000000000000000000000000000000000000000000000000000000081526004016102e89190610f39565b60405180910390fd5b7ff7f75251dee7d7fc22deac3247729ebe7c86541f35930bf10c2a4207479a3b6c33475f366040516103269493929190610fa3565b60405180910390a13373ffffffffffffffffffffffffffffffffffffffff16ff5b7f000000000000000000000000000000000000000000000000000000000000000081565b5f7f000000000000000000000000000000000000000000000000000000000000000073ffffffffffffffffffffffffffffffffffffffff163373ffffffffffffffffffffffffffffffffffffffff16146103fa576040517f08c379a00000000000000000000000000000000000000000000000000000000081526004016103f19061103e565b60405180910390fd5b60035f8054906101000a900460ff1660ff1614610466576040518060600160405280603181526020016112d1603191396040517f08c379a000000000000000000000000000000000000000000000000000000000815260040161045d9190610f39565b60405180910390fd5b6104a683836040518060400160405280600f81526020017fe4b8bae4babae6b091e69c8de58aa10000000000000000000000000000000000815250610b4a565b6104e5576040517f8b3d2d430000000000000000000000000000000000000000000000000000000081526004016104dc906110a6565b60405180910390fd5b60045f806101000a81548160ff021916908360ff1602179055507ff39143d48d073ee18f9a08fcabdbd340be0b2a698e3e45fc3b4318251131b4fc5f8054906101000a900460ff1660405161053a9190610ed0565b60405180910390a16001905092915050565b5f7f000000000000000000000000000000000000000000000000000000000000000073ffffffffffffffffffffffffffffffffffffffff163373ffffffffffffffffffffffffffffffffffffffff16146105db576040517f08c379a00000000000000000000000000000000000000000000000000000000081526004016105d29061103e565b60405180910390fd5b60025f8054906101000a900460ff1660ff1614610647576040518060600160405280603181526020016112d1603191396040517f08c379a000000000000000000000000000000000000000000000000000000000815260040161063e9190610f39565b60405180910390fd5b61068783836040518060400160405280601281526020017fe5908ce5bf97e4bbace8be9be88ba6e4ba860000000000000000000000000000815250610b4a565b6106c6576040517f8b3d2d430000000000000000000000000000000000000000000000000000000081526004016106bd9061110e565b60405180910390fd5b671bc16d674ec80000341015610711576040517f8b3d2d430000000000000000000000000000000000000000000000000000000081526004016107089061119c565b60405180910390fd5b60035f806101000a81548160ff021916908360ff1602179055507ff39143d48d073ee18f9a08fcabdbd340be0b2a698e3e45fc3b4318251131b4fc5f8054906101000a900460ff166040516107669190610ed0565b60405180910390a16001905092915050565b5f7f000000000000000000000000000000000000000000000000000000000000000073ffffffffffffffffffffffffffffffffffffffff163373ffffffffffffffffffffffffffffffffffffffff1614610807576040517f08c379a00000000000000000000000000000000000000000000000000000000081526004016107fe9061103e565b60405180910390fd5b5f805f9054906101000a900460ff1660ff1614610873576040518060600160405280603181526020016112d1603191396040517f08c379a000000000000000000000000000000000000000000000000000000000815260040161086a9190610f39565b60405180910390fd5b6108b383836040518060400160405280600c81526020017fe5908ce5bf97e4bbace5a5bd0000000000000000000000000000000000000000815250610b4a565b6108f2576040517f8b3d2d430000000000000000000000000000000000000000000000000000000081526004016108e990611204565b60405180910390fd5b60015f806101000a81548160ff021916908360ff1602179055507ff39143d48d073ee18f9a08fcabdbd340be0b2a698e3e45fc3b4318251131b4fc5f8054906101000a900460ff166040516109479190610ed0565b60405180910390a16001905092915050565b5f8054906101000a900460ff1681565b5f7f000000000000000000000000000000000000000000000000000000000000000073ffffffffffffffffffffffffffffffffffffffff163373ffffffffffffffffffffffffffffffffffffffff16146109f8576040517f08c379a00000000000000000000000000000000000000000000000000000000081526004016109ef9061103e565b60405180910390fd5b60015f8054906101000a900460ff1660ff1614610a64576040518060600160405280603181526020016112d1603191396040517f08c379a0000000000000000000000000000000000000000000000000000000008152600401610a5b9190610f39565b60405180910390fd5b610aa483836040518060400160405280600981526020017fe9a286e5afbce5a5bd0000000000000000000000000000000000000000000000815250610b4a565b610ae3576040517f8b3d2d43000000000000000000000000000000000000000000000000000000008152600401610ada9061126c565b60405180910390fd5b60025f806101000a81548160ff021916908360ff1602179055507ff39143d48d073ee18f9a08fcabdbd340be0b2a698e3e45fc3b4318251131b4fc5f8054906101000a900460ff16604051610b389190610ed0565b60405180910390a16001905092915050565b5f81805190602001208484604051602001610b669291906112b8565b604051602081830303815290604052805190602001201490509392505050565b5f82825260208201905092915050565b7f72656365697665000000000000000000000000000000000000000000000000005f82015250565b5f610bca600783610b86565b9150610bd582610b96565b602082019050919050565b5f73ffffffffffffffffffffffffffffffffffffffff82169050919050565b5f610c0982610be0565b9050919050565b610c1981610bff565b82525050565b5f819050919050565b610c3181610c1f565b82525050565b5f82825260208201905092915050565b50565b5f610c555f83610c37565b9150610c6082610c47565b5f82019050919050565b5f6080820190508181035f830152610c8181610bbe565b9050610c906020830185610c10565b610c9d6040830184610c28565b8181036060830152610cae81610c4a565b90509392505050565b7f66616c6c6261636b0000000000000000000000000000000000000000000000005f82015250565b5f610ceb600883610b86565b9150610cf682610cb7565b602082019050919050565b828183375f83830152505050565b5f601f19601f8301169050919050565b5f610d2a8385610c37565b9350610d37838584610d01565b610d4083610d0f565b840190509392505050565b5f6080820190508181035f830152610d6281610cdf565b9050610d716020830187610c10565b610d7e6040830186610c28565b8181036060830152610d91818486610d1f565b905095945050505050565b5f602082019050610daf5f830184610c28565b92915050565b5f8115159050919050565b610dc981610db5565b82525050565b5f602082019050610de25f830184610dc0565b92915050565b5f602082019050610dfb5f830184610c10565b92915050565b5f80fd5b5f80fd5b5f80fd5b5f80fd5b5f80fd5b5f8083601f840112610e2a57610e29610e09565b5b8235905067ffffffffffffffff811115610e4757610e46610e0d565b5b602083019150836001820283011115610e6357610e62610e11565b5b9250929050565b5f8060208385031215610e8057610e7f610e01565b5b5f83013567ffffffffffffffff811115610e9d57610e9c610e05565b5b610ea985828601610e15565b92509250509250929050565b5f60ff82169050919050565b610eca81610eb5565b82525050565b5f602082019050610ee35f830184610ec1565b92915050565b5f81519050919050565b8281835e5f83830152505050565b5f610f0b82610ee9565b610f158185610b86565b9350610f25818560208601610ef3565b610f2e81610d0f565b840191505092915050565b5f6020820190508181035f830152610f518184610f01565b905092915050565b7f64657374727563740000000000000000000000000000000000000000000000005f82015250565b5f610f8d600883610b86565b9150610f9882610f59565b602082019050919050565b5f6080820190508181035f830152610fba81610f81565b9050610fc96020830187610c10565b610fd66040830186610c28565b8181036060830152610fe9818486610d1f565b905095945050505050565b7fe5bf85e9a1bbe9a286e5afbce6898de883bde8afb400000000000000000000005f82015250565b5f611028601583610b86565b915061103382610ff4565b602082019050919050565b5f6020820190508181035f8301526110558161101c565b9050919050565b7fe5bf85e9a1bbe8afb43ae4b8bae4babae6b091e69c8de58aa1000000000000005f82015250565b5f611090601983610b86565b915061109b8261105c565b602082019050919050565b5f6020820190508181035f8301526110bd81611084565b9050919050565b7fe5bf85e9a1bbe8afb43ae5908ce5bf97e4bbace8be9be88ba6e4ba86000000005f82015250565b5f6110f8601c83610b86565b9150611103826110c4565b602082019050919050565b5f6020820190508181035f830152611125816110ec565b9050919050565b7fe7bb99e992b1efbc81efbc81e69c80e5b091e7bb9932e4b8aae4bba5e5a4aae55f8201527fb881efbc81000000000000000000000000000000000000000000000000000000602082015250565b5f611186602583610b86565b91506111918261112c565b604082019050919050565b5f6020820190508181035f8301526111b38161117a565b9050919050565b7fe5bf85e9a1bbe8afb43ae5908ce5bf97e4bbace5a5bd000000000000000000005f82015250565b5f6111ee601683610b86565b91506111f9826111ba565b602082019050919050565b5f6020820190508181035f83015261121b816111e2565b9050919050565b7fe5bf85e9a1bbe8afb43ae9a286e5afbce5a5bd000000000000000000000000005f82015250565b5f611256601383610b86565b915061126182611222565b602082019050919050565b5f6020820190508181035f8301526112838161124a565b9050919050565b5f81905092915050565b5f61129f838561128a565b93506112ac838584610d01565b82840190509392505050565b5f6112c4828486611294565b9150819050939250505056fee68891e4b88de79fa5e98193e5a682e4bd95e5a484e79086e5ae832ce4bda0e689bee69c89e585b3e983a8e997a8e590a7a2646970667358221220b182c7f13e7fd79204322a56fff130912ce10aa456831ec0077374ebe039086b64736f6c634300081a0033",
					"opcodes": "PUSH1 0xA0 PUSH1 0x40 MSTORE PUSH0 DUP1 PUSH0 PUSH2 0x100 EXP DUP2 SLOAD DUP2 PUSH1 0xFF MUL NOT AND SWAP1 DUP4 PUSH1 0xFF AND MUL OR SWAP1 SSTORE POP CALLVALUE DUP1 ISZERO PUSH2 0x28 JUMPI PUSH0 DUP1 REVERT JUMPDEST POP PUSH1 0x40 MLOAD PUSH2 0x155E CODESIZE SUB DUP1 PUSH2 0x155E DUP4 CODECOPY DUP2 DUP2 ADD PUSH1 0x40 MSTORE DUP2 ADD SWAP1 PUSH2 0x4A SWAP2 SWAP1 PUSH2 0x150 JUMP JUMPDEST PUSH0 PUSH20 0xFFFFFFFFFFFFFFFFFFFFFFFFFFFFFFFFFFFFFFFF AND DUP2 PUSH20 0xFFFFFFFFFFFFFFFFFFFFFFFFFFFFFFFFFFFFFFFF AND SUB PUSH2 0xB8 JUMPI PUSH1 0x40 MLOAD PUSH32 0x8C379A000000000000000000000000000000000000000000000000000000000 DUP2 MSTORE PUSH1 0x4 ADD PUSH2 0xAF SWAP1 PUSH2 0x1D5 JUMP JUMPDEST PUSH1 0x40 MLOAD DUP1 SWAP2 SUB SWAP1 REVERT JUMPDEST DUP1 PUSH20 0xFFFFFFFFFFFFFFFFFFFFFFFFFFFFFFFFFFFFFFFF AND PUSH1 0x80 DUP2 PUSH20 0xFFFFFFFFFFFFFFFFFFFFFFFFFFFFFFFFFFFFFFFF AND DUP2 MSTORE POP POP POP PUSH2 0x1F3 JUMP JUMPDEST PUSH0 DUP1 REVERT JUMPDEST PUSH0 PUSH20 0xFFFFFFFFFFFFFFFFFFFFFFFFFFFFFFFFFFFFFFFF DUP3 AND SWAP1 POP SWAP2 SWAP1 POP JUMP JUMPDEST PUSH0 PUSH2 0x11F DUP3 PUSH2 0xF6 JUMP JUMPDEST SWAP1 POP SWAP2 SWAP1 POP JUMP JUMPDEST PUSH2 0x12F DUP2 PUSH2 0x115 JUMP JUMPDEST DUP2 EQ PUSH2 0x139 JUMPI PUSH0 DUP1 REVERT JUMPDEST POP JUMP JUMPDEST PUSH0 DUP2 MLOAD SWAP1 POP PUSH2 0x14A DUP2 PUSH2 0x126 JUMP JUMPDEST SWAP3 SWAP2 POP POP JUMP JUMPDEST PUSH0 PUSH1 0x20 DUP3 DUP5 SUB SLT ISZERO PUSH2 0x165 JUMPI PUSH2 0x164 PUSH2 0xF2 JUMP JUMPDEST JUMPDEST PUSH0 PUSH2 0x172 DUP5 DUP3 DUP6 ADD PUSH2 0x13C JUMP JUMPDEST SWAP2 POP POP SWAP3 SWAP2 POP POP JUMP JUMPDEST PUSH0 DUP3 DUP3 MSTORE PUSH1 0x20 DUP3 ADD SWAP1 POP SWAP3 SWAP2 POP POP JUMP JUMPDEST PUSH32 0x696E76616C696420616464726573730000000000000000000000000000000000 PUSH0 DUP3 ADD MSTORE POP JUMP JUMPDEST PUSH0 PUSH2 0x1BF PUSH1 0xF DUP4 PUSH2 0x17B JUMP JUMPDEST SWAP2 POP PUSH2 0x1CA DUP3 PUSH2 0x18B JUMP JUMPDEST PUSH1 0x20 DUP3 ADD SWAP1 POP SWAP2 SWAP1 POP JUMP JUMPDEST PUSH0 PUSH1 0x20 DUP3 ADD SWAP1 POP DUP2 DUP2 SUB PUSH0 DUP4 ADD MSTORE PUSH2 0x1EC DUP2 PUSH2 0x1B3 JUMP JUMPDEST SWAP1 POP SWAP2 SWAP1 POP JUMP JUMPDEST PUSH1 0x80 MLOAD PUSH2 0x1337 PUSH2 0x227 PUSH0 CODECOPY PUSH0 DUP2 DUP2 PUSH2 0x349 ADD MSTORE DUP2 DUP2 PUSH2 0x36E ADD MSTORE DUP2 DUP2 PUSH2 0x54F ADD MSTORE DUP2 DUP2 PUSH2 0x77B ADD MSTORE PUSH2 0x96C ADD MSTORE PUSH2 0x1337 PUSH0 RETURN INVALID PUSH1 0x80 PUSH1 0x40 MSTORE PUSH1 0x4 CALLDATASIZE LT PUSH2 0x7E JUMPI PUSH0 CALLDATALOAD PUSH1 0xE0 SHR DUP1 PUSH4 0x8C85D679 GT PUSH2 0x4D JUMPI DUP1 PUSH4 0x8C85D679 EQ PUSH2 0x1AB JUMPI DUP1 PUSH4 0xA777D0DC EQ PUSH2 0x1DB JUMPI DUP1 PUSH4 0xE25FE175 EQ PUSH2 0x217 JUMPI DUP1 PUSH4 0xE3B49959 EQ PUSH2 0x241 JUMPI PUSH2 0xBE JUMP JUMPDEST DUP1 PUSH4 0x12065FE0 EQ PUSH2 0xFD JUMPI DUP1 PUSH4 0x2B68B9C6 EQ PUSH2 0x127 JUMPI DUP1 PUSH4 0x40EEDABB EQ PUSH2 0x145 JUMPI DUP1 PUSH4 0x8AB9E66D EQ PUSH2 0x16F JUMPI PUSH2 0xBE JUMP JUMPDEST CALLDATASIZE PUSH2 0xBE JUMPI PUSH32 0xF7F75251DEE7D7FC22DEAC3247729EBE7C86541F35930BF10C2A4207479A3B6C CALLER CALLVALUE PUSH1 0x40 MLOAD PUSH2 0xB4 SWAP3 SWAP2 SWAP1 PUSH2 0xC6A JUMP JUMPDEST PUSH1 0x40 MLOAD DUP1 SWAP2 SUB SWAP1 LOG1 STOP JUMPDEST PUSH32 0xF7F75251DEE7D7FC22DEAC3247729EBE7C86541F35930BF10C2A4207479A3B6C CALLER CALLVALUE PUSH0 CALLDATASIZE PUSH1 0x40 MLOAD PUSH2 0xF3 SWAP5 SWAP4 SWAP3 SWAP2 SWAP1 PUSH2 0xD4B JUMP JUMPDEST PUSH1 0x40 MLOAD DUP1 SWAP2 SUB SWAP1 LOG1 STOP JUMPDEST CALLVALUE DUP1 ISZERO PUSH2 0x108 JUMPI PUSH0 DUP1 REVERT JUMPDEST POP PUSH2 0x111 PUSH2 0x27D JUMP JUMPDEST PUSH1 0x40 MLOAD PUSH2 0x11E SWAP2 SWAP1 PUSH2 0xD9C JUMP JUMPDEST PUSH1 0x40 MLOAD DUP1 SWAP2 SUB SWAP1 RETURN JUMPDEST PUSH2 0x12F PUSH2 0x284 JUMP JUMPDEST PUSH1 0x40 MLOAD PUSH2 0x13C SWAP2 SWAP1 PUSH2 0xDCF JUMP JUMPDEST PUSH1 0x40 MLOAD DUP1 SWAP2 SUB SWAP1 RETURN JUMPDEST CALLVALUE DUP1 ISZERO PUSH2 0x150 JUMPI PUSH0 DUP1 REVERT JUMPDEST POP PUSH2 0x159 PUSH2 0x347 JUMP JUMPDEST PUSH1 0x40 MLOAD PUSH2 0x166 SWAP2 SWAP1 PUSH2 0xDE8 JUMP JUMPDEST PUSH1 0x40 MLOAD DUP1 SWAP2 SUB SWAP1 RETURN JUMPDEST CALLVALUE DUP1 ISZERO PUSH2 0x17A JUMPI PUSH0 DUP1 REVERT JUMPDEST POP PUSH2 0x195 PUSH1 0x4 DUP1 CALLDATASIZE SUB DUP2 ADD SWAP1 PUSH2 0x190 SWAP2 SWAP1 PUSH2 0xE6A JUMP JUMPDEST PUSH2 0x36B JUMP JUMPDEST PUSH1 0x40 MLOAD PUSH2 0x1A2 SWAP2 SWAP1 PUSH2 0xDCF JUMP JUMPDEST PUSH1 0x40 MLOAD DUP1 SWAP2 SUB SWAP1 RETURN JUMPDEST PUSH2 0x1C5 PUSH1 0x4 DUP1 CALLDATASIZE SUB DUP2 ADD SWAP1 PUSH2 0x1C0 SWAP2 SWAP1 PUSH2 0xE6A JUMP JUMPDEST PUSH2 0x54C JUMP JUMPDEST PUSH1 0x40 MLOAD PUSH2 0x1D2 SWAP2 SWAP1 PUSH2 0xDCF JUMP JUMPDEST PUSH1 0x40 MLOAD DUP1 SWAP2 SUB SWAP1 RETURN JUMPDEST CALLVALUE DUP1 ISZERO PUSH2 0x1E6 JUMPI PUSH0 DUP1 REVERT JUMPDEST POP PUSH2 0x201 PUSH1 0x4 DUP1 CALLDATASIZE SUB DUP2 ADD SWAP1 PUSH2 0x1FC SWAP2 SWAP1 PUSH2 0xE6A JUMP JUMPDEST PUSH2 0x778 JUMP JUMPDEST PUSH1 0x40 MLOAD PUSH2 0x20E SWAP2 SWAP1 PUSH2 0xDCF JUMP JUMPDEST PUSH1 0x40 MLOAD DUP1 SWAP2 SUB SWAP1 RETURN JUMPDEST CALLVALUE DUP1 ISZERO PUSH2 0x222 JUMPI PUSH0 DUP1 REVERT JUMPDEST POP PUSH2 0x22B PUSH2 0x959 JUMP JUMPDEST PUSH1 0x40 MLOAD PUSH2 0x238 SWAP2 SWAP1 PUSH2 0xED0 JUMP JUMPDEST PUSH1 0x40 MLOAD DUP1 SWAP2 SUB SWAP1 RETURN JUMPDEST CALLVALUE DUP1 ISZERO PUSH2 0x24C JUMPI PUSH0 DUP1 REVERT JUMPDEST POP PUSH2 0x267 PUSH1 0x4 DUP1 CALLDATASIZE SUB DUP2 ADD SWAP1 PUSH2 0x262 SWAP2 SWAP1 PUSH2 0xE6A JUMP JUMPDEST PUSH2 0x969 JUMP JUMPDEST PUSH1 0x40 MLOAD PUSH2 0x274 SWAP2 SWAP1 PUSH2 0xDCF JUMP JUMPDEST PUSH1 0x40 MLOAD DUP1 SWAP2 SUB SWAP1 RETURN JUMPDEST PUSH0 SELFBALANCE SWAP1 POP SWAP1 JUMP JUMPDEST PUSH0 PUSH1 0x4 PUSH0 DUP1 SLOAD SWAP1 PUSH2 0x100 EXP SWAP1 DIV PUSH1 0xFF AND PUSH1 0xFF AND EQ PUSH2 0x2F1 JUMPI PUSH1 0x40 MLOAD DUP1 PUSH1 0x60 ADD PUSH1 0x40 MSTORE DUP1 PUSH1 0x31 DUP2 MSTORE PUSH1 0x20 ADD PUSH2 0x12D1 PUSH1 0x31 SWAP2 CODECOPY PUSH1 0x40 MLOAD PUSH32 0x8C379A000000000000000000000000000000000000000000000000000000000 DUP2 MSTORE PUSH1 0x4 ADD PUSH2 0x2E8 SWAP2 SWAP1 PUSH2 0xF39 JUMP JUMPDEST PUSH1 0x40 MLOAD DUP1 SWAP2 SUB SWAP1 REVERT JUMPDEST PUSH32 0xF7F75251DEE7D7FC22DEAC3247729EBE7C86541F35930BF10C2A4207479A3B6C CALLER SELFBALANCE PUSH0 CALLDATASIZE PUSH1 0x40 MLOAD PUSH2 0x326 SWAP5 SWAP4 SWAP3 SWAP2 SWAP1 PUSH2 0xFA3 JUMP JUMPDEST PUSH1 0x40 MLOAD DUP1 SWAP2 SUB SWAP1 LOG1 CALLER PUSH20 0xFFFFFFFFFFFFFFFFFFFFFFFFFFFFFFFFFFFFFFFF AND SELFDESTRUCT JUMPDEST PUSH32 0x0 DUP2 JUMP JUMPDEST PUSH0 PUSH32 0x0 PUSH20 0xFFFFFFFFFFFFFFFFFFFFFFFFFFFFFFFFFFFFFFFF AND CALLER PUSH20 0xFFFFFFFFFFFFFFFFFFFFFFFFFFFFFFFFFFFFFFFF AND EQ PUSH2 0x3FA JUMPI PUSH1 0x40 MLOAD PUSH32 0x8C379A000000000000000000000000000000000000000000000000000000000 DUP2 MSTORE PUSH1 0x4 ADD PUSH2 0x3F1 SWAP1 PUSH2 0x103E JUMP JUMPDEST PUSH1 0x40 MLOAD DUP1 SWAP2 SUB SWAP1 REVERT JUMPDEST PUSH1 0x3 PUSH0 DUP1 SLOAD SWAP1 PUSH2 0x100 EXP SWAP1 DIV PUSH1 0xFF AND PUSH1 0xFF AND EQ PUSH2 0x466 JUMPI PUSH1 0x40 MLOAD DUP1 PUSH1 0x60 ADD PUSH1 0x40 MSTORE DUP1 PUSH1 0x31 DUP2 MSTORE PUSH1 0x20 ADD PUSH2 0x12D1 PUSH1 0x31 SWAP2 CODECOPY PUSH1 0x40 MLOAD PUSH32 0x8C379A000000000000000000000000000000000000000000000000000000000 DUP2 MSTORE PUSH1 0x4 ADD PUSH2 0x45D SWAP2 SWAP1 PUSH2 0xF39 JUMP JUMPDEST PUSH1 0x40 MLOAD DUP1 SWAP2 SUB SWAP1 REVERT JUMPDEST PUSH2 0x4A6 DUP4 DUP4 PUSH1 0x40 MLOAD DUP1 PUSH1 0x40 ADD PUSH1 0x40 MSTORE DUP1 PUSH1 0xF DUP2 MSTORE PUSH1 0x20 ADD PUSH32 0xE4B8BAE4BABAE6B091E69C8DE58AA10000000000000000000000000000000000 DUP2 MSTORE POP PUSH2 0xB4A JUMP JUMPDEST PUSH2 0x4E5 JUMPI PUSH1 0x40 MLOAD PUSH32 0x8B3D2D4300000000000000000000000000000000000000000000000000000000 DUP2 MSTORE PUSH1 0x4 ADD PUSH2 0x4DC SWAP1 PUSH2 0x10A6 JUMP JUMPDEST PUSH1 0x40 MLOAD DUP1 SWAP2 SUB SWAP1 REVERT JUMPDEST PUSH1 0x4 PUSH0 DUP1 PUSH2 0x100 EXP DUP2 SLOAD DUP2 PUSH1 0xFF MUL NOT AND SWAP1 DUP4 PUSH1 0xFF AND MUL OR SWAP1 SSTORE POP PUSH32 0xF39143D48D073EE18F9A08FCABDBD340BE0B2A698E3E45FC3B4318251131B4FC PUSH0 DUP1 SLOAD SWAP1 PUSH2 0x100 EXP SWAP1 DIV PUSH1 0xFF AND PUSH1 0x40 MLOAD PUSH2 0x53A SWAP2 SWAP1 PUSH2 0xED0 JUMP JUMPDEST PUSH1 0x40 MLOAD DUP1 SWAP2 SUB SWAP1 LOG1 PUSH1 0x1 SWAP1 POP SWAP3 SWAP2 POP POP JUMP JUMPDEST PUSH0 PUSH32 0x0 PUSH20 0xFFFFFFFFFFFFFFFFFFFFFFFFFFFFFFFFFFFFFFFF AND CALLER PUSH20 0xFFFFFFFFFFFFFFFFFFFFFFFFFFFFFFFFFFFFFFFF AND EQ PUSH2 0x5DB JUMPI PUSH1 0x40 MLOAD PUSH32 0x8C379A000000000000000000000000000000000000000000000000000000000 DUP2 MSTORE PUSH1 0x4 ADD PUSH2 0x5D2 SWAP1 PUSH2 0x103E JUMP JUMPDEST PUSH1 0x40 MLOAD DUP1 SWAP2 SUB SWAP1 REVERT JUMPDEST PUSH1 0x2 PUSH0 DUP1 SLOAD SWAP1 PUSH2 0x100 EXP SWAP1 DIV PUSH1 0xFF AND PUSH1 0xFF AND EQ PUSH2 0x647 JUMPI PUSH1 0x40 MLOAD DUP1 PUSH1 0x60 ADD PUSH1 0x40 MSTORE DUP1 PUSH1 0x31 DUP2 MSTORE PUSH1 0x20 ADD PUSH2 0x12D1 PUSH1 0x31 SWAP2 CODECOPY PUSH1 0x40 MLOAD PUSH32 0x8C379A000000000000000000000000000000000000000000000000000000000 DUP2 MSTORE PUSH1 0x4 ADD PUSH2 0x63E SWAP2 SWAP1 PUSH2 0xF39 JUMP JUMPDEST PUSH1 0x40 MLOAD DUP1 SWAP2 SUB SWAP1 REVERT JUMPDEST PUSH2 0x687 DUP4 DUP4 PUSH1 0x40 MLOAD DUP1 PUSH1 0x40 ADD PUSH1 0x40 MSTORE DUP1 PUSH1 0x12 DUP2 MSTORE PUSH1 0x20 ADD PUSH32 0xE5908CE5BF97E4BBACE8BE9BE88BA6E4BA860000000000000000000000000000 DUP2 MSTORE POP PUSH2 0xB4A JUMP JUMPDEST PUSH2 0x6C6 JUMPI PUSH1 0x40 MLOAD PUSH32 0x8B3D2D4300000000000000000000000000000000000000000000000000000000 DUP2 MSTORE PUSH1 0x4 ADD PUSH2 0x6BD SWAP1 PUSH2 0x110E JUMP JUMPDEST PUSH1 0x40 MLOAD DUP1 SWAP2 SUB SWAP1 REVERT JUMPDEST PUSH8 0x1BC16D674EC80000 CALLVALUE LT ISZERO PUSH2 0x711 JUMPI PUSH1 0x40 MLOAD PUSH32 0x8B3D2D4300000000000000000000000000000000000000000000000000000000 DUP2 MSTORE PUSH1 0x4 ADD PUSH2 0x708 SWAP1 PUSH2 0x119C JUMP JUMPDEST PUSH1 0x40 MLOAD DUP1 SWAP2 SUB SWAP1 REVERT JUMPDEST PUSH1 0x3 PUSH0 DUP1 PUSH2 0x100 EXP DUP2 SLOAD DUP2 PUSH1 0xFF MUL NOT AND SWAP1 DUP4 PUSH1 0xFF AND MUL OR SWAP1 SSTORE POP PUSH32 0xF39143D48D073EE18F9A08FCABDBD340BE0B2A698E3E45FC3B4318251131B4FC PUSH0 DUP1 SLOAD SWAP1 PUSH2 0x100 EXP SWAP1 DIV PUSH1 0xFF AND PUSH1 0x40 MLOAD PUSH2 0x766 SWAP2 SWAP1 PUSH2 0xED0 JUMP JUMPDEST PUSH1 0x40 MLOAD DUP1 SWAP2 SUB SWAP1 LOG1 PUSH1 0x1 SWAP1 POP SWAP3 SWAP2 POP POP JUMP JUMPDEST PUSH0 PUSH32 0x0 PUSH20 0xFFFFFFFFFFFFFFFFFFFFFFFFFFFFFFFFFFFFFFFF AND CALLER PUSH20 0xFFFFFFFFFFFFFFFFFFFFFFFFFFFFFFFFFFFFFFFF AND EQ PUSH2 0x807 JUMPI PUSH1 0x40 MLOAD PUSH32 0x8C379A000000000000000000000000000000000000000000000000000000000 DUP2 MSTORE PUSH1 0x4 ADD PUSH2 0x7FE SWAP1 PUSH2 0x103E JUMP JUMPDEST PUSH1 0x40 MLOAD DUP1 SWAP2 SUB SWAP1 REVERT JUMPDEST PUSH0 DUP1 PUSH0 SWAP1 SLOAD SWAP1 PUSH2 0x100 EXP SWAP1 DIV PUSH1 0xFF AND PUSH1 0xFF AND EQ PUSH2 0x873 JUMPI PUSH1 0x40 MLOAD DUP1 PUSH1 0x60 ADD PUSH1 0x40 MSTORE DUP1 PUSH1 0x31 DUP2 MSTORE PUSH1 0x20 ADD PUSH2 0x12D1 PUSH1 0x31 SWAP2 CODECOPY PUSH1 0x40 MLOAD PUSH32 0x8C379A000000000000000000000000000000000000000000000000000000000 DUP2 MSTORE PUSH1 0x4 ADD PUSH2 0x86A SWAP2 SWAP1 PUSH2 0xF39 JUMP JUMPDEST PUSH1 0x40 MLOAD DUP1 SWAP2 SUB SWAP1 REVERT JUMPDEST PUSH2 0x8B3 DUP4 DUP4 PUSH1 0x40 MLOAD DUP1 PUSH1 0x40 ADD PUSH1 0x40 MSTORE DUP1 PUSH1 0xC DUP2 MSTORE PUSH1 0x20 ADD PUSH32 0xE5908CE5BF97E4BBACE5A5BD0000000000000000000000000000000000000000 DUP2 MSTORE POP PUSH2 0xB4A JUMP JUMPDEST PUSH2 0x8F2 JUMPI PUSH1 0x40 MLOAD PUSH32 0x8B3D2D4300000000000000000000000000000000000000000000000000000000 DUP2 MSTORE PUSH1 0x4 ADD PUSH2 0x8E9 SWAP1 PUSH2 0x1204 JUMP JUMPDEST PUSH1 0x40 MLOAD DUP1 SWAP2 SUB SWAP1 REVERT JUMPDEST PUSH1 0x1 PUSH0 DUP1 PUSH2 0x100 EXP DUP2 SLOAD DUP2 PUSH1 0xFF MUL NOT AND SWAP1 DUP4 PUSH1 0xFF AND MUL OR SWAP1 SSTORE POP PUSH32 0xF39143D48D073EE18F9A08FCABDBD340BE0B2A698E3E45FC3B4318251131B4FC PUSH0 DUP1 SLOAD SWAP1 PUSH2 0x100 EXP SWAP1 DIV PUSH1 0xFF AND PUSH1 0x40 MLOAD PUSH2 0x947 SWAP2 SWAP1 PUSH2 0xED0 JUMP JUMPDEST PUSH1 0x40 MLOAD DUP1 SWAP2 SUB SWAP1 LOG1 PUSH1 0x1 SWAP1 POP SWAP3 SWAP2 POP POP JUMP JUMPDEST PUSH0 DUP1 SLOAD SWAP1 PUSH2 0x100 EXP SWAP1 DIV PUSH1 0xFF AND DUP2 JUMP JUMPDEST PUSH0 PUSH32 0x0 PUSH20 0xFFFFFFFFFFFFFFFFFFFFFFFFFFFFFFFFFFFFFFFF AND CALLER PUSH20 0xFFFFFFFFFFFFFFFFFFFFFFFFFFFFFFFFFFFFFFFF AND EQ PUSH2 0x9F8 JUMPI PUSH1 0x40 MLOAD PUSH32 0x8C379A000000000000000000000000000000000000000000000000000000000 DUP2 MSTORE PUSH1 0x4 ADD PUSH2 0x9EF SWAP1 PUSH2 0x103E JUMP JUMPDEST PUSH1 0x40 MLOAD DUP1 SWAP2 SUB SWAP1 REVERT JUMPDEST PUSH1 0x1 PUSH0 DUP1 SLOAD SWAP1 PUSH2 0x100 EXP SWAP1 DIV PUSH1 0xFF AND PUSH1 0xFF AND EQ PUSH2 0xA64 JUMPI PUSH1 0x40 MLOAD DUP1 PUSH1 0x60 ADD PUSH1 0x40 MSTORE DUP1 PUSH1 0x31 DUP2 MSTORE PUSH1 0x20 ADD PUSH2 0x12D1 PUSH1 0x31 SWAP2 CODECOPY PUSH1 0x40 MLOAD PUSH32 0x8C379A000000000000000000000000000000000000000000000000000000000 DUP2 MSTORE PUSH1 0x4 ADD PUSH2 0xA5B SWAP2 SWAP1 PUSH2 0xF39 JUMP JUMPDEST PUSH1 0x40 MLOAD DUP1 SWAP2 SUB SWAP1 REVERT JUMPDEST PUSH2 0xAA4 DUP4 DUP4 PUSH1 0x40 MLOAD DUP1 PUSH1 0x40 ADD PUSH1 0x40 MSTORE DUP1 PUSH1 0x9 DUP2 MSTORE PUSH1 0x20 ADD PUSH32 0xE9A286E5AFBCE5A5BD0000000000000000000000000000000000000000000000 DUP2 MSTORE POP PUSH2 0xB4A JUMP JUMPDEST PUSH2 0xAE3 JUMPI PUSH1 0x40 MLOAD PUSH32 0x8B3D2D4300000000000000000000000000000000000000000000000000000000 DUP2 MSTORE PUSH1 0x4 ADD PUSH2 0xADA SWAP1 PUSH2 0x126C JUMP JUMPDEST PUSH1 0x40 MLOAD DUP1 SWAP2 SUB SWAP1 REVERT JUMPDEST PUSH1 0x2 PUSH0 DUP1 PUSH2 0x100 EXP DUP2 SLOAD DUP2 PUSH1 0xFF MUL NOT AND SWAP1 DUP4 PUSH1 0xFF AND MUL OR SWAP1 SSTORE POP PUSH32 0xF39143D48D073EE18F9A08FCABDBD340BE0B2A698E3E45FC3B4318251131B4FC PUSH0 DUP1 SLOAD SWAP1 PUSH2 0x100 EXP SWAP1 DIV PUSH1 0xFF AND PUSH1 0x40 MLOAD PUSH2 0xB38 SWAP2 SWAP1 PUSH2 0xED0 JUMP JUMPDEST PUSH1 0x40 MLOAD DUP1 SWAP2 SUB SWAP1 LOG1 PUSH1 0x1 SWAP1 POP SWAP3 SWAP2 POP POP JUMP JUMPDEST PUSH0 DUP2 DUP1 MLOAD SWAP1 PUSH1 0x20 ADD KECCAK256 DUP5 DUP5 PUSH1 0x40 MLOAD PUSH1 0x20 ADD PUSH2 0xB66 SWAP3 SWAP2 SWAP1 PUSH2 0x12B8 JUMP JUMPDEST PUSH1 0x40 MLOAD PUSH1 0x20 DUP2 DUP4 SUB SUB DUP2 MSTORE SWAP1 PUSH1 0x40 MSTORE DUP1 MLOAD SWAP1 PUSH1 0x20 ADD KECCAK256 EQ SWAP1 POP SWAP4 SWAP3 POP POP POP JUMP JUMPDEST PUSH0 DUP3 DUP3 MSTORE PUSH1 0x20 DUP3 ADD SWAP1 POP SWAP3 SWAP2 POP POP JUMP JUMPDEST PUSH32 0x7265636569766500000000000000000000000000000000000000000000000000 PUSH0 DUP3 ADD MSTORE POP JUMP JUMPDEST PUSH0 PUSH2 0xBCA PUSH1 0x7 DUP4 PUSH2 0xB86 JUMP JUMPDEST SWAP2 POP PUSH2 0xBD5 DUP3 PUSH2 0xB96 JUMP JUMPDEST PUSH1 0x20 DUP3 ADD SWAP1 POP SWAP2 SWAP1 POP JUMP JUMPDEST PUSH0 PUSH20 0xFFFFFFFFFFFFFFFFFFFFFFFFFFFFFFFFFFFFFFFF DUP3 AND SWAP1 POP SWAP2 SWAP1 POP JUMP JUMPDEST PUSH0 PUSH2 0xC09 DUP3 PUSH2 0xBE0 JUMP JUMPDEST SWAP1 POP SWAP2 SWAP1 POP JUMP JUMPDEST PUSH2 0xC19 DUP2 PUSH2 0xBFF JUMP JUMPDEST DUP3 MSTORE POP POP JUMP JUMPDEST PUSH0 DUP2 SWAP1 POP SWAP2 SWAP1 POP JUMP JUMPDEST PUSH2 0xC31 DUP2 PUSH2 0xC1F JUMP JUMPDEST DUP3 MSTORE POP POP JUMP JUMPDEST PUSH0 DUP3 DUP3 MSTORE PUSH1 0x20 DUP3 ADD SWAP1 POP SWAP3 SWAP2 POP POP JUMP JUMPDEST POP JUMP JUMPDEST PUSH0 PUSH2 0xC55 PUSH0 DUP4 PUSH2 0xC37 JUMP JUMPDEST SWAP2 POP PUSH2 0xC60 DUP3 PUSH2 0xC47 JUMP JUMPDEST PUSH0 DUP3 ADD SWAP1 POP SWAP2 SWAP1 POP JUMP JUMPDEST PUSH0 PUSH1 0x80 DUP3 ADD SWAP1 POP DUP2 DUP2 SUB PUSH0 DUP4 ADD MSTORE PUSH2 0xC81 DUP2 PUSH2 0xBBE JUMP JUMPDEST SWAP1 POP PUSH2 0xC90 PUSH1 0x20 DUP4 ADD DUP6 PUSH2 0xC10 JUMP JUMPDEST PUSH2 0xC9D PUSH1 0x40 DUP4 ADD DUP5 PUSH2 0xC28 JUMP JUMPDEST DUP2 DUP2 SUB PUSH1 0x60 DUP4 ADD MSTORE PUSH2 0xCAE DUP2 PUSH2 0xC4A JUMP JUMPDEST SWAP1 POP SWAP4 SWAP3 POP POP POP JUMP JUMPDEST PUSH32 0x66616C6C6261636B000000000000000000000000000000000000000000000000 PUSH0 DUP3 ADD MSTORE POP JUMP JUMPDEST PUSH0 PUSH2 0xCEB PUSH1 0x8 DUP4 PUSH2 0xB86 JUMP JUMPDEST SWAP2 POP PUSH2 0xCF6 DUP3 PUSH2 0xCB7 JUMP JUMPDEST PUSH1 0x20 DUP3 ADD SWAP1 POP SWAP2 SWAP1 POP JUMP JUMPDEST DUP3 DUP2 DUP4 CALLDATACOPY PUSH0 DUP4 DUP4 ADD MSTORE POP POP POP JUMP JUMPDEST PUSH0 PUSH1 0x1F NOT PUSH1 0x1F DUP4 ADD AND SWAP1 POP SWAP2 SWAP1 POP JUMP JUMPDEST PUSH0 PUSH2 0xD2A DUP4 DUP6 PUSH2 0xC37 JUMP JUMPDEST SWAP4 POP PUSH2 0xD37 DUP4 DUP6 DUP5 PUSH2 0xD01 JUMP JUMPDEST PUSH2 0xD40 DUP4 PUSH2 0xD0F JUMP JUMPDEST DUP5 ADD SWAP1 POP SWAP4 SWAP3 POP POP POP JUMP JUMPDEST PUSH0 PUSH1 0x80 DUP3 ADD SWAP1 POP DUP2 DUP2 SUB PUSH0 DUP4 ADD MSTORE PUSH2 0xD62 DUP2 PUSH2 0xCDF JUMP JUMPDEST SWAP1 POP PUSH2 0xD71 PUSH1 0x20 DUP4 ADD DUP8 PUSH2 0xC10 JUMP JUMPDEST PUSH2 0xD7E PUSH1 0x40 DUP4 ADD DUP7 PUSH2 0xC28 JUMP JUMPDEST DUP2 DUP2 SUB PUSH1 0x60 DUP4 ADD MSTORE PUSH2 0xD91 DUP2 DUP5 DUP7 PUSH2 0xD1F JUMP JUMPDEST SWAP1 POP SWAP6 SWAP5 POP POP POP POP POP JUMP JUMPDEST PUSH0 PUSH1 0x20 DUP3 ADD SWAP1 POP PUSH2 0xDAF PUSH0 DUP4 ADD DUP5 PUSH2 0xC28 JUMP JUMPDEST SWAP3 SWAP2 POP POP JUMP JUMPDEST PUSH0 DUP2 ISZERO ISZERO SWAP1 POP SWAP2 SWAP1 POP JUMP JUMPDEST PUSH2 0xDC9 DUP2 PUSH2 0xDB5 JUMP JUMPDEST DUP3 MSTORE POP POP JUMP JUMPDEST PUSH0 PUSH1 0x20 DUP3 ADD SWAP1 POP PUSH2 0xDE2 PUSH0 DUP4 ADD DUP5 PUSH2 0xDC0 JUMP JUMPDEST SWAP3 SWAP2 POP POP JUMP JUMPDEST PUSH0 PUSH1 0x20 DUP3 ADD SWAP1 POP PUSH2 0xDFB PUSH0 DUP4 ADD DUP5 PUSH2 0xC10 JUMP JUMPDEST SWAP3 SWAP2 POP POP JUMP JUMPDEST PUSH0 DUP1 REVERT JUMPDEST PUSH0 DUP1 REVERT JUMPDEST PUSH0 DUP1 REVERT JUMPDEST PUSH0 DUP1 REVERT JUMPDEST PUSH0 DUP1 REVERT JUMPDEST PUSH0 DUP1 DUP4 PUSH1 0x1F DUP5 ADD SLT PUSH2 0xE2A JUMPI PUSH2 0xE29 PUSH2 0xE09 JUMP JUMPDEST JUMPDEST DUP3 CALLDATALOAD SWAP1 POP PUSH8 0xFFFFFFFFFFFFFFFF DUP2 GT ISZERO PUSH2 0xE47 JUMPI PUSH2 0xE46 PUSH2 0xE0D JUMP JUMPDEST JUMPDEST PUSH1 0x20 DUP4 ADD SWAP2 POP DUP4 PUSH1 0x1 DUP3 MUL DUP4 ADD GT ISZERO PUSH2 0xE63 JUMPI PUSH2 0xE62 PUSH2 0xE11 JUMP JUMPDEST JUMPDEST SWAP3 POP SWAP3 SWAP1 POP JUMP JUMPDEST PUSH0 DUP1 PUSH1 0x20 DUP4 DUP6 SUB SLT ISZERO PUSH2 0xE80 JUMPI PUSH2 0xE7F PUSH2 0xE01 JUMP JUMPDEST JUMPDEST PUSH0 DUP4 ADD CALLDATALOAD PUSH8 0xFFFFFFFFFFFFFFFF DUP2 GT ISZERO PUSH2 0xE9D JUMPI PUSH2 0xE9C PUSH2 0xE05 JUMP JUMPDEST JUMPDEST PUSH2 0xEA9 DUP6 DUP3 DUP7 ADD PUSH2 0xE15 JUMP JUMPDEST SWAP3 POP SWAP3 POP POP SWAP3 POP SWAP3 SWAP1 POP JUMP JUMPDEST PUSH0 PUSH1 0xFF DUP3 AND SWAP1 POP SWAP2 SWAP1 POP JUMP JUMPDEST PUSH2 0xECA DUP2 PUSH2 0xEB5 JUMP JUMPDEST DUP3 MSTORE POP POP JUMP JUMPDEST PUSH0 PUSH1 0x20 DUP3 ADD SWAP1 POP PUSH2 0xEE3 PUSH0 DUP4 ADD DUP5 PUSH2 0xEC1 JUMP JUMPDEST SWAP3 SWAP2 POP POP JUMP JUMPDEST PUSH0 DUP2 MLOAD SWAP1 POP SWAP2 SWAP1 POP JUMP JUMPDEST DUP3 DUP2 DUP4 MCOPY PUSH0 DUP4 DUP4 ADD MSTORE POP POP POP JUMP JUMPDEST PUSH0 PUSH2 0xF0B DUP3 PUSH2 0xEE9 JUMP JUMPDEST PUSH2 0xF15 DUP2 DUP6 PUSH2 0xB86 JUMP JUMPDEST SWAP4 POP PUSH2 0xF25 DUP2 DUP6 PUSH1 0x20 DUP7 ADD PUSH2 0xEF3 JUMP JUMPDEST PUSH2 0xF2E DUP2 PUSH2 0xD0F JUMP JUMPDEST DUP5 ADD SWAP2 POP POP SWAP3 SWAP2 POP POP JUMP JUMPDEST PUSH0 PUSH1 0x20 DUP3 ADD SWAP1 POP DUP2 DUP2 SUB PUSH0 DUP4 ADD MSTORE PUSH2 0xF51 DUP2 DUP5 PUSH2 0xF01 JUMP JUMPDEST SWAP1 POP SWAP3 SWAP2 POP POP JUMP JUMPDEST PUSH32 0x6465737472756374000000000000000000000000000000000000000000000000 PUSH0 DUP3 ADD MSTORE POP JUMP JUMPDEST PUSH0 PUSH2 0xF8D PUSH1 0x8 DUP4 PUSH2 0xB86 JUMP JUMPDEST SWAP2 POP PUSH2 0xF98 DUP3 PUSH2 0xF59 JUMP JUMPDEST PUSH1 0x20 DUP3 ADD SWAP1 POP SWAP2 SWAP1 POP JUMP JUMPDEST PUSH0 PUSH1 0x80 DUP3 ADD SWAP1 POP DUP2 DUP2 SUB PUSH0 DUP4 ADD MSTORE PUSH2 0xFBA DUP2 PUSH2 0xF81 JUMP JUMPDEST SWAP1 POP PUSH2 0xFC9 PUSH1 0x20 DUP4 ADD DUP8 PUSH2 0xC10 JUMP JUMPDEST PUSH2 0xFD6 PUSH1 0x40 DUP4 ADD DUP7 PUSH2 0xC28 JUMP JUMPDEST DUP2 DUP2 SUB PUSH1 0x60 DUP4 ADD MSTORE PUSH2 0xFE9 DUP2 DUP5 DUP7 PUSH2 0xD1F JUMP JUMPDEST SWAP1 POP SWAP6 SWAP5 POP POP POP POP POP JUMP JUMPDEST PUSH32 0xE5BF85E9A1BBE9A286E5AFBCE6898DE883BDE8AFB40000000000000000000000 PUSH0 DUP3 ADD MSTORE POP JUMP JUMPDEST PUSH0 PUSH2 0x1028 PUSH1 0x15 DUP4 PUSH2 0xB86 JUMP JUMPDEST SWAP2 POP PUSH2 0x1033 DUP3 PUSH2 0xFF4 JUMP JUMPDEST PUSH1 0x20 DUP3 ADD SWAP1 POP SWAP2 SWAP1 POP JUMP JUMPDEST PUSH0 PUSH1 0x20 DUP3 ADD SWAP1 POP DUP2 DUP2 SUB PUSH0 DUP4 ADD MSTORE PUSH2 0x1055 DUP2 PUSH2 0x101C JUMP JUMPDEST SWAP1 POP SWAP2 SWAP1 POP JUMP JUMPDEST PUSH32 0xE5BF85E9A1BBE8AFB43AE4B8BAE4BABAE6B091E69C8DE58AA100000000000000 PUSH0 DUP3 ADD MSTORE POP JUMP JUMPDEST PUSH0 PUSH2 0x1090 PUSH1 0x19 DUP4 PUSH2 0xB86 JUMP JUMPDEST SWAP2 POP PUSH2 0x109B DUP3 PUSH2 0x105C JUMP JUMPDEST PUSH1 0x20 DUP3 ADD SWAP1 POP SWAP2 SWAP1 POP JUMP JUMPDEST PUSH0 PUSH1 0x20 DUP3 ADD SWAP1 POP DUP2 DUP2 SUB PUSH0 DUP4 ADD MSTORE PUSH2 0x10BD DUP2 PUSH2 0x1084 JUMP JUMPDEST SWAP1 POP SWAP2 SWAP1 POP JUMP JUMPDEST PUSH32 0xE5BF85E9A1BBE8AFB43AE5908CE5BF97E4BBACE8BE9BE88BA6E4BA8600000000 PUSH0 DUP3 ADD MSTORE POP JUMP JUMPDEST PUSH0 PUSH2 0x10F8 PUSH1 0x1C DUP4 PUSH2 0xB86 JUMP JUMPDEST SWAP2 POP PUSH2 0x1103 DUP3 PUSH2 0x10C4 JUMP JUMPDEST PUSH1 0x20 DUP3 ADD SWAP1 POP SWAP2 SWAP1 POP JUMP JUMPDEST PUSH0 PUSH1 0x20 DUP3 ADD SWAP1 POP DUP2 DUP2 SUB PUSH0 DUP4 ADD MSTORE PUSH2 0x1125 DUP2 PUSH2 0x10EC JUMP JUMPDEST SWAP1 POP SWAP2 SWAP1 POP JUMP JUMPDEST PUSH32 0xE7BB99E992B1EFBC81EFBC81E69C80E5B091E7BB9932E4B8AAE4BBA5E5A4AAE5 PUSH0 DUP3 ADD MSTORE PUSH32 0xB881EFBC81000000000000000000000000000000000000000000000000000000 PUSH1 0x20 DUP3 ADD MSTORE POP JUMP JUMPDEST PUSH0 PUSH2 0x1186 PUSH1 0x25 DUP4 PUSH2 0xB86 JUMP JUMPDEST SWAP2 POP PUSH2 0x1191 DUP3 PUSH2 0x112C JUMP JUMPDEST PUSH1 0x40 DUP3 ADD SWAP1 POP SWAP2 SWAP1 POP JUMP JUMPDEST PUSH0 PUSH1 0x20 DUP3 ADD SWAP1 POP DUP2 DUP2 SUB PUSH0 DUP4 ADD MSTORE PUSH2 0x11B3 DUP2 PUSH2 0x117A JUMP JUMPDEST SWAP1 POP SWAP2 SWAP1 POP JUMP JUMPDEST PUSH32 0xE5BF85E9A1BBE8AFB43AE5908CE5BF97E4BBACE5A5BD00000000000000000000 PUSH0 DUP3 ADD MSTORE POP JUMP JUMPDEST PUSH0 PUSH2 0x11EE PUSH1 0x16 DUP4 PUSH2 0xB86 JUMP JUMPDEST SWAP2 POP PUSH2 0x11F9 DUP3 PUSH2 0x11BA JUMP JUMPDEST PUSH1 0x20 DUP3 ADD SWAP1 POP SWAP2 SWAP1 POP JUMP JUMPDEST PUSH0 PUSH1 0x20 DUP3 ADD SWAP1 POP DUP2 DUP2 SUB PUSH0 DUP4 ADD MSTORE PUSH2 0x121B DUP2 PUSH2 0x11E2 JUMP JUMPDEST SWAP1 POP SWAP2 SWAP1 POP JUMP JUMPDEST PUSH32 0xE5BF85E9A1BBE8AFB43AE9A286E5AFBCE5A5BD00000000000000000000000000 PUSH0 DUP3 ADD MSTORE POP JUMP JUMPDEST PUSH0 PUSH2 0x1256 PUSH1 0x13 DUP4 PUSH2 0xB86 JUMP JUMPDEST SWAP2 POP PUSH2 0x1261 DUP3 PUSH2 0x1222 JUMP JUMPDEST PUSH1 0x20 DUP3 ADD SWAP1 POP SWAP2 SWAP1 POP JUMP JUMPDEST PUSH0 PUSH1 0x20 DUP3 ADD SWAP1 POP DUP2 DUP2 SUB PUSH0 DUP4 ADD MSTORE PUSH2 0x1283 DUP2 PUSH2 0x124A JUMP JUMPDEST SWAP1 POP SWAP2 SWAP1 POP JUMP JUMPDEST PUSH0 DUP2 SWAP1 POP SWAP3 SWAP2 POP POP JUMP JUMPDEST PUSH0 PUSH2 0x129F DUP4 DUP6 PUSH2 0x128A JUMP JUMPDEST SWAP4 POP PUSH2 0x12AC DUP4 DUP6 DUP5 PUSH2 0xD01 JUMP JUMPDEST DUP3 DUP5 ADD SWAP1 POP SWAP4 SWAP3 POP POP POP JUMP JUMPDEST PUSH0 PUSH2 0x12C4 DUP3 DUP5 DUP7 PUSH2 0x1294 JUMP JUMPDEST SWAP2 POP DUP2 SWAP1 POP SWAP4 SWAP3 POP POP POP JUMP INVALID 0xE6 DUP9 SWAP2 0xE4 0xB8 DUP14 0xE7 SWAP16 0xA5 0xE9 DUP2 SWAP4 0xE5 0xA6 DUP3 0xE4 0xBD SWAP6 0xE5 LOG4 DUP5 0xE7 SWAP1 DUP7 0xE5 0xAE DUP4 0x2C 0xE4 0xBD LOG0 0xE6 DUP10 0xBE 0xE6 SWAP13 DUP10 0xE5 DUP6 0xB3 0xE9 DUP4 0xA8 0xE9 SWAP8 0xA8 0xE5 SWAP1 0xA7 LOG2 PUSH5 0x6970667358 0x22 SLT KECCAK256 0xB1 DUP3 0xC7 CALL RETURNDATACOPY PUSH32 0xD79204322A56FFF130912CE10AA456831EC0077374EBE039086B64736F6C6343 STOP ADDMOD BYTE STOP CALLER "
				},
				"gasEstimates": {
					"creation": {
						"codeDepositCost": "983800",
						"executionCost": "infinite",
						"totalCost": "infinite"
					},
					"external": {
						"": "infinite",
						"comfort(string)": "infinite",
						"comfortRes(string)": "infinite",
						"destruct()": "infinite",
						"getBalance()": "335",
						"hello(string)": "infinite",
						"helloRes(string)": "infinite",
						"leader()": "infinite",
						"step()": "2507"
					},
					"internal": {
						"review(string calldata,bytes memory)": "infinite"
					}
				},
				"methodIdentifiers": {
					"comfort(string)": "8c85d679",
					"comfortRes(string)": "8ab9e66d",
					"destruct()": "2b68b9c6",
					"getBalance()": "12065fe0",
					"hello(string)": "a777d0dc",
					"helloRes(string)": "e3b49959",
					"leader()": "40eedabb",
					"step()": "e25fe175"
				}
			},
			"storageLayout": {
				"storage": [
					{
						"astId": 4,
						"contract": "contracts/Demo.sol:HelloComrades",
						"label": "step",
						"offset": 0,
						"slot": "0",
						"type": "t_uint8"
					}
				],
				"types": {
					"t_uint8": {
						"encoding": "inplace",
						"label": "uint8",
						"numberOfBytes": "1"
					}
				}
			},
			"userdoc": {
				"errors": {
					"MyError(string)": [
						{
							"notice": "这是一个自定义错误，上方需要空一行"
						}
					]
				},
				"kind": "user",
				"methods": {},
				"version": 1
			}
		}
	}
}