{
	"contracts/Test.sol": {
		"Marketplace": {
			"abi": [
				{
					"inputs": [],
					"stateMutability": "nonpayable",
					"type": "constructor"
				},
				{
					"anonymous": false,
					"inputs": [
						{
							"indexed": false,
							"internalType": "address",
							"name": "seller",
							"type": "address"
						},
						{
							"indexed": false,
							"internalType": "uint256",
							"name": "price",
							"type": "uint256"
						}
					],
					"name": "ListItem",
					"type": "event"
				},
				{
					"anonymous": false,
					"inputs": [
						{
							"indexed": false,
							"internalType": "address",
							"name": "seller",
							"type": "address"
						},
						{
							"indexed": false,
							"internalType": "address",
							"name": "buyer",
							"type": "address"
						},
						{
							"indexed": false,
							"internalType": "uint256",
							"name": "price",
							"type": "uint256"
						}
					],
					"name": "PurchasedItem",
					"type": "event"
				},
				{
					"inputs": [],
					"name": "State",
					"outputs": [
						{
							"internalType": "enum Marketplace.StateType",
							"name": "",
							"type": "uint8"
						}
					],
					"stateMutability": "view",
					"type": "function"
				},
				{
					"inputs": [
						{
							"internalType": "address",
							"name": "",
							"type": "address"
						}
					],
					"name": "balances",
					"outputs": [
						{
							"internalType": "uint256",
							"name": "",
							"type": "uint256"
						}
					],
					"stateMutability": "view",
					"type": "function"
				},
				{
					"inputs": [
						{
							"internalType": "address",
							"name": "seller",
							"type": "address"
						},
						{
							"internalType": "address",
							"name": "buyer",
							"type": "address"
						},
						{
							"internalType": "uint256",
							"name": "price",
							"type": "uint256"
						}
					],
					"name": "buy",
					"outputs": [],
					"stateMutability": "payable",
					"type": "function"
				},
				{
					"inputs": [],
					"name": "buyer",
					"outputs": [
						{
							"internalType": "address",
							"name": "",
							"type": "address"
						}
					],
					"stateMutability": "view",
					"type": "function"
				},
				{
					"inputs": [],
					"name": "seller",
					"outputs": [
						{
							"internalType": "address",
							"name": "",
							"type": "address"
						}
					],
					"stateMutability": "view",
					"type": "function"
				}
			],
			"devdoc": {
				"kind": "dev",
				"methods": {},
				"version": 1
			},
			"evm": {
				"assembly": "    /* \"contracts/Test.sol\":67:862  contract Marketplace {... */\n  mstore(0x40, 0x80)\n    /* \"contracts/Test.sol\":433:534  constructor() public {... */\n  callvalue\n  dup1\n  iszero\n  tag_1\n  jumpi\n  0x00\n  dup1\n  revert\ntag_1:\n  pop\n    /* \"contracts/Test.sol\":474:484  msg.sender */\n  caller\n    /* \"contracts/Test.sol\":465:471  seller */\n  0x00\n  dup1\n    /* \"contracts/Test.sol\":465:484  seller = msg.sender */\n  0x0100\n  exp\n  dup2\n  sload\n  dup2\n  0xffffffffffffffffffffffffffffffffffffffff\n  mul\n  not\n  and\n  swap1\n  dup4\n  0xffffffffffffffffffffffffffffffffffffffff\n  and\n  mul\n  or\n  swap1\n  sstore\n  pop\n    /* \"contracts/Test.sol\":503:526  StateType.ItemAvailable */\n  0x00\n    /* \"contracts/Test.sol\":495:500  State */\n  0x03\n  0x00\n    /* \"contracts/Test.sol\":495:526  State = StateType.ItemAvailable */\n  0x0100\n  exp\n  dup2\n  sload\n  dup2\n  0xff\n  mul\n  not\n  and\n  swap1\n  dup4\n  0x01\n  dup2\n  gt\n  iszero\n  tag_4\n  jumpi\n  tag_5\n  tag_6\n  jump\t// in\ntag_5:\ntag_4:\n  mul\n  or\n  swap1\n  sstore\n  pop\n    /* \"contracts/Test.sol\":67:862  contract Marketplace {... */\n  jump(tag_7)\n    /* \"#utility.yul\":7:187   */\ntag_6:\n    /* \"#utility.yul\":55:132   */\n  0x4e487b7100000000000000000000000000000000000000000000000000000000\n    /* \"#utility.yul\":52:53   */\n  0x00\n    /* \"#utility.yul\":45:133   */\n  mstore\n    /* \"#utility.yul\":152:156   */\n  0x21\n    /* \"#utility.yul\":149:150   */\n  0x04\n    /* \"#utility.yul\":142:157   */\n  mstore\n    /* \"#utility.yul\":176:180   */\n  0x24\n    /* \"#utility.yul\":173:174   */\n  0x00\n    /* \"#utility.yul\":166:181   */\n  revert\n    /* \"contracts/Test.sol\":67:862  contract Marketplace {... */\ntag_7:\n  dataSize(sub_0)\n  dup1\n  dataOffset(sub_0)\n  0x00\n  codecopy\n  0x00\n  return\nstop\n\nsub_0: assembly {\n        /* \"contracts/Test.sol\":67:862  contract Marketplace {... */\n      mstore(0x40, 0x80)\n      jumpi(tag_1, lt(calldatasize, 0x04))\n      shr(0xe0, calldataload(0x00))\n      dup1\n      0x08551a53\n      eq\n      tag_2\n      jumpi\n      dup1\n      0x153e66e6\n      eq\n      tag_3\n      jumpi\n      dup1\n      0x27e235e3\n      eq\n      tag_4\n      jumpi\n      dup1\n      0x7150d8ae\n      eq\n      tag_5\n      jumpi\n      dup1\n      0xf1b6dccd\n      eq\n      tag_6\n      jumpi\n    tag_1:\n      0x00\n      dup1\n      revert\n        /* \"contracts/Test.sol\":95:116  address public seller */\n    tag_2:\n      callvalue\n      dup1\n      iszero\n      tag_7\n      jumpi\n      0x00\n      dup1\n      revert\n    tag_7:\n      pop\n      tag_8\n      tag_9\n      jump\t// in\n    tag_8:\n      mload(0x40)\n      tag_10\n      swap2\n      swap1\n      tag_11\n      jump\t// in\n    tag_10:\n      mload(0x40)\n      dup1\n      swap2\n      sub\n      swap1\n      return\n        /* \"contracts/Test.sol\":542:859  function buy(address seller, address buyer, uint price) public payable {... */\n    tag_3:\n      tag_12\n      0x04\n      dup1\n      calldatasize\n      sub\n      dup2\n      add\n      swap1\n      tag_13\n      swap2\n      swap1\n      tag_14\n      jump\t// in\n    tag_13:\n      tag_15\n      jump\t// in\n    tag_12:\n      stop\n        /* \"contracts/Test.sol\":150:191  mapping (address => uint) public balances */\n    tag_4:\n      callvalue\n      dup1\n      iszero\n      tag_16\n      jumpi\n      0x00\n      dup1\n      revert\n    tag_16:\n      pop\n      tag_17\n      0x04\n      dup1\n      calldatasize\n      sub\n      dup2\n      add\n      swap1\n      tag_18\n      swap2\n      swap1\n      tag_19\n      jump\t// in\n    tag_18:\n      tag_20\n      jump\t// in\n    tag_17:\n      mload(0x40)\n      tag_21\n      swap2\n      swap1\n      tag_22\n      jump\t// in\n    tag_21:\n      mload(0x40)\n      dup1\n      swap2\n      sub\n      swap1\n      return\n        /* \"contracts/Test.sol\":123:143  address public buyer */\n    tag_5:\n      callvalue\n      dup1\n      iszero\n      tag_23\n      jumpi\n      0x00\n      dup1\n      revert\n    tag_23:\n      pop\n      tag_24\n      tag_25\n      jump\t// in\n    tag_24:\n      mload(0x40)\n      tag_26\n      swap2\n      swap1\n      tag_11\n      jump\t// in\n    tag_26:\n      mload(0x40)\n      dup1\n      swap2\n      sub\n      swap1\n      return\n        /* \"contracts/Test.sol\":402:424  StateType public State */\n    tag_6:\n      callvalue\n      dup1\n      iszero\n      tag_27\n      jumpi\n      0x00\n      dup1\n      revert\n    tag_27:\n      pop\n      tag_28\n      tag_29\n      jump\t// in\n    tag_28:\n      mload(0x40)\n      tag_30\n      swap2\n      swap1\n      tag_31\n      jump\t// in\n    tag_30:\n      mload(0x40)\n      dup1\n      swap2\n      sub\n      swap1\n      return\n        /* \"contracts/Test.sol\":95:116  address public seller */\n    tag_9:\n      0x00\n      dup1\n      sload\n      swap1\n      0x0100\n      exp\n      swap1\n      div\n      0xffffffffffffffffffffffffffffffffffffffff\n      and\n      dup2\n      jump\t// out\n        /* \"contracts/Test.sol\":542:859  function buy(address seller, address buyer, uint price) public payable {... */\n    tag_15:\n        /* \"contracts/Test.sol\":641:649  balances */\n      0x02\n        /* \"contracts/Test.sol\":641:656  balances[buyer] */\n      0x00\n        /* \"contracts/Test.sol\":650:655  buyer */\n      dup4\n        /* \"contracts/Test.sol\":641:656  balances[buyer] */\n      0xffffffffffffffffffffffffffffffffffffffff\n      and\n      0xffffffffffffffffffffffffffffffffffffffff\n      and\n      dup2\n      mstore\n      0x20\n      add\n      swap1\n      dup2\n      mstore\n      0x20\n      add\n      0x00\n      keccak256\n      sload\n        /* \"contracts/Test.sol\":632:637  price */\n      dup2\n        /* \"contracts/Test.sol\":632:656  price <= balances[buyer] */\n      gt\n      iszero\n        /* \"contracts/Test.sol\":624:681  require(price <= balances[buyer], \"Insufficient balance\") */\n      tag_33\n      jumpi\n      mload(0x40)\n      0x08c379a000000000000000000000000000000000000000000000000000000000\n      dup2\n      mstore\n      0x04\n      add\n      tag_34\n      swap1\n      tag_35\n      jump\t// in\n    tag_34:\n      mload(0x40)\n      dup1\n      swap2\n      sub\n      swap1\n      revert\n    tag_33:\n        /* \"contracts/Test.sol\":700:723  StateType.ItemPurchased */\n      0x01\n        /* \"contracts/Test.sol\":692:697  State */\n      0x03\n      0x00\n        /* \"contracts/Test.sol\":692:723  State = StateType.ItemPurchased */\n      0x0100\n      exp\n      dup2\n      sload\n      dup2\n      0xff\n      mul\n      not\n      and\n      swap1\n      dup4\n      0x01\n      dup2\n      gt\n      iszero\n      tag_36\n      jumpi\n      tag_37\n      tag_38\n      jump\t// in\n    tag_37:\n    tag_36:\n      mul\n      or\n      swap1\n      sstore\n      pop\n        /* \"contracts/Test.sol\":753:758  price */\n      dup1\n        /* \"contracts/Test.sol\":734:742  balances */\n      0x02\n        /* \"contracts/Test.sol\":734:749  balances[buyer] */\n      0x00\n        /* \"contracts/Test.sol\":743:748  buyer */\n      dup5\n        /* \"contracts/Test.sol\":734:749  balances[buyer] */\n      0xffffffffffffffffffffffffffffffffffffffff\n      and\n      0xffffffffffffffffffffffffffffffffffffffff\n      and\n      dup2\n      mstore\n      0x20\n      add\n      swap1\n      dup2\n      mstore\n      0x20\n      add\n      0x00\n      keccak256\n      0x00\n        /* \"contracts/Test.sol\":734:758  balances[buyer] -= price */\n      dup3\n      dup3\n      sload\n      tag_39\n      swap2\n      swap1\n      tag_40\n      jump\t// in\n    tag_39:\n      swap3\n      pop\n      pop\n      dup2\n      swap1\n      sstore\n      pop\n        /* \"contracts/Test.sol\":789:794  price */\n      dup1\n        /* \"contracts/Test.sol\":769:777  balances */\n      0x02\n        /* \"contracts/Test.sol\":769:785  balances[seller] */\n      0x00\n        /* \"contracts/Test.sol\":778:784  seller */\n      dup6\n        /* \"contracts/Test.sol\":769:785  balances[seller] */\n      0xffffffffffffffffffffffffffffffffffffffff\n      and\n      0xffffffffffffffffffffffffffffffffffffffff\n      and\n      dup2\n      mstore\n      0x20\n      add\n      swap1\n      dup2\n      mstore\n      0x20\n      add\n      0x00\n      keccak256\n      0x00\n        /* \"contracts/Test.sol\":769:794  balances[seller] += price */\n      dup3\n      dup3\n      sload\n      tag_41\n      swap2\n      swap1\n      tag_42\n      jump\t// in\n    tag_41:\n      swap3\n      pop\n      pop\n      dup2\n      swap1\n      sstore\n      pop\n        /* \"contracts/Test.sol\":812:851  PurchasedItem(seller, buyer, msg.value) */\n      0x2114172e14ede64480d6a396d65773782893da59db91a47c82c4fe60c9e1fcf5\n        /* \"contracts/Test.sol\":826:832  seller */\n      dup4\n        /* \"contracts/Test.sol\":834:839  buyer */\n      dup4\n        /* \"contracts/Test.sol\":841:850  msg.value */\n      callvalue\n        /* \"contracts/Test.sol\":812:851  PurchasedItem(seller, buyer, msg.value) */\n      mload(0x40)\n      tag_43\n      swap4\n      swap3\n      swap2\n      swap1\n      tag_44\n      jump\t// in\n    tag_43:\n      mload(0x40)\n      dup1\n      swap2\n      sub\n      swap1\n      log1\n        /* \"contracts/Test.sol\":542:859  function buy(address seller, address buyer, uint price) public payable {... */\n      pop\n      pop\n      pop\n      jump\t// out\n        /* \"contracts/Test.sol\":150:191  mapping (address => uint) public balances */\n    tag_20:\n      mstore(0x20, 0x02)\n      dup1\n      0x00\n      mstore\n      keccak256(0x00, 0x40)\n      0x00\n      swap2\n      pop\n      swap1\n      pop\n      sload\n      dup2\n      jump\t// out\n        /* \"contracts/Test.sol\":123:143  address public buyer */\n    tag_25:\n      0x01\n      0x00\n      swap1\n      sload\n      swap1\n      0x0100\n      exp\n      swap1\n      div\n      0xffffffffffffffffffffffffffffffffffffffff\n      and\n      dup2\n      jump\t// out\n        /* \"contracts/Test.sol\":402:424  StateType public State */\n    tag_29:\n      0x03\n      0x00\n      swap1\n      sload\n      swap1\n      0x0100\n      exp\n      swap1\n      div\n      0xff\n      and\n      dup2\n      jump\t// out\n        /* \"#utility.yul\":7:133   */\n    tag_45:\n        /* \"#utility.yul\":44:51   */\n      0x00\n        /* \"#utility.yul\":84:126   */\n      0xffffffffffffffffffffffffffffffffffffffff\n        /* \"#utility.yul\":77:82   */\n      dup3\n        /* \"#utility.yul\":73:127   */\n      and\n        /* \"#utility.yul\":62:127   */\n      swap1\n      pop\n        /* \"#utility.yul\":7:133   */\n      swap2\n      swap1\n      pop\n      jump\t// out\n        /* \"#utility.yul\":139:235   */\n    tag_46:\n        /* \"#utility.yul\":176:183   */\n      0x00\n        /* \"#utility.yul\":205:229   */\n      tag_68\n        /* \"#utility.yul\":223:228   */\n      dup3\n        /* \"#utility.yul\":205:229   */\n      tag_45\n      jump\t// in\n    tag_68:\n        /* \"#utility.yul\":194:229   */\n      swap1\n      pop\n        /* \"#utility.yul\":139:235   */\n      swap2\n      swap1\n      pop\n      jump\t// out\n        /* \"#utility.yul\":241:359   */\n    tag_47:\n        /* \"#utility.yul\":328:352   */\n      tag_70\n        /* \"#utility.yul\":346:351   */\n      dup2\n        /* \"#utility.yul\":328:352   */\n      tag_46\n      jump\t// in\n    tag_70:\n        /* \"#utility.yul\":323:326   */\n      dup3\n        /* \"#utility.yul\":316:353   */\n      mstore\n        /* \"#utility.yul\":241:359   */\n      pop\n      pop\n      jump\t// out\n        /* \"#utility.yul\":365:587   */\n    tag_11:\n        /* \"#utility.yul\":458:462   */\n      0x00\n        /* \"#utility.yul\":496:498   */\n      0x20\n        /* \"#utility.yul\":485:494   */\n      dup3\n        /* \"#utility.yul\":481:499   */\n      add\n        /* \"#utility.yul\":473:499   */\n      swap1\n      pop\n        /* \"#utility.yul\":509:580   */\n      tag_72\n        /* \"#utility.yul\":577:578   */\n      0x00\n        /* \"#utility.yul\":566:575   */\n      dup4\n        /* \"#utility.yul\":562:579   */\n      add\n        /* \"#utility.yul\":553:559   */\n      dup5\n        /* \"#utility.yul\":509:580   */\n      tag_47\n      jump\t// in\n    tag_72:\n        /* \"#utility.yul\":365:587   */\n      swap3\n      swap2\n      pop\n      pop\n      jump\t// out\n        /* \"#utility.yul\":674:791   */\n    tag_49:\n        /* \"#utility.yul\":783:784   */\n      0x00\n        /* \"#utility.yul\":780:781   */\n      dup1\n        /* \"#utility.yul\":773:785   */\n      revert\n        /* \"#utility.yul\":920:1042   */\n    tag_51:\n        /* \"#utility.yul\":993:1017   */\n      tag_77\n        /* \"#utility.yul\":1011:1016   */\n      dup2\n        /* \"#utility.yul\":993:1017   */\n      tag_46\n      jump\t// in\n    tag_77:\n        /* \"#utility.yul\":986:991   */\n      dup2\n        /* \"#utility.yul\":983:1018   */\n      eq\n        /* \"#utility.yul\":973:1036   */\n      tag_78\n      jumpi\n        /* \"#utility.yul\":1032:1033   */\n      0x00\n        /* \"#utility.yul\":1029:1030   */\n      dup1\n        /* \"#utility.yul\":1022:1034   */\n      revert\n        /* \"#utility.yul\":973:1036   */\n    tag_78:\n        /* \"#utility.yul\":920:1042   */\n      pop\n      jump\t// out\n        /* \"#utility.yul\":1048:1187   */\n    tag_52:\n        /* \"#utility.yul\":1094:1099   */\n      0x00\n        /* \"#utility.yul\":1132:1138   */\n      dup2\n        /* \"#utility.yul\":1119:1139   */\n      calldataload\n        /* \"#utility.yul\":1110:1139   */\n      swap1\n      pop\n        /* \"#utility.yul\":1148:1181   */\n      tag_80\n        /* \"#utility.yul\":1175:1180   */\n      dup2\n        /* \"#utility.yul\":1148:1181   */\n      tag_51\n      jump\t// in\n    tag_80:\n        /* \"#utility.yul\":1048:1187   */\n      swap3\n      swap2\n      pop\n      pop\n      jump\t// out\n        /* \"#utility.yul\":1193:1270   */\n    tag_53:\n        /* \"#utility.yul\":1230:1237   */\n      0x00\n        /* \"#utility.yul\":1259:1264   */\n      dup2\n        /* \"#utility.yul\":1248:1264   */\n      swap1\n      pop\n        /* \"#utility.yul\":1193:1270   */\n      swap2\n      swap1\n      pop\n      jump\t// out\n        /* \"#utility.yul\":1276:1398   */\n    tag_54:\n        /* \"#utility.yul\":1349:1373   */\n      tag_83\n        /* \"#utility.yul\":1367:1372   */\n      dup2\n        /* \"#utility.yul\":1349:1373   */\n      tag_53\n      jump\t// in\n    tag_83:\n        /* \"#utility.yul\":1342:1347   */\n      dup2\n        /* \"#utility.yul\":1339:1374   */\n      eq\n        /* \"#utility.yul\":1329:1392   */\n      tag_84\n      jumpi\n        /* \"#utility.yul\":1388:1389   */\n      0x00\n        /* \"#utility.yul\":1385:1386   */\n      dup1\n        /* \"#utility.yul\":1378:1390   */\n      revert\n        /* \"#utility.yul\":1329:1392   */\n    tag_84:\n        /* \"#utility.yul\":1276:1398   */\n      pop\n      jump\t// out\n        /* \"#utility.yul\":1404:1543   */\n    tag_55:\n        /* \"#utility.yul\":1450:1455   */\n      0x00\n        /* \"#utility.yul\":1488:1494   */\n      dup2\n        /* \"#utility.yul\":1475:1495   */\n      calldataload\n        /* \"#utility.yul\":1466:1495   */\n      swap1\n      pop\n        /* \"#utility.yul\":1504:1537   */\n      tag_86\n        /* \"#utility.yul\":1531:1536   */\n      dup2\n        /* \"#utility.yul\":1504:1537   */\n      tag_54\n      jump\t// in\n    tag_86:\n        /* \"#utility.yul\":1404:1543   */\n      swap3\n      swap2\n      pop\n      pop\n      jump\t// out\n        /* \"#utility.yul\":1549:2168   */\n    tag_14:\n        /* \"#utility.yul\":1626:1632   */\n      0x00\n        /* \"#utility.yul\":1634:1640   */\n      dup1\n        /* \"#utility.yul\":1642:1648   */\n      0x00\n        /* \"#utility.yul\":1691:1693   */\n      0x60\n        /* \"#utility.yul\":1679:1688   */\n      dup5\n        /* \"#utility.yul\":1670:1677   */\n      dup7\n        /* \"#utility.yul\":1666:1689   */\n      sub\n        /* \"#utility.yul\":1662:1694   */\n      slt\n        /* \"#utility.yul\":1659:1778   */\n      iszero\n      tag_88\n      jumpi\n        /* \"#utility.yul\":1697:1776   */\n      tag_89\n      tag_49\n      jump\t// in\n    tag_89:\n        /* \"#utility.yul\":1659:1778   */\n    tag_88:\n        /* \"#utility.yul\":1817:1818   */\n      0x00\n        /* \"#utility.yul\":1842:1895   */\n      tag_90\n        /* \"#utility.yul\":1887:1894   */\n      dup7\n        /* \"#utility.yul\":1878:1884   */\n      dup3\n        /* \"#utility.yul\":1867:1876   */\n      dup8\n        /* \"#utility.yul\":1863:1885   */\n      add\n        /* \"#utility.yul\":1842:1895   */\n      tag_52\n      jump\t// in\n    tag_90:\n        /* \"#utility.yul\":1832:1895   */\n      swap4\n      pop\n        /* \"#utility.yul\":1788:1905   */\n      pop\n        /* \"#utility.yul\":1944:1946   */\n      0x20\n        /* \"#utility.yul\":1970:2023   */\n      tag_91\n        /* \"#utility.yul\":2015:2022   */\n      dup7\n        /* \"#utility.yul\":2006:2012   */\n      dup3\n        /* \"#utility.yul\":1995:2004   */\n      dup8\n        /* \"#utility.yul\":1991:2013   */\n      add\n        /* \"#utility.yul\":1970:2023   */\n      tag_52\n      jump\t// in\n    tag_91:\n        /* \"#utility.yul\":1960:2023   */\n      swap3\n      pop\n        /* \"#utility.yul\":1915:2033   */\n      pop\n        /* \"#utility.yul\":2072:2074   */\n      0x40\n        /* \"#utility.yul\":2098:2151   */\n      tag_92\n        /* \"#utility.yul\":2143:2150   */\n      dup7\n        /* \"#utility.yul\":2134:2140   */\n      dup3\n        /* \"#utility.yul\":2123:2132   */\n      dup8\n        /* \"#utility.yul\":2119:2141   */\n      add\n        /* \"#utility.yul\":2098:2151   */\n      tag_55\n      jump\t// in\n    tag_92:\n        /* \"#utility.yul\":2088:2151   */\n      swap2\n      pop\n        /* \"#utility.yul\":2043:2161   */\n      pop\n        /* \"#utility.yul\":1549:2168   */\n      swap3\n      pop\n      swap3\n      pop\n      swap3\n      jump\t// out\n        /* \"#utility.yul\":2174:2503   */\n    tag_19:\n        /* \"#utility.yul\":2233:2239   */\n      0x00\n        /* \"#utility.yul\":2282:2284   */\n      0x20\n        /* \"#utility.yul\":2270:2279   */\n      dup3\n        /* \"#utility.yul\":2261:2268   */\n      dup5\n        /* \"#utility.yul\":2257:2280   */\n      sub\n        /* \"#utility.yul\":2253:2285   */\n      slt\n        /* \"#utility.yul\":2250:2369   */\n      iszero\n      tag_94\n      jumpi\n        /* \"#utility.yul\":2288:2367   */\n      tag_95\n      tag_49\n      jump\t// in\n    tag_95:\n        /* \"#utility.yul\":2250:2369   */\n    tag_94:\n        /* \"#utility.yul\":2408:2409   */\n      0x00\n        /* \"#utility.yul\":2433:2486   */\n      tag_96\n        /* \"#utility.yul\":2478:2485   */\n      dup5\n        /* \"#utility.yul\":2469:2475   */\n      dup3\n        /* \"#utility.yul\":2458:2467   */\n      dup6\n        /* \"#utility.yul\":2454:2476   */\n      add\n        /* \"#utility.yul\":2433:2486   */\n      tag_52\n      jump\t// in\n    tag_96:\n        /* \"#utility.yul\":2423:2486   */\n      swap2\n      pop\n        /* \"#utility.yul\":2379:2496   */\n      pop\n        /* \"#utility.yul\":2174:2503   */\n      swap3\n      swap2\n      pop\n      pop\n      jump\t// out\n        /* \"#utility.yul\":2509:2627   */\n    tag_56:\n        /* \"#utility.yul\":2596:2620   */\n      tag_98\n        /* \"#utility.yul\":2614:2619   */\n      dup2\n        /* \"#utility.yul\":2596:2620   */\n      tag_53\n      jump\t// in\n    tag_98:\n        /* \"#utility.yul\":2591:2594   */\n      dup3\n        /* \"#utility.yul\":2584:2621   */\n      mstore\n        /* \"#utility.yul\":2509:2627   */\n      pop\n      pop\n      jump\t// out\n        /* \"#utility.yul\":2633:2855   */\n    tag_22:\n        /* \"#utility.yul\":2726:2730   */\n      0x00\n        /* \"#utility.yul\":2764:2766   */\n      0x20\n        /* \"#utility.yul\":2753:2762   */\n      dup3\n        /* \"#utility.yul\":2749:2767   */\n      add\n        /* \"#utility.yul\":2741:2767   */\n      swap1\n      pop\n        /* \"#utility.yul\":2777:2848   */\n      tag_100\n        /* \"#utility.yul\":2845:2846   */\n      0x00\n        /* \"#utility.yul\":2834:2843   */\n      dup4\n        /* \"#utility.yul\":2830:2847   */\n      add\n        /* \"#utility.yul\":2821:2827   */\n      dup5\n        /* \"#utility.yul\":2777:2848   */\n      tag_56\n      jump\t// in\n    tag_100:\n        /* \"#utility.yul\":2633:2855   */\n      swap3\n      swap2\n      pop\n      pop\n      jump\t// out\n        /* \"#utility.yul\":2861:3041   */\n    tag_38:\n        /* \"#utility.yul\":2909:2986   */\n      0x4e487b7100000000000000000000000000000000000000000000000000000000\n        /* \"#utility.yul\":2906:2907   */\n      0x00\n        /* \"#utility.yul\":2899:2987   */\n      mstore\n        /* \"#utility.yul\":3006:3010   */\n      0x21\n        /* \"#utility.yul\":3003:3004   */\n      0x04\n        /* \"#utility.yul\":2996:3011   */\n      mstore\n        /* \"#utility.yul\":3030:3034   */\n      0x24\n        /* \"#utility.yul\":3027:3028   */\n      0x00\n        /* \"#utility.yul\":3020:3035   */\n      revert\n        /* \"#utility.yul\":3047:3164   */\n    tag_57:\n        /* \"#utility.yul\":3132:3133   */\n      0x02\n        /* \"#utility.yul\":3125:3130   */\n      dup2\n        /* \"#utility.yul\":3122:3134   */\n      lt\n        /* \"#utility.yul\":3112:3158   */\n      tag_103\n      jumpi\n        /* \"#utility.yul\":3138:3156   */\n      tag_104\n      tag_38\n      jump\t// in\n    tag_104:\n        /* \"#utility.yul\":3112:3158   */\n    tag_103:\n        /* \"#utility.yul\":3047:3164   */\n      pop\n      jump\t// out\n        /* \"#utility.yul\":3170:3305   */\n    tag_58:\n        /* \"#utility.yul\":3219:3226   */\n      0x00\n        /* \"#utility.yul\":3248:3253   */\n      dup2\n        /* \"#utility.yul\":3237:3253   */\n      swap1\n      pop\n        /* \"#utility.yul\":3254:3299   */\n      tag_106\n        /* \"#utility.yul\":3293:3298   */\n      dup3\n        /* \"#utility.yul\":3254:3299   */\n      tag_57\n      jump\t// in\n    tag_106:\n        /* \"#utility.yul\":3170:3305   */\n      swap2\n      swap1\n      pop\n      jump\t// out\n        /* \"#utility.yul\":3311:3446   */\n    tag_59:\n        /* \"#utility.yul\":3371:3380   */\n      0x00\n        /* \"#utility.yul\":3404:3440   */\n      tag_108\n        /* \"#utility.yul\":3434:3439   */\n      dup3\n        /* \"#utility.yul\":3404:3440   */\n      tag_58\n      jump\t// in\n    tag_108:\n        /* \"#utility.yul\":3391:3440   */\n      swap1\n      pop\n        /* \"#utility.yul\":3311:3446   */\n      swap2\n      swap1\n      pop\n      jump\t// out\n        /* \"#utility.yul\":3452:3603   */\n    tag_60:\n        /* \"#utility.yul\":3549:3596   */\n      tag_110\n        /* \"#utility.yul\":3590:3595   */\n      dup2\n        /* \"#utility.yul\":3549:3596   */\n      tag_59\n      jump\t// in\n    tag_110:\n        /* \"#utility.yul\":3544:3547   */\n      dup3\n        /* \"#utility.yul\":3537:3597   */\n      mstore\n        /* \"#utility.yul\":3452:3603   */\n      pop\n      pop\n      jump\t// out\n        /* \"#utility.yul\":3609:3851   */\n    tag_31:\n        /* \"#utility.yul\":3712:3716   */\n      0x00\n        /* \"#utility.yul\":3750:3752   */\n      0x20\n        /* \"#utility.yul\":3739:3748   */\n      dup3\n        /* \"#utility.yul\":3735:3753   */\n      add\n        /* \"#utility.yul\":3727:3753   */\n      swap1\n      pop\n        /* \"#utility.yul\":3763:3844   */\n      tag_112\n        /* \"#utility.yul\":3841:3842   */\n      0x00\n        /* \"#utility.yul\":3830:3839   */\n      dup4\n        /* \"#utility.yul\":3826:3843   */\n      add\n        /* \"#utility.yul\":3817:3823   */\n      dup5\n        /* \"#utility.yul\":3763:3844   */\n      tag_60\n      jump\t// in\n    tag_112:\n        /* \"#utility.yul\":3609:3851   */\n      swap3\n      swap2\n      pop\n      pop\n      jump\t// out\n        /* \"#utility.yul\":3857:4026   */\n    tag_61:\n        /* \"#utility.yul\":3941:3952   */\n      0x00\n        /* \"#utility.yul\":3975:3981   */\n      dup3\n        /* \"#utility.yul\":3970:3973   */\n      dup3\n        /* \"#utility.yul\":3963:3982   */\n      mstore\n        /* \"#utility.yul\":4015:4019   */\n      0x20\n        /* \"#utility.yul\":4010:4013   */\n      dup3\n        /* \"#utility.yul\":4006:4020   */\n      add\n        /* \"#utility.yul\":3991:4020   */\n      swap1\n      pop\n        /* \"#utility.yul\":3857:4026   */\n      swap3\n      swap2\n      pop\n      pop\n      jump\t// out\n        /* \"#utility.yul\":4032:4202   */\n    tag_62:\n        /* \"#utility.yul\":4172:4194   */\n      0x496e73756666696369656e742062616c616e6365000000000000000000000000\n        /* \"#utility.yul\":4168:4169   */\n      0x00\n        /* \"#utility.yul\":4160:4166   */\n      dup3\n        /* \"#utility.yul\":4156:4170   */\n      add\n        /* \"#utility.yul\":4149:4195   */\n      mstore\n        /* \"#utility.yul\":4032:4202   */\n      pop\n      jump\t// out\n        /* \"#utility.yul\":4208:4574   */\n    tag_63:\n        /* \"#utility.yul\":4350:4353   */\n      0x00\n        /* \"#utility.yul\":4371:4438   */\n      tag_116\n        /* \"#utility.yul\":4435:4437   */\n      0x14\n        /* \"#utility.yul\":4430:4433   */\n      dup4\n        /* \"#utility.yul\":4371:4438   */\n      tag_61\n      jump\t// in\n    tag_116:\n        /* \"#utility.yul\":4364:4438   */\n      swap2\n      pop\n        /* \"#utility.yul\":4447:4540   */\n      tag_117\n        /* \"#utility.yul\":4536:4539   */\n      dup3\n        /* \"#utility.yul\":4447:4540   */\n      tag_62\n      jump\t// in\n    tag_117:\n        /* \"#utility.yul\":4565:4567   */\n      0x20\n        /* \"#utility.yul\":4560:4563   */\n      dup3\n        /* \"#utility.yul\":4556:4568   */\n      add\n        /* \"#utility.yul\":4549:4568   */\n      swap1\n      pop\n        /* \"#utility.yul\":4208:4574   */\n      swap2\n      swap1\n      pop\n      jump\t// out\n        /* \"#utility.yul\":4580:4999   */\n    tag_35:\n        /* \"#utility.yul\":4746:4750   */\n      0x00\n        /* \"#utility.yul\":4784:4786   */\n      0x20\n        /* \"#utility.yul\":4773:4782   */\n      dup3\n        /* \"#utility.yul\":4769:4787   */\n      add\n        /* \"#utility.yul\":4761:4787   */\n      swap1\n      pop\n        /* \"#utility.yul\":4833:4842   */\n      dup2\n        /* \"#utility.yul\":4827:4831   */\n      dup2\n        /* \"#utility.yul\":4823:4843   */\n      sub\n        /* \"#utility.yul\":4819:4820   */\n      0x00\n        /* \"#utility.yul\":4808:4817   */\n      dup4\n        /* \"#utility.yul\":4804:4821   */\n      add\n        /* \"#utility.yul\":4797:4844   */\n      mstore\n        /* \"#utility.yul\":4861:4992   */\n      tag_119\n        /* \"#utility.yul\":4987:4991   */\n      dup2\n        /* \"#utility.yul\":4861:4992   */\n      tag_63\n      jump\t// in\n    tag_119:\n        /* \"#utility.yul\":4853:4992   */\n      swap1\n      pop\n        /* \"#utility.yul\":4580:4999   */\n      swap2\n      swap1\n      pop\n      jump\t// out\n        /* \"#utility.yul\":5005:5185   */\n    tag_64:\n        /* \"#utility.yul\":5053:5130   */\n      0x4e487b7100000000000000000000000000000000000000000000000000000000\n        /* \"#utility.yul\":5050:5051   */\n      0x00\n        /* \"#utility.yul\":5043:5131   */\n      mstore\n        /* \"#utility.yul\":5150:5154   */\n      0x11\n        /* \"#utility.yul\":5147:5148   */\n      0x04\n        /* \"#utility.yul\":5140:5155   */\n      mstore\n        /* \"#utility.yul\":5174:5178   */\n      0x24\n        /* \"#utility.yul\":5171:5172   */\n      0x00\n        /* \"#utility.yul\":5164:5179   */\n      revert\n        /* \"#utility.yul\":5191:5385   */\n    tag_40:\n        /* \"#utility.yul\":5231:5235   */\n      0x00\n        /* \"#utility.yul\":5251:5271   */\n      tag_122\n        /* \"#utility.yul\":5269:5270   */\n      dup3\n        /* \"#utility.yul\":5251:5271   */\n      tag_53\n      jump\t// in\n    tag_122:\n        /* \"#utility.yul\":5246:5271   */\n      swap2\n      pop\n        /* \"#utility.yul\":5285:5305   */\n      tag_123\n        /* \"#utility.yul\":5303:5304   */\n      dup4\n        /* \"#utility.yul\":5285:5305   */\n      tag_53\n      jump\t// in\n    tag_123:\n        /* \"#utility.yul\":5280:5305   */\n      swap3\n      pop\n        /* \"#utility.yul\":5329:5330   */\n      dup3\n        /* \"#utility.yul\":5326:5327   */\n      dup3\n        /* \"#utility.yul\":5322:5331   */\n      sub\n        /* \"#utility.yul\":5314:5331   */\n      swap1\n      pop\n        /* \"#utility.yul\":5353:5354   */\n      dup2\n        /* \"#utility.yul\":5347:5351   */\n      dup2\n        /* \"#utility.yul\":5344:5355   */\n      gt\n        /* \"#utility.yul\":5341:5378   */\n      iszero\n      tag_124\n      jumpi\n        /* \"#utility.yul\":5358:5376   */\n      tag_125\n      tag_64\n      jump\t// in\n    tag_125:\n        /* \"#utility.yul\":5341:5378   */\n    tag_124:\n        /* \"#utility.yul\":5191:5385   */\n      swap3\n      swap2\n      pop\n      pop\n      jump\t// out\n        /* \"#utility.yul\":5391:5582   */\n    tag_42:\n        /* \"#utility.yul\":5431:5434   */\n      0x00\n        /* \"#utility.yul\":5450:5470   */\n      tag_127\n        /* \"#utility.yul\":5468:5469   */\n      dup3\n        /* \"#utility.yul\":5450:5470   */\n      tag_53\n      jump\t// in\n    tag_127:\n        /* \"#utility.yul\":5445:5470   */\n      swap2\n      pop\n        /* \"#utility.yul\":5484:5504   */\n      tag_128\n        /* \"#utility.yul\":5502:5503   */\n      dup4\n        /* \"#utility.yul\":5484:5504   */\n      tag_53\n      jump\t// in\n    tag_128:\n        /* \"#utility.yul\":5479:5504   */\n      swap3\n      pop\n        /* \"#utility.yul\":5527:5528   */\n      dup3\n        /* \"#utility.yul\":5524:5525   */\n      dup3\n        /* \"#utility.yul\":5520:5529   */\n      add\n        /* \"#utility.yul\":5513:5529   */\n      swap1\n      pop\n        /* \"#utility.yul\":5548:5551   */\n      dup1\n        /* \"#utility.yul\":5545:5546   */\n      dup3\n        /* \"#utility.yul\":5542:5552   */\n      gt\n        /* \"#utility.yul\":5539:5575   */\n      iszero\n      tag_129\n      jumpi\n        /* \"#utility.yul\":5555:5573   */\n      tag_130\n      tag_64\n      jump\t// in\n    tag_130:\n        /* \"#utility.yul\":5539:5575   */\n    tag_129:\n        /* \"#utility.yul\":5391:5582   */\n      swap3\n      swap2\n      pop\n      pop\n      jump\t// out\n        /* \"#utility.yul\":5588:6030   */\n    tag_44:\n        /* \"#utility.yul\":5737:5741   */\n      0x00\n        /* \"#utility.yul\":5775:5777   */\n      0x60\n        /* \"#utility.yul\":5764:5773   */\n      dup3\n        /* \"#utility.yul\":5760:5778   */\n      add\n        /* \"#utility.yul\":5752:5778   */\n      swap1\n      pop\n        /* \"#utility.yul\":5788:5859   */\n      tag_132\n        /* \"#utility.yul\":5856:5857   */\n      0x00\n        /* \"#utility.yul\":5845:5854   */\n      dup4\n        /* \"#utility.yul\":5841:5858   */\n      add\n        /* \"#utility.yul\":5832:5838   */\n      dup7\n        /* \"#utility.yul\":5788:5859   */\n      tag_47\n      jump\t// in\n    tag_132:\n        /* \"#utility.yul\":5869:5941   */\n      tag_133\n        /* \"#utility.yul\":5937:5939   */\n      0x20\n        /* \"#utility.yul\":5926:5935   */\n      dup4\n        /* \"#utility.yul\":5922:5940   */\n      add\n        /* \"#utility.yul\":5913:5919   */\n      dup6\n        /* \"#utility.yul\":5869:5941   */\n      tag_47\n      jump\t// in\n    tag_133:\n        /* \"#utility.yul\":5951:6023   */\n      tag_134\n        /* \"#utility.yul\":6019:6021   */\n      0x40\n        /* \"#utility.yul\":6008:6017   */\n      dup4\n        /* \"#utility.yul\":6004:6022   */\n      add\n        /* \"#utility.yul\":5995:6001   */\n      dup5\n        /* \"#utility.yul\":5951:6023   */\n      tag_56\n      jump\t// in\n    tag_134:\n        /* \"#utility.yul\":5588:6030   */\n      swap5\n      swap4\n      pop\n      pop\n      pop\n      pop\n      jump\t// out\n\n    auxdata: 0xa2646970667358221220976d5a40cb5c1f0f4242b922c4db8797af03327508f22b544f9ad15fc44eb01964736f6c634300081a0033\n}\n",
				"bytecode": {
					"linkReferences": {},
					"object": "6080604052348015600e575f80fd5b50335f806101000a81548173ffffffffffffffffffffffffffffffffffffffff021916908373ffffffffffffffffffffffffffffffffffffffff1602179055505f60035f6101000a81548160ff02191690836001811115606f57606e6078565b5b021790555060a5565b7f4e487b71000000000000000000000000000000000000000000000000000000005f52602160045260245ffd5b610680806100b25f395ff3fe608060405260043610610049575f3560e01c806308551a531461004d578063153e66e61461007757806327e235e3146100935780637150d8ae146100cf578063f1b6dccd146100f9575b5f80fd5b348015610058575f80fd5b50610061610123565b60405161006e9190610361565b60405180910390f35b610091600480360381019061008c91906103db565b610146565b005b34801561009e575f80fd5b506100b960048036038101906100b4919061042b565b6102d6565b6040516100c69190610465565b60405180910390f35b3480156100da575f80fd5b506100e36102eb565b6040516100f09190610361565b60405180910390f35b348015610104575f80fd5b5061010d610310565b60405161011a91906104f1565b60405180910390f35b5f8054906101000a900473ffffffffffffffffffffffffffffffffffffffff1681565b60025f8373ffffffffffffffffffffffffffffffffffffffff1673ffffffffffffffffffffffffffffffffffffffff1681526020019081526020015f20548111156101c6576040517f08c379a00000000000000000000000000000000000000000000000000000000081526004016101bd90610564565b60405180910390fd5b600160035f6101000a81548160ff021916908360018111156101eb576101ea61047e565b5b02179055508060025f8473ffffffffffffffffffffffffffffffffffffffff1673ffffffffffffffffffffffffffffffffffffffff1681526020019081526020015f205f82825461023c91906105af565b925050819055508060025f8573ffffffffffffffffffffffffffffffffffffffff1673ffffffffffffffffffffffffffffffffffffffff1681526020019081526020015f205f82825461028f91906105e2565b925050819055507f2114172e14ede64480d6a396d65773782893da59db91a47c82c4fe60c9e1fcf58383346040516102c993929190610615565b60405180910390a1505050565b6002602052805f5260405f205f915090505481565b60015f9054906101000a900473ffffffffffffffffffffffffffffffffffffffff1681565b60035f9054906101000a900460ff1681565b5f73ffffffffffffffffffffffffffffffffffffffff82169050919050565b5f61034b82610322565b9050919050565b61035b81610341565b82525050565b5f6020820190506103745f830184610352565b92915050565b5f80fd5b61038781610341565b8114610391575f80fd5b50565b5f813590506103a28161037e565b92915050565b5f819050919050565b6103ba816103a8565b81146103c4575f80fd5b50565b5f813590506103d5816103b1565b92915050565b5f805f606084860312156103f2576103f161037a565b5b5f6103ff86828701610394565b935050602061041086828701610394565b9250506040610421868287016103c7565b9150509250925092565b5f602082840312156104405761043f61037a565b5b5f61044d84828501610394565b91505092915050565b61045f816103a8565b82525050565b5f6020820190506104785f830184610456565b92915050565b7f4e487b71000000000000000000000000000000000000000000000000000000005f52602160045260245ffd5b600281106104bc576104bb61047e565b5b50565b5f8190506104cc826104ab565b919050565b5f6104db826104bf565b9050919050565b6104eb816104d1565b82525050565b5f6020820190506105045f8301846104e2565b92915050565b5f82825260208201905092915050565b7f496e73756666696369656e742062616c616e63650000000000000000000000005f82015250565b5f61054e60148361050a565b91506105598261051a565b602082019050919050565b5f6020820190508181035f83015261057b81610542565b9050919050565b7f4e487b71000000000000000000000000000000000000000000000000000000005f52601160045260245ffd5b5f6105b9826103a8565b91506105c4836103a8565b92508282039050818111156105dc576105db610582565b5b92915050565b5f6105ec826103a8565b91506105f7836103a8565b925082820190508082111561060f5761060e610582565b5b92915050565b5f6060820190506106285f830186610352565b6106356020830185610352565b6106426040830184610456565b94935050505056fea2646970667358221220976d5a40cb5c1f0f4242b922c4db8797af03327508f22b544f9ad15fc44eb01964736f6c634300081a0033",
					"opcodes": "PUSH1 0x80 PUSH1 0x40 MSTORE CALLVALUE DUP1 ISZERO PUSH1 0xE JUMPI PUSH0 DUP1 REVERT JUMPDEST POP CALLER PUSH0 DUP1 PUSH2 0x100 EXP DUP2 SLOAD DUP2 PUSH20 0xFFFFFFFFFFFFFFFFFFFFFFFFFFFFFFFFFFFFFFFF MUL NOT AND SWAP1 DUP4 PUSH20 0xFFFFFFFFFFFFFFFFFFFFFFFFFFFFFFFFFFFFFFFF AND MUL OR SWAP1 SSTORE POP PUSH0 PUSH1 0x3 PUSH0 PUSH2 0x100 EXP DUP2 SLOAD DUP2 PUSH1 0xFF MUL NOT AND SWAP1 DUP4 PUSH1 0x1 DUP2 GT ISZERO PUSH1 0x6F JUMPI PUSH1 0x6E PUSH1 0x78 JUMP JUMPDEST JUMPDEST MUL OR SWAP1 SSTORE POP PUSH1 0xA5 JUMP JUMPDEST PUSH32 0x4E487B7100000000000000000000000000000000000000000000000000000000 PUSH0 MSTORE PUSH1 0x21 PUSH1 0x4 MSTORE PUSH1 0x24 PUSH0 REVERT JUMPDEST PUSH2 0x680 DUP1 PUSH2 0xB2 PUSH0 CODECOPY PUSH0 RETURN INVALID PUSH1 0x80 PUSH1 0x40 MSTORE PUSH1 0x4 CALLDATASIZE LT PUSH2 0x49 JUMPI PUSH0 CALLDATALOAD PUSH1 0xE0 SHR DUP1 PUSH4 0x8551A53 EQ PUSH2 0x4D JUMPI DUP1 PUSH4 0x153E66E6 EQ PUSH2 0x77 JUMPI DUP1 PUSH4 0x27E235E3 EQ PUSH2 0x93 JUMPI DUP1 PUSH4 0x7150D8AE EQ PUSH2 0xCF JUMPI DUP1 PUSH4 0xF1B6DCCD EQ PUSH2 0xF9 JUMPI JUMPDEST PUSH0 DUP1 REVERT JUMPDEST CALLVALUE DUP1 ISZERO PUSH2 0x58 JUMPI PUSH0 DUP1 REVERT JUMPDEST POP PUSH2 0x61 PUSH2 0x123 JUMP JUMPDEST PUSH1 0x40 MLOAD PUSH2 0x6E SWAP2 SWAP1 PUSH2 0x361 JUMP JUMPDEST PUSH1 0x40 MLOAD DUP1 SWAP2 SUB SWAP1 RETURN JUMPDEST PUSH2 0x91 PUSH1 0x4 DUP1 CALLDATASIZE SUB DUP2 ADD SWAP1 PUSH2 0x8C SWAP2 SWAP1 PUSH2 0x3DB JUMP JUMPDEST PUSH2 0x146 JUMP JUMPDEST STOP JUMPDEST CALLVALUE DUP1 ISZERO PUSH2 0x9E JUMPI PUSH0 DUP1 REVERT JUMPDEST POP PUSH2 0xB9 PUSH1 0x4 DUP1 CALLDATASIZE SUB DUP2 ADD SWAP1 PUSH2 0xB4 SWAP2 SWAP1 PUSH2 0x42B JUMP JUMPDEST PUSH2 0x2D6 JUMP JUMPDEST PUSH1 0x40 MLOAD PUSH2 0xC6 SWAP2 SWAP1 PUSH2 0x465 JUMP JUMPDEST PUSH1 0x40 MLOAD DUP1 SWAP2 SUB SWAP1 RETURN JUMPDEST CALLVALUE DUP1 ISZERO PUSH2 0xDA JUMPI PUSH0 DUP1 REVERT JUMPDEST POP PUSH2 0xE3 PUSH2 0x2EB JUMP JUMPDEST PUSH1 0x40 MLOAD PUSH2 0xF0 SWAP2 SWAP1 PUSH2 0x361 JUMP JUMPDEST PUSH1 0x40 MLOAD DUP1 SWAP2 SUB SWAP1 RETURN JUMPDEST CALLVALUE DUP1 ISZERO PUSH2 0x104 JUMPI PUSH0 DUP1 REVERT JUMPDEST POP PUSH2 0x10D PUSH2 0x310 JUMP JUMPDEST PUSH1 0x40 MLOAD PUSH2 0x11A SWAP2 SWAP1 PUSH2 0x4F1 JUMP JUMPDEST PUSH1 0x40 MLOAD DUP1 SWAP2 SUB SWAP1 RETURN JUMPDEST PUSH0 DUP1 SLOAD SWAP1 PUSH2 0x100 EXP SWAP1 DIV PUSH20 0xFFFFFFFFFFFFFFFFFFFFFFFFFFFFFFFFFFFFFFFF AND DUP2 JUMP JUMPDEST PUSH1 0x2 PUSH0 DUP4 PUSH20 0xFFFFFFFFFFFFFFFFFFFFFFFFFFFFFFFFFFFFFFFF AND PUSH20 0xFFFFFFFFFFFFFFFFFFFFFFFFFFFFFFFFFFFFFFFF AND DUP2 MSTORE PUSH1 0x20 ADD SWAP1 DUP2 MSTORE PUSH1 0x20 ADD PUSH0 KECCAK256 SLOAD DUP2 GT ISZERO PUSH2 0x1C6 JUMPI PUSH1 0x40 MLOAD PUSH32 0x8C379A000000000000000000000000000000000000000000000000000000000 DUP2 MSTORE PUSH1 0x4 ADD PUSH2 0x1BD SWAP1 PUSH2 0x564 JUMP JUMPDEST PUSH1 0x40 MLOAD DUP1 SWAP2 SUB SWAP1 REVERT JUMPDEST PUSH1 0x1 PUSH1 0x3 PUSH0 PUSH2 0x100 EXP DUP2 SLOAD DUP2 PUSH1 0xFF MUL NOT AND SWAP1 DUP4 PUSH1 0x1 DUP2 GT ISZERO PUSH2 0x1EB JUMPI PUSH2 0x1EA PUSH2 0x47E JUMP JUMPDEST JUMPDEST MUL OR SWAP1 SSTORE POP DUP1 PUSH1 0x2 PUSH0 DUP5 PUSH20 0xFFFFFFFFFFFFFFFFFFFFFFFFFFFFFFFFFFFFFFFF AND PUSH20 0xFFFFFFFFFFFFFFFFFFFFFFFFFFFFFFFFFFFFFFFF AND DUP2 MSTORE PUSH1 0x20 ADD SWAP1 DUP2 MSTORE PUSH1 0x20 ADD PUSH0 KECCAK256 PUSH0 DUP3 DUP3 SLOAD PUSH2 0x23C SWAP2 SWAP1 PUSH2 0x5AF JUMP JUMPDEST SWAP3 POP POP DUP2 SWAP1 SSTORE POP DUP1 PUSH1 0x2 PUSH0 DUP6 PUSH20 0xFFFFFFFFFFFFFFFFFFFFFFFFFFFFFFFFFFFFFFFF AND PUSH20 0xFFFFFFFFFFFFFFFFFFFFFFFFFFFFFFFFFFFFFFFF AND DUP2 MSTORE PUSH1 0x20 ADD SWAP1 DUP2 MSTORE PUSH1 0x20 ADD PUSH0 KECCAK256 PUSH0 DUP3 DUP3 SLOAD PUSH2 0x28F SWAP2 SWAP1 PUSH2 0x5E2 JUMP JUMPDEST SWAP3 POP POP DUP2 SWAP1 SSTORE POP PUSH32 0x2114172E14EDE64480D6A396D65773782893DA59DB91A47C82C4FE60C9E1FCF5 DUP4 DUP4 CALLVALUE PUSH1 0x40 MLOAD PUSH2 0x2C9 SWAP4 SWAP3 SWAP2 SWAP1 PUSH2 0x615 JUMP JUMPDEST PUSH1 0x40 MLOAD DUP1 SWAP2 SUB SWAP1 LOG1 POP POP POP JUMP JUMPDEST PUSH1 0x2 PUSH1 0x20 MSTORE DUP1 PUSH0 MSTORE PUSH1 0x40 PUSH0 KECCAK256 PUSH0 SWAP2 POP SWAP1 POP SLOAD DUP2 JUMP JUMPDEST PUSH1 0x1 PUSH0 SWAP1 SLOAD SWAP1 PUSH2 0x100 EXP SWAP1 DIV PUSH20 0xFFFFFFFFFFFFFFFFFFFFFFFFFFFFFFFFFFFFFFFF AND DUP2 JUMP JUMPDEST PUSH1 0x3 PUSH0 SWAP1 SLOAD SWAP1 PUSH2 0x100 EXP SWAP1 DIV PUSH1 0xFF AND DUP2 JUMP JUMPDEST PUSH0 PUSH20 0xFFFFFFFFFFFFFFFFFFFFFFFFFFFFFFFFFFFFFFFF DUP3 AND SWAP1 POP SWAP2 SWAP1 POP JUMP JUMPDEST PUSH0 PUSH2 0x34B DUP3 PUSH2 0x322 JUMP JUMPDEST SWAP1 POP SWAP2 SWAP1 POP JUMP JUMPDEST PUSH2 0x35B DUP2 PUSH2 0x341 JUMP JUMPDEST DUP3 MSTORE POP POP JUMP JUMPDEST PUSH0 PUSH1 0x20 DUP3 ADD SWAP1 POP PUSH2 0x374 PUSH0 DUP4 ADD DUP5 PUSH2 0x352 JUMP JUMPDEST SWAP3 SWAP2 POP POP JUMP JUMPDEST PUSH0 DUP1 REVERT JUMPDEST PUSH2 0x387 DUP2 PUSH2 0x341 JUMP JUMPDEST DUP2 EQ PUSH2 0x391 JUMPI PUSH0 DUP1 REVERT JUMPDEST POP JUMP JUMPDEST PUSH0 DUP2 CALLDATALOAD SWAP1 POP PUSH2 0x3A2 DUP2 PUSH2 0x37E JUMP JUMPDEST SWAP3 SWAP2 POP POP JUMP JUMPDEST PUSH0 DUP2 SWAP1 POP SWAP2 SWAP1 POP JUMP JUMPDEST PUSH2 0x3BA DUP2 PUSH2 0x3A8 JUMP JUMPDEST DUP2 EQ PUSH2 0x3C4 JUMPI PUSH0 DUP1 REVERT JUMPDEST POP JUMP JUMPDEST PUSH0 DUP2 CALLDATALOAD SWAP1 POP PUSH2 0x3D5 DUP2 PUSH2 0x3B1 JUMP JUMPDEST SWAP3 SWAP2 POP POP JUMP JUMPDEST PUSH0 DUP1 PUSH0 PUSH1 0x60 DUP5 DUP7 SUB SLT ISZERO PUSH2 0x3F2 JUMPI PUSH2 0x3F1 PUSH2 0x37A JUMP JUMPDEST JUMPDEST PUSH0 PUSH2 0x3FF DUP7 DUP3 DUP8 ADD PUSH2 0x394 JUMP JUMPDEST SWAP4 POP POP PUSH1 0x20 PUSH2 0x410 DUP7 DUP3 DUP8 ADD PUSH2 0x394 JUMP JUMPDEST SWAP3 POP POP PUSH1 0x40 PUSH2 0x421 DUP7 DUP3 DUP8 ADD PUSH2 0x3C7 JUMP JUMPDEST SWAP2 POP POP SWAP3 POP SWAP3 POP SWAP3 JUMP JUMPDEST PUSH0 PUSH1 0x20 DUP3 DUP5 SUB SLT ISZERO PUSH2 0x440 JUMPI PUSH2 0x43F PUSH2 0x37A JUMP JUMPDEST JUMPDEST PUSH0 PUSH2 0x44D DUP5 DUP3 DUP6 ADD PUSH2 0x394 JUMP JUMPDEST SWAP2 POP POP SWAP3 SWAP2 POP POP JUMP JUMPDEST PUSH2 0x45F DUP2 PUSH2 0x3A8 JUMP JUMPDEST DUP3 MSTORE POP POP JUMP JUMPDEST PUSH0 PUSH1 0x20 DUP3 ADD SWAP1 POP PUSH2 0x478 PUSH0 DUP4 ADD DUP5 PUSH2 0x456 JUMP JUMPDEST SWAP3 SWAP2 POP POP JUMP JUMPDEST PUSH32 0x4E487B7100000000000000000000000000000000000000000000000000000000 PUSH0 MSTORE PUSH1 0x21 PUSH1 0x4 MSTORE PUSH1 0x24 PUSH0 REVERT JUMPDEST PUSH1 0x2 DUP2 LT PUSH2 0x4BC JUMPI PUSH2 0x4BB PUSH2 0x47E JUMP JUMPDEST JUMPDEST POP JUMP JUMPDEST PUSH0 DUP2 SWAP1 POP PUSH2 0x4CC DUP3 PUSH2 0x4AB JUMP JUMPDEST SWAP2 SWAP1 POP JUMP JUMPDEST PUSH0 PUSH2 0x4DB DUP3 PUSH2 0x4BF JUMP JUMPDEST SWAP1 POP SWAP2 SWAP1 POP JUMP JUMPDEST PUSH2 0x4EB DUP2 PUSH2 0x4D1 JUMP JUMPDEST DUP3 MSTORE POP POP JUMP JUMPDEST PUSH0 PUSH1 0x20 DUP3 ADD SWAP1 POP PUSH2 0x504 PUSH0 DUP4 ADD DUP5 PUSH2 0x4E2 JUMP JUMPDEST SWAP3 SWAP2 POP POP JUMP JUMPDEST PUSH0 DUP3 DUP3 MSTORE PUSH1 0x20 DUP3 ADD SWAP1 POP SWAP3 SWAP2 POP POP JUMP JUMPDEST PUSH32 0x496E73756666696369656E742062616C616E6365000000000000000000000000 PUSH0 DUP3 ADD MSTORE POP JUMP JUMPDEST PUSH0 PUSH2 0x54E PUSH1 0x14 DUP4 PUSH2 0x50A JUMP JUMPDEST SWAP2 POP PUSH2 0x559 DUP3 PUSH2 0x51A JUMP JUMPDEST PUSH1 0x20 DUP3 ADD SWAP1 POP SWAP2 SWAP1 POP JUMP JUMPDEST PUSH0 PUSH1 0x20 DUP3 ADD SWAP1 POP DUP2 DUP2 SUB PUSH0 DUP4 ADD MSTORE PUSH2 0x57B DUP2 PUSH2 0x542 JUMP JUMPDEST SWAP1 POP SWAP2 SWAP1 POP JUMP JUMPDEST PUSH32 0x4E487B7100000000000000000000000000000000000000000000000000000000 PUSH0 MSTORE PUSH1 0x11 PUSH1 0x4 MSTORE PUSH1 0x24 PUSH0 REVERT JUMPDEST PUSH0 PUSH2 0x5B9 DUP3 PUSH2 0x3A8 JUMP JUMPDEST SWAP2 POP PUSH2 0x5C4 DUP4 PUSH2 0x3A8 JUMP JUMPDEST SWAP3 POP DUP3 DUP3 SUB SWAP1 POP DUP2 DUP2 GT ISZERO PUSH2 0x5DC JUMPI PUSH2 0x5DB PUSH2 0x582 JUMP JUMPDEST JUMPDEST SWAP3 SWAP2 POP POP JUMP JUMPDEST PUSH0 PUSH2 0x5EC DUP3 PUSH2 0x3A8 JUMP JUMPDEST SWAP2 POP PUSH2 0x5F7 DUP4 PUSH2 0x3A8 JUMP JUMPDEST SWAP3 POP DUP3 DUP3 ADD SWAP1 POP DUP1 DUP3 GT ISZERO PUSH2 0x60F JUMPI PUSH2 0x60E PUSH2 0x582 JUMP JUMPDEST JUMPDEST SWAP3 SWAP2 POP POP JUMP JUMPDEST PUSH0 PUSH1 0x60 DUP3 ADD SWAP1 POP PUSH2 0x628 PUSH0 DUP4 ADD DUP7 PUSH2 0x352 JUMP JUMPDEST PUSH2 0x635 PUSH1 0x20 DUP4 ADD DUP6 PUSH2 0x352 JUMP JUMPDEST PUSH2 0x642 PUSH1 0x40 DUP4 ADD DUP5 PUSH2 0x456 JUMP JUMPDEST SWAP5 SWAP4 POP POP POP POP JUMP INVALID LOG2 PUSH5 0x6970667358 0x22 SLT KECCAK256 SWAP8 PUSH14 0x5A40CB5C1F0F4242B922C4DB8797 0xAF SUB ORIGIN PUSH22 0x8F22B544F9AD15FC44EB01964736F6C634300081A00 CALLER "
				},
				"gasEstimates": {
					"creation": {
						"codeDepositCost": "332800",
						"executionCost": "48928",
						"totalCost": "381728"
					},
					"external": {
						"State()": "2620",
						"balances(address)": "2824",
						"buy(address,address,uint256)": "infinite",
						"buyer()": "2552",
						"seller()": "2483"
					}
				},
				"methodIdentifiers": {
					"State()": "f1b6dccd",
					"balances(address)": "27e235e3",
					"buy(address,address,uint256)": "153e66e6",
					"buyer()": "7150d8ae",
					"seller()": "08551a53"
				}
			},
			"storageLayout": {
				"storage": [
					{
						"astId": 3,
						"contract": "contracts/Test.sol:Marketplace",
						"label": "seller",
						"offset": 0,
						"slot": "0",
						"type": "t_address"
					},
					{
						"astId": 5,
						"contract": "contracts/Test.sol:Marketplace",
						"label": "buyer",
						"offset": 0,
						"slot": "1",
						"type": "t_address"
					},
					{
						"astId": 9,
						"contract": "contracts/Test.sol:Marketplace",
						"label": "balances",
						"offset": 0,
						"slot": "2",
						"type": "t_mapping(t_address,t_uint256)"
					},
					{
						"astId": 29,
						"contract": "contracts/Test.sol:Marketplace",
						"label": "State",
						"offset": 0,
						"slot": "3",
						"type": "t_enum(StateType)26"
					}
				],
				"types": {
					"t_address": {
						"encoding": "inplace",
						"label": "address",
						"numberOfBytes": "20"
					},
					"t_enum(StateType)26": {
						"encoding": "inplace",
						"label": "enum Marketplace.StateType",
						"numberOfBytes": "1"
					},
					"t_mapping(t_address,t_uint256)": {
						"encoding": "mapping",
						"key": "t_address",
						"label": "mapping(address => uint256)",
						"numberOfBytes": "32",
						"value": "t_uint256"
					},
					"t_uint256": {
						"encoding": "inplace",
						"label": "uint256",
						"numberOfBytes": "32"
					}
				}
			},
			"userdoc": {
				"kind": "user",
				"methods": {},
				"version": 1
			}
		}
	}
}