{
	"data": {
		"bytecode": {
			"linkReferences": {},
			"object": "6080604052607b5f5561012a806100155f395ff3fe6080604052600436106032575f3560e01c806341c0e1b5146044578063937c0d0a146057578063d767aee014607c576038565b36603857005b3480156042575f80fd5b005b348015604e575f80fd5b50605560a1565b005b3480156061575f80fd5b50606860ba565b6040516073919060dd565b60405180910390f35b3480156086575f80fd5b50608d60bf565b6040516098919060dd565b60405180910390f35b3373ffffffffffffffffffffffffffffffffffffffff16ff5b5f5481565b5f6001905090565b5f819050919050565b60d78160c7565b82525050565b5f60208201905060ee5f83018460d0565b9291505056fea26469706673582212204a08445c1901cfedfc5350501e02ee34eb9f3ce57ee317e261046302581af1da64736f6c634300081a0033",
			"opcodes": "PUSH1 0x80 PUSH1 0x40 MSTORE PUSH1 0x7B PUSH0 SSTORE PUSH2 0x12A DUP1 PUSH2 0x15 PUSH0 CODECOPY PUSH0 RETURN INVALID PUSH1 0x80 PUSH1 0x40 MSTORE PUSH1 0x4 CALLDATASIZE LT PUSH1 0x32 JUMPI PUSH0 CALLDATALOAD PUSH1 0xE0 SHR DUP1 PUSH4 0x41C0E1B5 EQ PUSH1 0x44 JUMPI DUP1 PUSH4 0x937C0D0A EQ PUSH1 0x57 JUMPI DUP1 PUSH4 0xD767AEE0 EQ PUSH1 0x7C JUMPI PUSH1 0x38 JUMP JUMPDEST CALLDATASIZE PUSH1 0x38 JUMPI STOP JUMPDEST CALLVALUE DUP1 ISZERO PUSH1 0x42 JUMPI PUSH0 DUP1 REVERT JUMPDEST STOP JUMPDEST CALLVALUE DUP1 ISZERO PUSH1 0x4E JUMPI PUSH0 DUP1 REVERT JUMPDEST POP PUSH1 0x55 PUSH1 0xA1 JUMP JUMPDEST STOP JUMPDEST CALLVALUE DUP1 ISZERO PUSH1 0x61 JUMPI PUSH0 DUP1 REVERT JUMPDEST POP PUSH1 0x68 PUSH1 0xBA JUMP JUMPDEST PUSH1 0x40 MLOAD PUSH1 0x73 SWAP2 SWAP1 PUSH1 0xDD JUMP JUMPDEST PUSH1 0x40 MLOAD DUP1 SWAP2 SUB SWAP1 RETURN JUMPDEST CALLVALUE DUP1 ISZERO PUSH1 0x86 JUMPI PUSH0 DUP1 REVERT JUMPDEST POP PUSH1 0x8D PUSH1 0xBF JUMP JUMPDEST PUSH1 0x40 MLOAD PUSH1 0x98 SWAP2 SWAP1 PUSH1 0xDD JUMP JUMPDEST PUSH1 0x40 MLOAD DUP1 SWAP2 SUB SWAP1 RETURN JUMPDEST CALLER PUSH20 0xFFFFFFFFFFFFFFFFFFFFFFFFFFFFFFFFFFFFFFFF AND SELFDESTRUCT JUMPDEST PUSH0 SLOAD DUP2 JUMP JUMPDEST PUSH0 PUSH1 0x1 SWAP1 POP SWAP1 JUMP JUMPDEST PUSH0 DUP2 SWAP1 POP SWAP2 SWAP1 POP JUMP JUMPDEST PUSH1 0xD7 DUP2 PUSH1 0xC7 JUMP JUMPDEST DUP3 MSTORE POP POP JUMP JUMPDEST PUSH0 PUSH1 0x20 DUP3 ADD SWAP1 POP PUSH1 0xEE PUSH0 DUP4 ADD DUP5 PUSH1 0xD0 JUMP JUMPDEST SWAP3 SWAP2 POP POP JUMP INVALID LOG2 PUSH5 0x6970667358 0x22 SLT KECCAK256 BLOBBASEFEE ADDMOD PREVRANDAO TLOAD NOT ADD 0xCF 0xED 0xFC MSTORE8 POP POP 0x1E MUL 0xEE CALLVALUE 0xEB SWAP16 EXTCODECOPY 0xE5 PUSH31 0xE317E261046302581AF1DA64736F6C634300081A0033000000000000000000 "
		},
		"gasEstimates": {
			"creation": {
				"codeDepositCost": "59600",
				"executionCost": "22190",
				"totalCost": "81790"
			},
			"external": {
				"": "154",
				"aaa()": "2424",
				"bbb()": "354",
				"kill()": "27720"
			}
		},
		"methodIdentifiers": {
			"aaa()": "937c0d0a",
			"bbb()": "d767aee0",
			"kill()": "41c0e1b5"
		}
	},
	"abi": [
		{
			"inputs": [],
			"stateMutability": "payable",
			"type": "constructor"
		},
		{
			"stateMutability": "nonpayable",
			"type": "fallback"
		},
		{
			"inputs": [],
			"name": "aaa",
			"outputs": [
				{
					"internalType": "uint256",
					"name": "",
					"type": "uint256"
				}
			],
			"stateMutability": "view",
			"type": "function"
		},
		{
			"inputs": [],
			"name": "bbb",
			"outputs": [
				{
					"internalType": "uint256",
					"name": "",
					"type": "uint256"
				}
			],
			"stateMutability": "pure",
			"type": "function"
		},
		{
			"inputs": [],
			"name": "kill",
			"outputs": [],
			"stateMutability": "nonpayable",
			"type": "function"
		},
		{
			"stateMutability": "payable",
			"type": "receive"
		}
	]
}